:020000040800F2
:10000000000002202D910008F984000807850008EF
:100010000D85000813850008198500080000000000
:100020000000000000000000000000001F85000824
:100030002D850008000000003B8500084985000868
:100040007D9100087D9100087D9100087D91000858
:100050007D9100087D9100087D9100087D91000848
:100060007D9100087D9100087D9100087D91000838
:100070007D9100087D9100087D9100087D91000828
:100080007D9100087D9100087D9100087D91000818
:100090007D9100087D9100087D9100087D91000808
:1000A000558500087D9100087D9100087D9100082C
:1000B000698500087D9100087D9100087D91000808
:1000C0007D9100087D9100087D9100087D910008D8
:1000D0007D9100087D9100087D9100087D910008C8
:1000E0007D9100087D9100087D9100087D910008B8
:1000F0007D9100087D9100087D9100087D910008A8
:100100007D9100087D9100087D9100087D91000897
:100110007D9100087D9100087D8500087D91000893
:100120007D9100087D9100087D9100087D91000877
:100130007D91000800000000000000007D91000893
:100140007D9100087D9100087D9100087D91000857
:100150007D9100087D9100087D9100087D91000847
:100160007D9100087D9100087D9100087D91000837
:100170007D9100087D910008000000000000000053
:080180007D9100087D9100084B
:1001900010B5054C237833B9044B13B10448AFF3C1
:1001A00000800123237010BDE0010020000000004A
:1001B00064BA000808B5034B1BB103490348AFF309
:1001C000008008BD00000000E401002064BA0008BF
:1001D000034613F8012B002AFBD1181A0138704787
:1001E00001F0FF01102A2BDB10F0070F08D010F8E8
:1001F000013B013A8B422DD010F0070F42B3F6D1EC
:10020000F0B441EA012141EA014122F007047FF004
:1002100000070023F0E80256083C85EA010586EA5B
:10022000010685FA47F5A3FA87F586FA47F6A5FA97
:1002300087F68EB9EED1F0BC01F0FF0102F00702A3
:1002400032B110F8013B013A83EA010313B1F8D14E
:100250000020704701387047002D06BF354603382F
:10026000073815F0010F07D1013015F4807F02BF68
:10027000013015F4C03F0130F0BC0138704700BFB9
:1002800081F0004102E000BF83F0004330B54FEA47
:1002900041044FEA430594EA050F08BF90EA020FB4
:1002A0001FBF54EA000C55EA020C7FEA645C7FEA47
:1002B000655C00F0E2804FEA5454D4EB5555B8BF6A
:1002C0006D420CDD2C4480EA020281EA030382EADB
:1002D000000083EA010180EA020281EA0303362D6D
:1002E00088BF30BD11F0004F4FEA01314FF4801C40
:1002F0004CEA113102D0404261EB410113F0004F52
:100300004FEA03334CEA133302D0524263EB430308
:1003100094EA050F00F0A780A4F10104D5F1200EA6
:100320000DDB02FA0EFC22FA05F2801841F1000101
:1003300003FA0EF2801843FA05F359410EE0A5F1D5
:1003400020050EF1200E012A03FA0EFC28BF4CF006
:10035000020C43FA05F3C01851EBE37101F00045BC
:1003600007D54FF0000EDCF1000C7EEB00006EEBC9
:100370000101B1F5801F1BD3B1F5001F0CD3490853
:100380005FEA30004FEA3C0C04F101044FEA4452AA
:1003900012F5800F80F09A80BCF1004F08BF5FEA31
:1003A000500C50F1000041EB045141EA050130BD11
:1003B0005FEA4C0C404141EB010111F4801FA4F1B4
:1003C0000104E9D191F0000F04BF01460020B1FA09
:1003D00081F308BF2033A3F10B03B3F120020CDA41
:1003E0000C3208DD02F1140CC2F10C0201FA0CF01F
:1003F00021FA02F10CE002F11402D8BFC2F1200C84
:1004000001FA02F120FA0CFCDCBF41EA0C01904039
:10041000E41AA2BF01EB0451294330BD6FEA040482
:100420001F3C1CDA0C340EDC04F11404C4F120026D
:1004300020FA04F001FA02F340EA030021FA04F37F
:1004400045EA030130BDC4F10C04C4F1200220FAD6
:1004500002F001FA04F340EA0300294630BD21FA14
:1004600004F0294630BD94F0000F83F4801306BFDA
:1004700081F480110134013D4EE77FEA645C18BFCE
:100480007FEA655C29D094EA050F08BF90EA020F65
:1004900005D054EA000C04BF1946104630BD91EA5D
:1004A000030F1EBF0021002030BD5FEA545C05D160
:1004B0004000494128BF41F0004130BD14F580049F
:1004C0003CBF01F5801130BD01F0004545F0FE4113
:1004D00041F470014FF0000030BD7FEA645C1ABF48
:1004E000194610467FEA655C1CBF0B46024650EA7F
:1004F000013406BF52EA033591EA030F41F40021AB
:1005000030BD00BF90F0000F04BF0021704730B530
:100510004FF4806404F132044FF000054FF0000105
:1005200050E700BF90F0000F04BF0021704730B5C6
:100530004FF4806404F1320410F0004548BF40429B
:100540004FF000013EE700BF42004FEAE2014FEAF0
:1005500031014FEA02701FBF12F07F4393F07F4FCB
:1005600081F06051704732F07F4208BF704793F0CE
:100570007F4F04BF41F40021704730B54FF46074E1
:1005800001F0004521F000411CE700BF50EA0102E4
:1005900008BF704730B54FF000050AE050EA01028D
:1005A00008BF704730B511F0004502D5404261EBFD
:1005B00041014FF4806404F132045FEA915C3FF43E
:1005C000D8AE4FF003025FEADC0C18BF03325FEADB
:1005D000DC0C18BF033202EBDC02C2F1200300FA8C
:1005E00003FC20FA02F001FA03FE40EA0E0021FAB1
:1005F00002F11444BDE600BF70B54FF0FF0C4CF49F
:10060000E06C1CEA11541DBF1CEA135594EA0C0F50
:1006100095EA0C0F00F0DEF82C4481EA030621EA8B
:100620004C5123EA4C5350EA013518BF52EA0335C6
:1006300041F4801143F4801338D0A0FB02CE4FF078
:100640000005E1FB02E506F00042E0FB03E54FF0A8
:100650000006E1FB03569CF0000F18BF4EF0010EA0
:10066000A4F1FF04B6F5007F64F5407404D25FEA9C
:100670004E0E6D4146EB060642EAC62141EA55514F
:100680004FEAC52040EA5E504FEACE2EB4F1FD0C91
:1006900088BFBCF5E06F1ED8BEF1004F08BF5FEA0F
:1006A000500E50F1000041EB045170BD06F00046C1
:1006B00046EA010140EA020081EA0301B4EB5C046E
:1006C000C2BFD4EB0C0541EA045170BD41F4801166
:1006D0004FF0000E013C00F3AB8014F1360FDEBF8B
:1006E000002001F0004170BDC4F10004203C35DA67
:1006F0000C341BDC04F11404C4F1200500FA05F3EA
:1007000020FA04F001FA05F240EA020001F000428A
:1007100021F0004110EBD37021FA04F642EB060100
:100720005EEA430E08BF20EAD37070BDC4F10C042A
:10073000C4F1200500FA04F320FA05F001FA04F2EE
:1007400040EA020001F0004110EBD37041F10001DA
:100750005EEA430E08BF20EAD37070BDC4F12005E5
:1007600000FA05F24EEA020E20FA04F301FA05F24D
:1007700043EA020321FA04F001F0004121FA04F2F5
:1007800020EA020000EBD3705EEA430E08BF20EAC5
:10079000D37070BD94F0000F0FD101F000464000FF
:1007A00041EB010111F4801F08BF013CF7D041EA81
:1007B000060195F0000F18BF704703F00046520085
:1007C00043EB030313F4801F08BF013DF7D043EA56
:1007D0000603704794EA0C0F0CEA135518BF95EA0C
:1007E0000C0F0CD050EA410618BF52EA4306D1D193
:1007F00081EA030101F000414FF0000070BD50EAB2
:10080000410606BF1046194652EA430619D094EA3B
:100810000C0F02D150EA013613D195EA0C0F05D125
:1008200052EA03361CBF104619460AD181EA030179
:1008300001F0004141F0FE4141F470014FF0000031
:1008400070BD41F0FE4141F4780170BD70B54FF0CC
:10085000FF0C4CF4E06C1CEA11541DBF1CEA13554C
:1008600094EA0C0F95EA0C0F00F0A7F8A4EB05042E
:1008700081EA030E52EA03354FEA013100F0888025
:100880004FEA03334FF0805545EA131343EA1263EE
:100890004FEA022245EA111545EA10654FEA0026A3
:1008A0000EF000419D4208BF964244F1FD0404F55C
:1008B000407402D25B084FEA3202B61A65EB0305B8
:1008C0005B084FEA32024FF480104FF4002CB6EB75
:1008D000020E75EB030E22BFB61A754640EA0C00F5
:1008E0005B084FEA3202B6EB020E75EB030E22BF35
:1008F000B61A754640EA5C005B084FEA3202B6EB76
:10090000020E75EB030E22BFB61A754640EA9C0034
:100910005B084FEA3202B6EB020E75EB030E22BF04
:10092000B61A754640EADC0055EA060E18D04FEAC2
:10093000051545EA16754FEA06164FEAC30343EA62
:1009400052734FEAC2025FEA1C1CC0D111F4801F2F
:100950000BD141EA00014FF000004FF0004CB6E728
:1009600011F4801F04BF01430020B4F1FD0C88BFC7
:10097000BCF5E06F3FF6AFAEB5EB030C04BFB6EBD2
:10098000020C5FEA500C50F1000041EB045170BDC5
:100990000EF0004E4EEA113114EB5C04C2BFD4EBF2
:1009A0000C0541EA045170BD41F480114FF0000E76
:1009B000013C90E645EA060E8DE60CEA135594EAF2
:1009C0000C0F08BF95EA0C0F3FF43BAF94EA0C0FF5
:1009D0000AD150EA01347FF434AF95EA0C0F7FF46A
:1009E00025AF104619462CE795EA0C0F06D152EABE
:1009F00003353FF4FDAE1046194622E750EA4106A2
:100A000018BF52EA43067FF4C5AE50EA41047FF4B2
:100A10000DAF52EA43057FF4EBAE12E74FF0FF3C17
:100A200006E000BF4FF0010C02E000BF4FF0010CE8
:100A30004DF804CD4FEA410C7FEA6C5C4FEA430C61
:100A400018BF7FEA6C5C1BD001B050EA410C0CBFB0
:100A500052EA430C91EA030F02BF90EA020F002012
:100A6000704710F1000F91EA030F58BF994208BF79
:100A700090422CBFD8176FEAE37040F00100704736
:100A80004FEA410C7FEA6C5C02D150EA013C07D18D
:100A90004FEA430C7FEA6C5CD6D152EA033CD3D0D8
:100AA0005DF8040B704700BF8446104662468C46D2
:100AB0001946634600E000BF01B5FFF7B7FF002805
:100AC00048BF10F1000F01BD4DF808EDFFF7F4FF2E
:100AD0000CBF012000205DF808FB00BF4DF808EDB9
:100AE000FFF7EAFF34BF012000205DF808FB00BFDC
:100AF0004DF808EDFFF7E0FF94BF012000205DF8FE
:100B000008FB00BF4DF808EDFFF7CEFF94BF0120B2
:100B100000205DF808FB00BF4DF808EDFFF7C4FFAB
:100B200034BF012000205DF808FB00BF4FEA410CF4
:100B30007FEA6C5C02D150EA013C0AD14FEA430CD7
:100B40007FEA6C5C02D152EA033C02D14FF0000014
:100B500070474FF0010070474FEA410212F5001252
:100B600015D211D56FF47873B3EB625212D94FEAF4
:100B7000C12343F0004343EA505311F0004F23FADE
:100B800002F018BF404270474FF00000704750EA33
:100B9000013005D111F0004008BF6FF000407047F0
:100BA0004FF00000704700BF4FEA4102B2F1E0434E
:100BB00024BFB3F5001CDCF1FE5C0DD901F0004C44
:100BC0004FEAC0024CEA5070B2F1004F40EB830094
:100BD00008BF20F00100704711F0804F21D113F1C0
:100BE0003872BCBF01F00040704741F480114FEAF9
:100BF0005252C2F11802C2F1200C10FA0CF320FA82
:100C000002F018BF40F001004FEAC1234FEAD3239E
:100C100003FA0CFC40EA0C0023FA02F34FEA430308
:100C2000CCE77FEA625307D150EA01331EBF4FF091
:100C3000FE4040F44000704701F0004040F0FE40AC
:100C400040F40000704700BF80F0004002E000BFA9
:100C500081F0004142001FBF5FEA410392EA030FA7
:100C60007FEA226C7FEA236C6AD04FEA1262D2EBF1
:100C70001363C1BFD218414048404140B8BF5B42F6
:100C8000192B88BF704710F0004F40F4000020F08F
:100C90007F4018BF404211F0004F41F4000121F0A5
:100CA0007F4118BF494292EA030F3FD0A2F10102EF
:100CB00041FA03FC10EB0C00C3F1200301FA03F12D
:100CC00000F0004302D5494260EB4000B0F5000F50
:100CD00013D3B0F1807F06D340084FEA310102F10F
:100CE0000102FE2A51D2B1F1004F40EBC25008BFC1
:100CF00020F0010040EA03007047490040EB00008B
:100D000010F4000FA2F10102EDD1B0FA80FCACF1B9
:100D1000080CB2EB0C0200FA0CF0AABF00EBC250B8
:100D200052421843BCBFD0401843704792F0000FA6
:100D300081F4000106BF80F400000132013BB5E7F9
:100D40004FEA41037FEA226C18BF7FEA236C21D06F
:100D500092EA030F04D092F0000F08BF08467047D4
:100D600090EA010F1CBF0020704712F07F4F04D1A2
:100D7000400028BF40F00040704712F100723CBFB5
:100D800000F50000704700F0004343F0FE4040F4DF
:100D9000000070477FEA226216BF08467FEA23639D
:100DA0000146420206BF5FEA412390EA010F40F488
:100DB000800070474FF0000304E000BF10F00043D4
:100DC00048BF40425FEA000C08BF704743F09643BB
:100DD00001464FF000001CE050EA010208BF7047D6
:100DE0004FF000030AE000BF50EA010208BF70475D
:100DF00011F0004302D5404261EB41015FEA010C72
:100E000002BF84460146002043F0B64308BFA3F169
:100E10008053A3F50003BCFA8CF2083AA3EBC2534B
:100E200010DB01FA02FC634400FA02FCC2F120026A
:100E3000BCF1004F20FA02F243EB020008BF20F0A1
:100E40000100704702F1200201FA02FCC2F1200207
:100E500050EA4C0021FA02F243EB020008BF20EAFC
:100E6000DC70704753B94AB9002908BF00281CBF7D
:100E70004FF0FF314FF0FF3000F072B9ADF1080CC8
:100E80006DE904CE00F006F8DDF804E0DDE90223A8
:100E900004B070472DE9F047089E04468846002BB1
:100EA0004BD18A42154667D9B2FA82F24AB1C2F1F1
:100EB000200701FA02F320FA07F7954047EA0308F2
:100EC00094404FEA154E230CB8FBFEF71FFA85FC41
:100ED0000EFB178843EA084307FB0CF1994209D936
:100EE000EB1807F1FF3080F01B81994240F2188126
:100EF000023F2B445B1AA4B2B3FBFEF00EFB10338F
:100F000044EA034400FB0CFCA44509D92C1900F168
:100F1000FF3380F00781A44540F2048102382C445D
:100F200040EA0740A4EB0C0400271EB1D440002384
:100F3000C6E900433946BDE8F0878B4209D9002E47
:100F400000F0EB800027C6E9000138463946BDE8CD
:100F5000F087B3FA83F7002F47D18B4202D3824246
:100F600000F2FA80841A61EB030301209846002EF8
:100F7000E0D0C6E90048DDE702B9FFDEB2FA82F24E
:100F8000002A40F08F80491B4FEA154E1FFA85F862
:100F90000127B1FBFEFC230C0EFB1C1143EA0143AD
:100FA00008FB0CF1994207D9EB180CF1FF3002D283
:100FB000994200F2CD808446591AA3B2B1FBFEF0EB
:100FC0000EFB101443EA044408FB00F8A04507D9BF
:100FD0002C1900F1FF3302D2A04500F2B68018466A
:100FE000A4EB080440EA0C409FE7C7F1200CBB408B
:100FF00022FA0CFE4EEA030E01FA07F420FA0CF571
:1010000021FA0CF34FEA1E482543B3FBF8F92C0CE8
:1010100008FB19331FFA8EFA44EA034309FB0AF46A
:101020009C4202FA07F200FA07F10BD91EEB030308
:1010300009F1FF3080F087809C4240F28480A9F162
:10104000020973441B1BADB2B3FBF8F008FB10336D
:1010500045EA034400FB0AFAA24508D91EEB040442
:1010600000F1FF336BD2A24569D90238744440EADB
:101070000940A0FB0289A4EB0A044C45C2464B463A
:1010800054D351D0002E69D0B1EB0A0564EB0304B0
:1010900004FA0CFCFD40FC404CEA0505C6E900548E
:1010A000002747E7C2F1200320FA03F7954001FA31
:1010B00002F021FA03F34FEA154E3843010CB3FB5B
:1010C000FEF71FFA85F80EFB173341EA034107FBD1
:1010D00008F38B4204FA02F407D9691807F1FF3CC0
:1010E0002FD28B422DD9023F2944CB1A81B2B3FBB8
:1010F000FEF00EFB103341EA034100FB08F38B4284
:1011000007D9691800F1FF3C17D28B4215D9023874
:101110002944C91A40EA07473BE73746304609E702
:101120000746E7E61846FBE64145ABD2B8EB020AB4
:1011300069EB0E0201381346A4E76046E9E718465A
:1011400095E76746D1E781467CE702382C4447E7BC
:10115000ACF1020C2B442FE7384608E73746E9E6A6
:10116000704700BF80B500AF0E4B1B680D4A43F4BB
:10117000007313600B4B1B680A4A43F480631360CF
:10118000084B1B68074A43F480731360032000F088
:1011900007FD002000F008F807F086F90023184644
:1011A00080BD00BF003C024080B582B000AF7860D7
:1011B000124B1A68124B1B7819464FF47A73B3FB23
:1011C000F1F3B2FBF3F3184600F01FFD0346002BCA
:1011D00001D001230EE07B680F2B0AD8002279682A
:1011E0004FF0FF3000F0E7FC064A7B6813600023F5
:1011F00000E0012318460837BD4680BD08000020E6
:10120000040000200000002080B400AF064B1B78D3
:101210001A46064B1B681344044A136000BFBD46C0
:101220005DF8047B704700BF040000200802002026
:1012300080B400AF034B1B681846BD465DF8047BC5
:10124000704700BF0802002080B584B000AF78600E
:10125000FFF7EEFFB8607B68FB60FB68B3F1FF3F10
:1012600005D0094B1B781A46FB681344FB6000BF8E
:10127000FFF7DEFF0246BB68D31AFA689A42F7D836
:1012800000BF1037BD4680BD0400002080B584B08B
:1012900000AF78600023FB737B68002B01D1012332
:1012A00033E07B681B6C002B09D1786806F078FE70
:1012B0007B6800225A647B68002283F83C207B68AC
:1012C0001B6C03F01003002B18D17B681B6C23F4FC
:1012D000885323F0020343F002027B681A647868A3
:1012E00000F092FA7B6800225A647B681B6C23F042
:1012F000030343F001027B681A6401E00123FB73DE
:101300007B68002283F83C20FB7B18461037BD46E3
:1013100080BD000080B485B000AF78600023BB6062
:101320007B6893F83C30012B01D10223A5E07B6858
:10133000012283F83C207B681B689B6803F0010353
:10134000012B18D07B681B689A687B681B6842F089
:1013500001029A604C4B1B684C4AA2FB03239A0C77
:1013600013465B001344BB6002E0BB68013BBB60FB
:10137000BB68002BF9D17B681B689B6803F00103F5
:10138000012B79D17B681B6C23F4E06323F001030C
:1013900043F480727B681A647B681B685B6803F4A3
:1013A0008063002B07D07B681B6C23F4405343F40D
:1013B00080527B681A647B681B6C03F48053B3F51E
:1013C000805F06D17B685B6C23F006027B685A6401
:1013D00002E07B6800225A647B68002283F83C208C
:1013E0002B4BFB607B681B686FF022021A60FB6866
:1013F0005B6803F01F03002B2AD17B681B68254A1A
:10140000934215D07B681B68234A934205D1204B39
:101410005B6803F01F03002B0AD07B681B681F4A20
:10142000934229D11A4B5B6803F01F030F2B23D87B
:101430007B681B689B6803F04053002B1CD17B68C2
:101440001B689A687B681B6842F080429A6013E0D0
:101450007B681B680F4A93420ED17B681B689B68B0
:1014600003F04053002B07D17B681B689A687B68A8
:101470001B6842F080429A60002318461437BD462C
:101480005DF8047B704700BF0800002083DE1B432B
:1014900000230140002001400021014000220140C2
:1014A00080B584B000AF786039600023FB607B6852
:1014B0001B689B6803F48063B3F5806F13D17B686E
:1014C0001B689B6803F48073B3F5807F0BD17B6846
:1014D0001B6C43F020027B681A647B68002283F84F
:1014E0003C2001235CE0FFF7A3FEF8601AE03B68B4
:1014F000B3F1FF3F16D03B68002B07D0FFF798FEF3
:101500000246FB68D31A3A689A420BD27B681B6C7E
:1015100043F004027B681A647B68002283F83C2055
:1015200003233DE07B681B681B6803F00203022B6A
:10153000DDD17B681B686FF012021A607B681B6C40
:1015400043F400727B681A647B681B689B6803F035
:101550004053002B23D17B681B7E002B1FD17B685F
:101560001B68DB6A03F47003002B06D07B681B68E2
:101570009B6803F48063002B11D17B681B6C23F400
:1015800080727B681A647B681B6C03F48053002BA9
:1015900005D17B681B6C43F001027B681A64002351
:1015A00018461037BD4680BD80B483B000AF786068
:1015B0007B681B68DB6C18460C37BD465DF8047B06
:1015C0007047000080B485B000AF786039600023B8
:1015D000BB607B6893F83C30012B01D1022305E10D
:1015E0007B68012283F83C203B681B68092B25D9C6
:1015F0007B681B68D9683B681B689BB21A46134618
:101600005B0013441E3B072202FA03F3DA437B68B4
:101610001B680A40DA607B681B68D9683B689A6877
:101620003B681B689BB2184603465B0003441E3BA5
:101630009A407B681B680A43DA6022E07B681B687B
:1016400019693B681B689BB21A4613465B0013443A
:10165000072202FA03F3DA437B681B680A401A6127
:101660007B681B6819693B689A683B681B689BB27A
:10167000184603465B0003449A407B681B680A4394
:101680001A613B685B68062B24D87B681B68596B22
:101690003B685A6813469B001344053B1F2202FA1D
:1016A00003F3DA437B681B680A405A637B681B6854
:1016B000596B3B681B689BB218463B685A681346D7
:1016C0009B001344053B00FA03F27B681B680A4346
:1016D0005A634CE03B685B680C2B24D87B681B6822
:1016E000196B3B685A6813469B001344233B1F2227
:1016F00002FA03F3DA437B681B680A401A637B68CB
:101700001B68196B3B681B689BB218463B685A689C
:1017100013469B001344233B00FA03F27B681B68CB
:101720000A431A6323E07B681B68D96A3B685A68DE
:1017300013469B001344413B1F2202FA03F3DA4392
:101740007B681B680A40DA627B681B68D96A3B6861
:101750001B689BB218463B685A6813469B001344AB
:10176000413B00FA03F27B681B680A43DA62224BB2
:10177000FB607B681B68214A934209D13B681B6868
:10178000122B05D1FB685B6843F48002FB685A604A
:101790007B681B68194A934223D13B681B68102B56
:1017A00003D03B681B68112B1BD1FB685B6843F4BB
:1017B0000002FB685A603B681B68102B11D1104B6C
:1017C0001B68104AA2FB03239A0C13469B00134488
:1017D0005B00BB6002E0BB68013BBB60BB68002BE9
:1017E000F9D17B68002283F83C2000231846143787
:1017F000BD465DF8047B7047002301400020014096
:101800000800002083DE1B4380B485B000AF786001
:10181000794BFB60FB685B6823F44032FB685A60DD
:10182000FB685A687B685B681A43FB685A607B6890
:101830001B685A687B681B6822F480725A607B6858
:101840001B6859687B681B691A027B681B680A431E
:101850005A607B681B685A687B681B6822F040727C
:101860005A607B681B6859687B689A687B681B684C
:101870000A435A607B681B689A687B681B6822F47D
:1018800000629A607B681B6899687B68DA687B688D
:101890001B680A439A607B689B6A584A934222D02D
:1018A0007B681B689A687B681B6822F070629A608C
:1018B0007B681B6899687B689A6A7B681B680A4327
:1018C0009A607B681B689A687B681B6822F04052AC
:1018D0009A607B681B6899687B68DA6A7B681B681A
:1018E0000A439A600FE07B681B689A687B681B68F4
:1018F00022F070629A607B681B689A687B681B683C
:1019000022F040529A607B681B689A687B681B686B
:1019100022F002029A607B681B6899687B681B7ED4
:101920005A007B681B680A439A607B6893F82030F2
:10193000002B1BD07B681B685A687B681B6842F4CD
:1019400000625A607B681B685A687B681B6822F4D7
:1019500060425A607B681B6859687B685B6A013B20
:101960005A037B681B680A435A6007E07B681B6860
:101970005A687B681B6822F400625A607B681B68A7
:10198000DA6A7B681B6822F47002DA627B681B6883
:10199000D96A7B68DB69013B1A057B681B680A43CF
:1019A000DA627B681B689A687B681B6822F40072A5
:1019B0009A607B681B6899687B6893F830305A029C
:1019C0007B681B680A439A607B681B689A687B681F
:1019D0001B6822F480629A607B681B6899687B6848
:1019E0005B699A027B681B680A439A6000BF1437E0
:1019F000BD465DF8047B7047002301400100000FE5
:101A000080B485B000AF78607B6803F00703FB60AB
:101A10000C4BDB68BB60BA684FF6FF031340BB603A
:101A2000FB681A02BB68134343F0BF6343F40033FF
:101A3000BB60044ABB68D36000BF1437BD465DF885
:101A4000047B704700ED00E080B400AF044BDB681E
:101A50001B0A03F007031846BD465DF8047B704778
:101A600000ED00E080B483B000AF0346FB7197F94E
:101A70000730002B0BDBFB7903F01F02074997F9B6
:101A800007305B09012000FA02F241F8232000BF71
:101A90000C37BD465DF8047B704700BF00E100E0F5
:101AA00080B483B000AF03463960FB7197F907300B
:101AB000002B0ADB3B68DAB20C4997F907301201B8
:101AC000D2B20B4483F800230AE03B68DAB208493B
:101AD000FB7903F00F03043B1201D2B20B441A76D8
:101AE00000BF0C37BD465DF8047B704700E100E0A5
:101AF00000ED00E080B489B000AFF860B9607A60B2
:101B0000FB6803F00703FB61FB69C3F10703042BC8
:101B100028BF0423BB61FB690433062B02D9FB6990
:101B2000033B00E000237B614FF0FF32BB6902FA08
:101B300003F3DA43BB681A407B699A404FF0FF31E8
:101B40007B6901FA03F3D9437B680B4013431846C2
:101B50002437BD465DF8047B7047000080B582B035
:101B600000AF78607B68013BB3F1807F01D3012334
:101B70000FE00A4A7B68013B53600F214FF0FF30B2
:101B8000FFF78EFF054B00229A60044B07221A6074
:101B9000002318460837BD4680BD00BF10E000E0B6
:101BA00080B582B000AF78607868FFF729FF00BF8A
:101BB0000837BD4680BD80B586B000AF0346B9602A
:101BC0007A60FB7300237B61FFF73EFF78617A68E0
:101BD000B9687869FFF78EFF024697F90F30114612
:101BE0001846FFF75DFF00BF1837BD4680BD80B5C2
:101BF00082B000AF0346FB7197F907301846FFF734
:101C000031FF00BF0837BD4680BD80B582B000AF50
:101C100078607868FFF7A2FF034618460837BD468C
:101C200080BD000080B489B000AF786039600023C7
:101C30007B6100233B610023BB610023FB616BE1FF
:101C40000122FB6902FA03F37B613B681B687A6936
:101C500013403B613A697B699A4240F05A813B6884
:101C60005B68022B03D03B685B68122B23D1FB69B6
:101C7000DA087B68083253F82230BB61FB6903F055
:101C800007039B000F2202FA03F3DB43BA691340F8
:101C9000BB613B681A69FB6903F007039B0002FA0A
:101CA00003F3BA691343BB61FB69DA087B68083246
:101CB000B96943F822107B681B68BB61FB695B0054
:101CC000032202FA03F3DB43BA691340BB613B68AA
:101CD0005B6803F00302FB695B0002FA03F3BA6975
:101CE0001343BB617B68BA691A603B685B68012B70
:101CF0000BD03B685B68022B07D03B685B68112BFD
:101D000003D03B685B68122B30D17B689B68BB615A
:101D1000FB695B00032202FA03F3DB43BA69134059
:101D2000BB613B68DA68FB695B0002FA03F3BA69DE
:101D30001343BB617B68BA699A607B685B68BB616F
:101D40000122FB6902FA03F3DB43BA691340BB616A
:101D50003B685B681B0903F00102FB6902FA03F3AD
:101D6000BA691343BB617B68BA695A607B68DB68F8
:101D7000BB61FB695B00032202FA03F3DB43BA6930
:101D80001340BB613B689A68FB695B0002FA03F38E
:101D9000BA691343BB617B68BA69DA603B685B6808
:101DA00003F08053002B00F0B4800023FB605F4BF6
:101DB0005B6C5E4A43F4804353645C4B5B6C03F49E
:101DC0008043FB60FB685A4AFB699B08023352F868
:101DD0002330BB61FB6903F003039B000F2202FA6F
:101DE00003F3DB43BA691340BB617B68514A9342FA
:101DF0002BD07B68504A934225D07B684F4A934250
:101E00001FD07B684E4A934219D07B684D4A93425B
:101E100013D07B684C4A93420DD07B684B4A934267
:101E200007D07B684A4A934201D107230EE008237A
:101E30000CE006230AE0052308E0042306E0032360
:101E400004E0022302E0012300E00023FA6902F02B
:101E5000030292009340BA691343BB613449FB69A2
:101E60009B080233BA6941F823203A4B1B68BB61D7
:101E70003B69DB43BA691340BB613B685B6803F4B1
:101E80008033002B03D0BA693B691343BB61314AED
:101E9000BB6913602F4B5B68BB613B69DB43BA696D
:101EA0001340BB613B685B6803F40033002B03D035
:101EB000BA693B691343BB61264ABB695360254B32
:101EC0009B68BB613B69DB43BA691340BB613B68FC
:101ED0005B6803F48013002B03D0BA693B6913439A
:101EE000BB611C4ABB6993601A4BDB68BB613B69F1
:101EF000DB43BA691340BB613B685B6803F40013C2
:101F0000002B03D0BA693B691343BB61114ABB691B
:101F1000D360FB690133FB61FB690F2B7FF690AE49
:101F200000BF2437BD465DF8047B7047003802408F
:101F30000038014000000240000402400008024056
:101F4000000C024000100240001402400018024041
:101F5000001C0240003C014080B485B000AF7860B6
:101F60000B467B807B681A697B881340002B02D06C
:101F70000123FB7301E00023FB73FB7B184614373E
:101F8000BD465DF8047B704780B483B000AF7860D5
:101F90000B467B8013467B707B78002B03D07A88BE
:101FA0007B689A6103E07B881A047B689A6100BFB2
:101FB0000C37BD465DF8047B7047000080B586B0E5
:101FC00000AF78607B68002B01D101232DE27B6894
:101FD0001B6803F00103002B75D0A34B9B6803F033
:101FE0000C03042B0CD0A04B9B6803F00C03082BB4
:101FF00012D19D4B5B6803F48003B3F5800F0BD1C6
:10200000994B1B6803F40033002B5BD07B685B6843
:10201000002B57D1012308E27B685B68B3F5803F52
:1020200006D1914B1B68904A43F4803313601DE046
:102030007B685B68B3F5A02F0CD18B4B1B688A4A79
:1020400043F480231360884B1B68874A43F4803332
:1020500013600BE0844B1B68834A23F480331360C6
:10206000814B1B68804A23F4802313607B685B6884
:10207000002B13D0FFF7DCF8386108E0FFF7D8F841
:1020800002463B69D31A642B01D90323CDE1764B79
:102090001B6803F40033002BF0D014E0FFF7C8F8FE
:1020A000386108E0FFF7C4F802463B69D31A642B95
:1020B00001D90323B9E16C4B1B6803F40033002BF7
:1020C000F0D100E000BF7B681B6803F00203002B27
:1020D00063D0654B9B6803F00C03002B0BD0624B65
:1020E0009B6803F00C03082B1CD15F4B5B6803F467
:1020F0008003002B16D15C4B1B6803F00203002BFE
:1021000005D07B68DB68012B01D001238DE1564BA4
:102110001B6823F0F8027B681B69DB0052491343FC
:102120000B603AE07B68DB68002B20D04F4B01222C
:102130001A60FFF77DF8386108E0FFF779F802468A
:102140003B69D31A022B01D903236EE1464B1B686E
:1021500003F00203002BF0D0434B1B6823F0F8027E
:102160007B681B69DB00404913430B6015E03F4B64
:1021700000221A60FFF75CF8386108E0FFF758F8B2
:1021800002463B69D31A022B01D903234DE1364B9A
:102190001B6803F00203002BF0D17B681B6803F07F
:1021A0000803002B30D07B685B69002B16D0304BC6
:1021B00001221A60FFF73CF8386108E0FFF738F8B1
:1021C00002463B69D31A022B01D903232DE1264B8A
:1021D0005B6F03F00203002BF0D015E0244B0022CC
:1021E0001A60FFF725F8386108E0FFF721F802468A
:1021F0003B69D31A022B01D9032316E11A4B5B6FFB
:1022000003F00203002BF0D17B681B6803F004038A
:10221000002B00F0A0800023FB75134B1B6C03F018
:102220008053002B0FD10023FB600F4B1B6C0E4A19
:1022300043F0805313640C4B1B6C03F08053FB6022
:10224000FB680123FB750B4B1B6803F48073002BA9
:1022500021D1084B1B68074A43F480731360FEF7D3
:10226000E7FF386111E000BF00380240000047423C
:10227000800E474200700040FEF7DAFF02463B69DD
:10228000D31A022B01D90323CFE06A4B1B6803F456
:102290008073002BF0D07B689B68012B06D1664BC6
:1022A0001B6F654A43F0010313671CE07B689B6862
:1022B000052B0CD1604B1B6F5F4A43F0040313677F
:1022C0005D4B1B6F5C4A43F0010313670BE05A4BF5
:1022D0001B6F594A23F001031367574B1B6F564A74
:1022E00023F0040313677B689B68002B15D0FEF76F
:1022F0009FFF38610AE0FEF79BFF02463B69D31A55
:1023000041F28832934201D903238EE04A4B1B6F7E
:1023100003F00203002BEED014E0FEF789FF3861D2
:102320000AE0FEF785FF02463B69D31A41F2883284
:10233000934201D9032378E03F4B1B6F03F0020364
:10234000002BEED1FB7D012B05D13B4B1B6C3A4A98
:1023500023F0805313647B689B69002B64D0364B59
:102360009B6803F00C03082B5CD07B689B69022BF5
:1023700041D1324B00221A60FEF75AFF386108E063
:10238000FEF756FF02463B69D31A022B01D90323FD
:102390004BE0294B1B6803F00073002BF0D17B68E6
:1023A000DA697B681B6A1A437B685B6A9B011A4384
:1023B0007B689B6A5B08013B1B041A437B68DB6AF2
:1023C0001B061D4913434B601C4B01221A60FEF78C
:1023D0002FFF386108E0FEF72BFF02463B69D31A56
:1023E000022B01D9032320E0134B1B6803F0007379
:1023F000002BF0D018E0114B00221A60FEF718FFF6
:10240000386108E0FEF714FF02463B69D31A022B3D
:1024100001D9032309E0084B1B6803F00073002B6C
:10242000F0D101E0012300E0002318461837BD4633
:1024300080BD00BF0070004000380240600047428D
:1024400080B584B000AF786039607B68002B01D123
:102450000123CAE0674B1B6803F00F033A689A42F6
:102460000CD9644B3A68D2B21A70624B1B6803F005
:102470000F033A689A4201D00123B6E07B681B68DB
:1024800003F00203002B20D07B681B6803F00403D9
:10249000002B05D0584B9B68574A43F4E053936098
:1024A0007B681B6803F00803002B05D0524B9B6828
:1024B000514A43F4604393604F4B9B6823F0F00212
:1024C0007B689B684C4913438B607B681B6803F0F7
:1024D0000103002B44D07B685B68012B07D1464B7E
:1024E0001B6803F40033002B19D101237DE07B68C6
:1024F0005B68022B03D07B685B68032B07D13E4BE4
:102500001B6803F00073002B09D101236DE03A4BE7
:102510001B6803F00203002B01D1012365E0364B59
:102520009B6823F003027B685B68334913438B602D
:10253000FEF77EFEF8600AE0FEF77AFE0246FB68D0
:10254000D31A41F28832934201D903234DE02A4B3A
:102550009B6803F00C027B685B689B009A42EBD19E
:10256000244B1B6803F00F033A689A420CD2214BAC
:102570003A68D2B21A701F4B1B6803F00F033A6817
:102580009A4201D0012330E07B681B6803F004030A
:10259000002B08D0184B9B6823F4E0527B68DB6863
:1025A000154913438B607B681B6803F00803002BFD
:1025B00009D0114B9B6823F460427B681B69DB00E8
:1025C0000D4913438B6000F01DF801460A4B9B68D0
:1025D0001B0903F00F03094AD35C21FA03F3084AED
:1025E00013600020FEF7E0FD002318461037BD46BB
:1025F00080BD00BF003C02400038024028BC0008FB
:1026000008000020F0B585B000AF00237B600023F8
:10261000FB6000233B600023BB60504B9B6803F0D2
:102620000C03042B07D0082B08D0002B40F08D8022
:102630004B4BBB608CE04B4BBB6089E0474B5B680E
:1026400003F03F037B60454B5B6803F48003002B82
:1026500023D0424B5B689B094FF0000440F2FF110E
:102660004FF0000203EA010504EA02063D4A02FBBC
:1026700006F1002202FB05F20A443A49A5FB0101DA
:10268000531819467B684FF000041A462346FEF79C
:10269000E9FB03460C46FB6049E0304B5B689B0955
:1026A0004FF0000440F2FF114FF0000203EA010571
:1026B00004EA0206294632464FF000034FF00004B8
:1026C000540144EAD1644B0119462246491B62EB8E
:1026D00006024FF000034FF00004940144EA9164B5
:1026E0008B015B1A64EB02044FF000014FF0000213
:1026F000E20042EA5372D9000B4614465B1944EBE0
:1027000006044FF000014FF00002A20242EA935289
:1027100099020B461446184621467B684FF0000488
:102720001A462346FEF79EFB03460C46FB600B4B06
:102730005B681B0C03F0030301335B003B60FA682A
:102740003B68B2FBF3F3BB6002E0054BBB6000BF2C
:10275000BB6818461437BD46F0BD00BF00380240C4
:102760000024F40040787D0180B400AF034B1B6867
:102770001846BD465DF8047B704700BF0800002086
:1027800080B500AFFFF7F0FF0146054B9B689B0A41
:1027900003F00703034AD35C21FA03F3184680BD14
:1027A0000038024038BC000880B500AFFFF7DCFFFE
:1027B0000146054B9B685B0B03F00703034AD35CA0
:1027C00021FA03F3184680BD0038024038BC0008E7
:1027D00080B582B000AF78607B68002B01D1012307
:1027E00056E07B6800229A627B6893F85130DBB236
:1027F000002B06D17B68002283F85020786805F012
:10280000B5FD7B68022283F851207B681B681A683B
:102810007B681B6822F040021A607B685A687B68FC
:102820009B681A437B68DB681A437B681B691A4301
:102830007B685B691A437B689B6903F400731A43E6
:102840007B68DB691A437B681B6A42EA03017B6889
:102850009A6A7B681B680A431A607B689B691B0C39
:1028600003F004017B685A6A7B681B680A435A605C
:102870007B681B68DA697B681B6822F40062DA6196
:102880007B6800225A657B68012283F8512000236F
:1028900018460837BD4680BD80B58CB000AFF860E3
:1028A000B9607A607B800123FB62002387F82B30BC
:1028B000FB6893F85030012B01D102238AE1FB68B9
:1028C000012283F85020FEF7B3FC7862FB6893F88E
:1028D000513087F82330FB685B68FB617B887B8322
:1028E00097F82330012B0FD0FB69B3F5827F07D116
:1028F000FB689B68002B03D197F82330042B03D08F
:10290000022387F82B305BE1BB68002B05D07B6886
:10291000002B02D07B88002B03D1012387F82B30BA
:102920004EE1FB6893F85130DBB2042B03D0FB6817
:10293000052283F85120FB6800225A65FB687A68FB
:102940009A63FB687A88DA87FB687A889A87FB68DB
:10295000BA681A63FB687A88DA86FB687A889A868E
:10296000FB6800221A64FB6800225A64FB681B683B
:102970001B6803F04003402B07D0FB681B681A68F4
:10298000FB681B6842F040021A60FB68DB68B3F525
:10299000006F78D1FB685B68002B02D07B8B012B2A
:1029A00066D1FB681B6B1A88FB681B68DA60FB68E2
:1029B0001B6B9A1CFB681A63FB68DB8E9BB2013BA6
:1029C0009AB2FB68DA8653E0FB681B689B6803F0E9
:1029D0000203022B1BD1FB68DB8E9BB2002B16D0AF
:1029E000FB6A012B13D1FB681B6B1A88FB681B6801
:1029F000DA60FB681B6B9A1CFB681A63FB68DB8E52
:102A00009BB2013B9AB2FB68DA860023FB62FB684B
:102A10001B689B6803F00103012B19D1FB68DB8F56
:102A20009BB2002B14D0FB681B68DA68FB689B6BB9
:102A300092B21A80FB689B6B9A1CFB689A63FB68D6
:102A4000DB8F9BB2013B9AB2FB68DA870123FB6202
:102A5000FEF7EEFB02467B6AD31ABA6B9A4207D89E
:102A6000BB6BB3F1FF3F03D0032387F82B30A7E004
:102A7000FB68DB8E9BB2002BA6D1FB68DB8F9BB281
:102A8000002BA1D17CE0FB685B68002B02D07B8B24
:102A9000012B6BD1FB681A6BFB681B680C33127837
:102AA0001A70FB681B6B5A1CFB681A63FB68DB8E91
:102AB0009BB2013B9AB2FB68DA8657E0FB681B6861
:102AC0009B6803F00203022B1CD1FB68DB8E9BB2D8
:102AD000002B17D0FB6A012B14D1FB681A6BFB6823
:102AE0001B680C3312781A70FB681B6B5A1CFB684E
:102AF0001A63FB68DB8E9BB2013B9AB2FB68DA86F5
:102B00000023FB62FB681B689B6803F00103012B39
:102B100019D1FB68DB8F9BB2002B14D0FB681B68BC
:102B2000DA68FB689B6BD2B21A70FB689B6B5A1C0D
:102B3000FB689A63FB68DB8F9BB2013B9AB2FB6830
:102B4000DA870123FB62FEF773FB02467B6AD31A26
:102B5000BA6B9A4203D8BB6BB3F1FF3F02D1BB6B98
:102B6000002B03D1032387F82B3029E0FB68DB8E91
:102B70009BB2002BA2D1FB68DB8F9BB2002B9DD1B7
:102B80007A6AB96BF86800F093F80346002B06D018
:102B9000012387F82B30FB6820225A6510E0FB6880
:102BA0009B68002B0BD100237B61FB681B68DB68F3
:102BB0007B61FB681B689B687B617B6900E000BFF1
:102BC000FB68012283F85120FB68002283F8502023
:102BD00097F82B3018463037BD4680BD80B584B09D
:102BE00000AFF860B9603B601346FB714CE03B6896
:102BF000B3F1FF3F48D0FEF71BFB0246BB69D31A77
:102C00003A689A4202D93B68002B3DD1FB681B68A9
:102C10005A68FB681B6822F0E0025A60FB685B6838
:102C2000B3F5827F11D1FB689B68B3F5004F04D0E8
:102C3000FB689B68B3F5806F07D1FB681B681A6857
:102C4000FB681B6822F040021A60FB689B6AB3F5C0
:102C5000005F0FD1FB681B681A68FB681B6822F4D1
:102C600000521A60FB681B681A68FB681B6842F414
:102C700000521A60FB68012283F85120FB68002291
:102C800083F8502003230FE0FB681B689A68BB6839
:102C90001340BA689A420CBF01230023DBB21A46E4
:102CA000FB799A42A3D1002318461037BD4680BD58
:102CB00080B588B002AFF860B9607A601B4B1B68C2
:102CC0001B4AA2FB03235B0D4FF47A7202FB03F352
:102CD0007B61FB685B68B3F5827F12D17B680093F0
:102CE000BB6800228021F868FFF778FF0346002BBD
:102CF00016D0FB685B6D43F02002FB685A65032326
:102D00000FE07B69002B0AD07B69013B7B61FB688C
:102D10001B689B6803F08003802BF2D000E000BFAB
:102D2000002318461837BD4680BD00BF08000020AC
:102D3000819F5E1680B582B000AF78607B68002B03
:102D400001D101231DE07B6893F83D30DBB2002BFD
:102D500006D17B68002283F83C20786805F0ACFF40
:102D60007B68022283F83D207B681A687B68043305
:102D70001946104600F002FD7B68012283F83D20D1
:102D8000002318460837BD4680BD80B485B000AF2B
:102D900078607B68022283F83D207B681B689B6813
:102DA00003F00703FB60FB68062B07D07B681B68FA
:102DB0001A687B681B6842F001021A607B68012276
:102DC00083F83D20002318461437BD465DF8047B88
:102DD000704780B483B000AF78607B68022283F8CC
:102DE0003D207B681B681A6A41F211131340002BC7
:102DF0000FD17B681B681A6A40F244431340002BD2
:102E000007D17B681B681A687B681B6822F0010287
:102E10001A607B68012283F83D20002318460C3796
:102E2000BD465DF8047B704780B483B000AF786026
:102E30007B681B68DA687B681B6822F00102DA6035
:102E40007B681B681A6A41F211131340002B0FD1E3
:102E50007B681B681A6A40F244431340002B07D179
:102E60007B681B681A687B681B6822F001021A6085
:102E7000002318460C37BD465DF8047B704780B5CB
:102E800082B000AF78607B68002B01D101231DE088
:102E90007B6893F83D30DBB2002B06D17B680022C3
:102EA00083F83C20786805F0FDFF7B68022283F8F8
:102EB0003D207B681A687B6804331946104600F091
:102EC0005DFC7B68012283F83D200023184608370B
:102ED000BD4680BD80B584B000AF786039607B6846
:102EE0001B6801223968184600F032FF7B681B68B6
:102EF000154A934204D07B681B68144A934201D15F
:102F0000012300E00023002B07D07B681B685A6C6C
:102F10007B681B6842F400425A647B681B689B68AC
:102F200003F00703FB60FB68062B07D07B681B6878
:102F30001A687B681B6842F001021A600023184679
:102F40001037BD4680BD00BF0000014000040140B5
:102F500080B582B000AF786039607B681B68002262
:102F60003968184600F0F4FE7B681B68224A9342D9
:102F700004D07B681B68214A934201D1012300E001
:102F80000023002B17D07B681B681A6A41F21113CB
:102F90001340002B0FD17B681B681A6A40F2444330
:102FA0001340002B07D17B681B685A6C7B681B6839
:102FB00022F400425A647B681B681A6A41F21113BA
:102FC0001340002B0FD17B681B681A6A40F2444300
:102FD0001340002B07D17B681B681A687B681B684D
:102FE00022F001021A607B68012283F83D20002351
:102FF00018460837BD4680BD00000140000401406E
:1030000080B586B000AF786039607B68002B01D155
:10301000012383E07B6893F83D30DBB2002B06D1BF
:103020007B68002283F83C20786805F0BDFE7B6851
:10303000022283F83D207B681B689B687A681268CF
:1030400023F4804323F0070393607B681A687B684E
:1030500004331946104600F091FB7B681B689B689F
:103060007B617B681B689B693B617B681B681B6A93
:10307000FB603B681B687A6913437B613B6923F4FF
:10308000407323F003033B613B689A683B689B698C
:103090001B0213433A6913433B613B6923F44063CA
:1030A00023F00C033B613B6923F4704323F0F003EE
:1030B0003B613B68DA683B68DB691B0213433A6992
:1030C00013433B613B681B691A013B681B6A1B0386
:1030D00013433A6913433B61FB6823F02203FB600F
:1030E000FB6823F08803FB603B685A683B685B69B8
:1030F0001B011343FA681343FB607B681B687A6902
:103100009A607B681B683A699A617B681B68FA68F9
:103110001A627B68012283F83D2000231846183785
:10312000BD4680BD80B582B000AF786039603B6835
:10313000002B02D0042B08D00FE07B681B68012213
:103140000021184600F004FE16E07B681B6801228F
:103150000421184600F0FCFD0EE07B681B6801228C
:103160000021184600F0F4FD7B681B680122042151
:10317000184600F0EDFD00BF7B681B681A687B688D
:103180001B6842F001021A60002318460837BD464A
:1031900080BD80B582B000AF786039603B68002B9D
:1031A00002D0042B08D00FE07B681B6800220021AE
:1031B000184600F0CDFD16E07B681B680022042154
:1031C000184600F0C5FD0EE07B681B680022002158
:1031D000184600F0BDFD7B681B68002204211846DC
:1031E00000F0B6FD00BF7B681B681A6A41F211133C
:1031F0001340002B0FD17B681B681A6A40F24443CE
:103200001340002B07D17B681B681A687B681B681A
:1032100022F001021A60002318460837BD4680BD1F
:1032200080B582B000AF78607B681B681B6903F0D3
:103230000203022B22D17B681B68DB6803F00203C8
:10324000022B1BD17B681B686FF002021A617B683E
:1032500001221A777B681B689B6903F00303002B2C
:1032600003D0786800F06BFA05E0786800F05DFA4A
:10327000786800F06EFA7B6800221A777B681B681A
:103280001B6903F00403042B22D17B681B68DB68F5
:1032900003F00403042B1BD17B681B686FF004024E
:1032A0001A617B6802221A777B681B689B6903F4AA
:1032B0004073002B03D0786800F041FA05E078688D
:1032C00000F033FA786800F044FA7B6800221A773D
:1032D0007B681B681B6903F00803082B22D17B68FD
:1032E0001B68DB6803F00803082B1BD17B681B6895
:1032F0006FF008021A617B6804221A777B681B68EA
:10330000DB6903F00303002B03D0786800F017FAA1
:1033100005E0786800F009FA786800F01AFA7B682E
:1033200000221A777B681B681B6903F01003102BBF
:1033300022D17B681B68DB6803F01003102B1BD1C4
:103340007B681B686FF010021A617B6808221A778D
:103350007B681B68DB6903F44073002B03D078683B
:1033600000F0EDF905E0786800F0DFF9786800F02A
:10337000F0F97B6800221A777B681B681B6903F0F1
:103380000103012B0ED17B681B68DB6803F001038E
:10339000012B07D17B681B686FF001021A61786806
:1033A00002F0D2FC7B681B681B6903F08003802B52
:1033B0000ED17B681B68DB6803F08003802B07D18C
:1033C0007B681B686FF080021A61786800F086FDE8
:1033D0007B681B681B6903F04003402B0ED17B68A0
:1033E0001B68DB6803F04003402B07D17B681B6838
:1033F0006FF040021A61786800F0B5F97B681B68CD
:103400001B6903F02003202B0ED17B681B68DB684F
:1034100003F02003202B07D17B681B686FF020028C
:103420001A61786800F050FD00BF0837BD4680BDC6
:1034300080B584B000AFF860B9607A60FB6893F83B
:103440003C30012B01D10223B4E0FB68012283F858
:103450003C20FB68022283F83D207B680C2B00F2A5
:103460009F8001A252F823F09D340008A135000886
:10347000A1350008A1350008DD340008A135000899
:10348000A1350008A13500081F350008A135000846
:10349000A1350008A13500085F350008FB681B68EE
:1034A000B968184600F00AFAFB681B689A69FB685D
:1034B0001B6842F008029A61FB681B689A69FB6806
:1034C0001B6822F004029A61FB681B689969BB685B
:1034D0001A69FB681B680A439A6162E0FB681B6813
:1034E000B968184600F05AFAFB681B689A69FB68CD
:1034F0001B6842F400629A61FB681B689A69FB686A
:103500001B6822F480629A61FB681B689969BB683A
:103510001B691A02FB681B680A439A6141E0FB6859
:103520001B68B968184600F0AFFAFB681B68DA69D7
:10353000FB681B6842F00802DA61FB681B68DA6905
:10354000FB681B6822F00402DA61FB681B68D9691A
:10355000BB681A69FB681B680A43DA6121E0FB68F3
:103560001B68B968184600F003FBFB681B68DA6942
:10357000FB681B6842F40062DA61FB681B68DA6969
:10358000FB681B6822F48062DA61FB681B68D969FA
:10359000BB681B691A02FB681B680A43DA6100E01A
:1035A00000BFFB68012283F83D20FB68002283F8FE
:1035B0003C20002318461037BD4680BD80B584B03E
:1035C00000AF786039607B6893F83C30012B01D103
:1035D0000223A6E07B68012283F83C207B6802225C
:1035E00083F83D207B681B689B68FB60FB6823F0C9
:1035F0007703FB60FB6823F47F43FB607B681B68F9
:10360000FA689A603B681B68402B67D0402B0BD848
:10361000102B73D0102B02D8002B6FD078E0202B0A
:103620006CD0302B6AD073E0702B0DD0702B04D887
:10363000502B33D0602B41D06AE0B3F5805F66D069
:10364000B3F5005F17D063E07B6818683B68996842
:103650003B685A683B68DB6800F05AFB7B681B6874
:103660009B68FB60FB6843F07703FB607B681B682B
:10367000FA689A604CE07B6818683B6899683B6818
:103680005A683B68DB6800F043FB7B681B689A68FC
:103690007B681B6842F480429A6039E07B68186856
:1036A0003B6859683B68DB681A4600F0B7FA7B68EC
:1036B0001B685021184600F010FB29E07B68186851
:1036C0003B6859683B68DB681A4600F0D6FA7B68AD
:1036D0001B686021184600F000FB19E07B68186841
:1036E0003B6859683B68DB681A4600F097FA7B68CC
:1036F0001B684021184600F0F0FA09E07B681A6860
:103700003B681B681946104600F0E7FA00E000BF6E
:103710007B68012283F83D207B68002283F83C20EF
:10372000002318461037BD4680BD80B483B000AF7B
:10373000786000BF0C37BD465DF8047B704780B4ED
:1037400083B000AF786000BF0C37BD465DF8047BE6
:10375000704780B483B000AF786000BF0C37BD46BF
:103760005DF8047B704780B483B000AF786000BF21
:103770000C37BD465DF8047B7047000080B485B00F
:1037800000AF786039607B681B68FB607B68404AEB
:10379000934213D07B68B3F1804F0FD07B683D4AD2
:1037A00093420BD07B683C4A934207D07B683B4AEC
:1037B000934203D07B683A4A934208D1FB6823F0D6
:1037C0007003FB603B685B68FA681343FB607B68CF
:1037D0002F4A93422BD07B68B3F1804F27D07B6870
:1037E0002C4A934223D07B682B4A93421FD07B689C
:1037F0002A4A93421BD07B68294A934217D07B68A0
:10380000284A934213D07B68274A93420FD07B68A3
:10381000264A93420BD07B68254A934207D07B68A7
:10382000244A934203D07B68234A934208D1FB6821
:1038300023F44073FB603B68DB68FA681343FB606A
:10384000FB6823F080023B685B691343FB607B6885
:10385000FA681A603B689A687B68DA623B681A68A3
:103860007B689A627B680A4A934203D07B680C4A61
:10387000934203D13B681A697B681A637B68012213
:103880005A6100BF1437BD465DF8047B704700BF26
:10389000000001400004004000080040000C00400F
:1038A0000004014000400140004401400048014044
:1038B00000180040001C00400020004080B487B089
:1038C00000AF786039607B681B6A23F001027B6877
:1038D0001A627B681B6A7B617B685B683B617B6803
:1038E0009B69FB60FB6823F07003FB60FB6823F0BF
:1038F0000303FB603B681B68FA681343FB607B694A
:1039000023F002037B613B689B687A6913437B6108
:103910007B68204A934203D07B681F4A93420CD1B4
:103920007B6923F008037B613B68DB687A6913439A
:103930007B617B6923F004037B617B68154A9342BA
:1039400003D07B68144A934211D13B6923F48073FE
:103950003B613B6923F400733B613B685B693A69F7
:1039600013433B613B689B693A6913433B617B6846
:103970003A695A607B68FA689A613B685A687B6862
:103980005A637B687A691A6200BF1C37BD465DF8CE
:10399000047B7047000001400004014080B487B000
:1039A00000AF786039607B681B6A23F010027B6887
:1039B0001A627B681B6A7B617B685B683B617B6822
:1039C0009B69FB60FB6823F4E043FB60FB6823F426
:1039D0004073FB603B681B681B02FA681343FB6083
:1039E0007B6923F020037B613B689B681B017A693C
:1039F00013437B617B68224A934203D07B68214A50
:103A000093420DD17B6923F080037B613B68DB68C7
:103A10001B017A6913437B617B6923F040037B615F
:103A20007B68174A934203D07B68164A934213D1AE
:103A30003B6923F480633B613B6923F400633B6192
:103A40003B685B699B003A6913433B613B689B6938
:103A50009B003A6913433B617B683A695A607B6813
:103A6000FA689A613B685A687B689A637B687A69EE
:103A70001A6200BF1C37BD465DF8047B704700BF6B
:103A8000000001400004014080B487B000AF7860BE
:103A900039607B681B6A23F480727B681A627B68DA
:103AA0001B6A7B617B685B683B617B68DB69FB60F1
:103AB000FB6823F07003FB60FB6823F00303FB60EB
:103AC0003B681B68FA681343FB607B6923F400734F
:103AD0007B613B689B681B027A6913437B617B684F
:103AE000214A934203D07B68204A93420DD17B69DF
:103AF00023F400637B613B68DB681B027A69134334
:103B00007B617B6923F480637B617B68164A934207
:103B100003D07B68154A934213D13B6923F4805349
:103B20003B613B6923F400533B613B685B691B01CC
:103B30003A6913433B613B689B691B013A69134334
:103B40003B617B683A695A607B68FA68DA613B6876
:103B50005A687B68DA637B687A691A6200BF1C372F
:103B6000BD465DF8047B7047000001400004014041
:103B700080B487B000AF786039607B681B6A23F43B
:103B800080527B681A627B681B6A3B617B685B685A
:103B90007B617B68DB69FB60FB6823F4E043FB60CF
:103BA000FB6823F44073FB603B681B681B02FA68E8
:103BB0001343FB603B6923F400533B613B689B6804
:103BC0001B033A6913433B617B68124A934203D05B
:103BD0007B68114A934209D17B6923F480437B615E
:103BE0003B685B699B017A6913437B617B687A69F7
:103BF0005A607B68FA68DA613B685A687B681A64C5
:103C00007B683A691A6200BF1C37BD465DF8047BC9
:103C1000704700BF000001400004014080B487B03D
:103C200000AFF860B9607A60FB681B6A7B61FB6873
:103C30001B6A23F00102FB681A62FB689B693B6107
:103C40003B6923F0F0033B617B681B013A69134336
:103C50003B617B6923F00A037B617A69BB6813438C
:103C60007B61FB683A699A61FB687A691A6200BFF6
:103C70001C37BD465DF8047B704780B487B000AF49
:103C8000F860B9607A60FB681B6A23F01002FB6879
:103C90001A62FB689B697B61FB681B6A3B617B69FD
:103CA00023F470437B617B681B037A6913437B6158
:103CB0003B6923F0A0033B61BB681B013A691343D6
:103CC0003B61FB687A699A61FB683A691A6200BFD6
:103CD0001C37BD465DF8047B704780B485B000AFEB
:103CE000786039607B689B68FB60FB6823F0700339
:103CF000FB603A68FB68134343F00703FB607B6893
:103D0000FA689A6000BF1437BD465DF8047B7047BF
:103D100080B487B000AFF860B9607A603B60FB6840
:103D20009B687B617B6923F47F437B613B681A025C
:103D30007B681A43BB6813437A6913437B61FB6852
:103D40007A699A6000BF1C37BD465DF8047B7047F6
:103D500080B487B000AFF860B9607A60BB6803F0E8
:103D60001F03012202FA03F37B61FB681A6A7B6975
:103D7000DB431A40FB681A62FB681A6ABB6803F0EF
:103D80001F03796801FA03F31A43FB681A6200BF44
:103D90001C37BD465DF8047B704780B485B000AF2A
:103DA000786039607B6893F83C30012B01D10223A5
:103DB00032E07B68012283F83C207B68022283F892
:103DC0003D207B681B685B68FB607B681B689B68A9
:103DD000BB60FB6823F07003FB603B681B68FA68FC
:103DE0001343FB60BB6823F08003BB603B685B68E8
:103DF000BA681343BB607B681B68FA685A607B68CB
:103E00001B68BA689A607B68012283F83D207B6852
:103E1000002283F83C20002318461437BD465DF885
:103E2000047B704780B485B000AF786039600023B0
:103E3000FB607B6893F83C30012B01D102233DE00D
:103E40007B68012283F83C20FB6823F0FF023B687B
:103E5000DB681343FB60FB6823F440723B689B689C
:103E60001343FB60FB6823F480623B685B68134389
:103E7000FB60FB6823F400623B681B681343FB6034
:103E8000FB6823F480523B681B691343FB60FB68AB
:103E900023F400523B685B691343FB60FB6823F427
:103EA00080423B68DB691343FB607B681B68FA68F0
:103EB0005A647B68002283F83C200023184614379C
:103EC000BD465DF8047B704780B483B000AF786076
:103ED00000BF0C37BD465DF8047B704780B483B0EB
:103EE00000AF786000BF0C37BD465DF8047B7047BB
:103EF00080B582B000AF78607B68002B01D10123D0
:103F00003FE07B6893F83930DBB2002B06D17B6849
:103F1000002283F83820786805F0C0F87B682422F6
:103F200083F839207B681B68DA687B681B6822F499
:103F30000052DA60786800F00BF97B681B681A6938
:103F40007B681B6822F490421A617B681B685A697F
:103F50007B681B6822F02A025A617B681B68DA685A
:103F60007B681B6842F40052DA607B680022DA63E7
:103F70007B68202283F839207B68202283F83A204E
:103F8000002318460837BD4680BD80B588B002AF13
:103F9000F860B9603B601346FB8000237B61FB68DF
:103FA00093F83930DBB2202B40F08380BB68002BC4
:103FB00002D0FB88002B01D101237BE0FB6893F842
:103FC0003830012B01D1022374E0FB68012283F811
:103FD0003820FB680022DA63FB68212283F839204D
:103FE000FDF726F97861FB68FA889A84FB68FA88FD
:103FF000DA8442E0FB68DB8C9BB2013B9AB2FB683F
:10400000DA84FB689B68B3F5805F22D13B6800933C
:104010007B6900228021F86800F050F80346002BED
:1040200001D0032346E0BB683B613B691B881A460D
:10403000FB681B68C2F308025A60FB681B69002B0F
:1040400003D1BB680233BB6017E0BB680133BB60C0
:1040500013E03B6800937B6900228021F86800F040
:104060002DF80346002B01D0032323E0BB685A1C24
:10407000BA601A78FB681B685A60FB68DB8C9BB2DD
:10408000002BB7D13B6800937B6900224021F86880
:1040900000F014F80346002B01D003230AE0FB686C
:1040A000202283F83920FB68002283F8382000237F
:1040B00000E0022318461837BD4680BD80B584B0A5
:1040C00000AFF860B9603B601346FB712CE0BB6940
:1040D000B3F1FF3F28D0BB69002B07D0FDF7A8F84C
:1040E00002463B68D31ABA699A421DD2FB681B6824
:1040F000DA68FB681B6822F4D072DA60FB681B6820
:104100005A69FB681B6822F001025A61FB68202291
:1041100083F83920FB68202283F83A20FB680022CC
:1041200083F8382003230FE0FB681B681A68BB681C
:104130001340BA689A420CBF01230023DBB21A462F
:10414000FB799A42C3D0002318461037BD4680BD84
:10415000B0B584B000AF78607B681B681B6923F43E
:1041600040517B68DA687B681B680A431A617B6888
:104170009A687B681B691A437B685B691A437B6892
:10418000DB691343FB607B681B68DB6823F4164321
:1041900023F00C037A681268F9680B43D3607B68DC
:1041A0001B685B6923F440717B689A697B681B68B4
:1041B0000A435A617B68DB69B3F5004F40F0E48045
:1041C0007B681B68AB4A934204D07B681B68AA4A91
:1041D00093426CD1FEF7E8FA024613469B00134463
:1041E0009A001A447B685B685B00B2FBF3F3A34A56
:1041F000A2FB03235B091C01FEF7D6FA0246134615
:104200009B0013449A001A447B685B685B00B2FB16
:10421000F3F5FEF7C9FA024613469B0013449A00D1
:104220001A447B685B685B00B2FBF3F3934AA2FB22
:1042300003235B09642202FB03F3EB1ADB00323336
:104240008E4AA2FB03235B095B0003F4F8731C4452
:10425000FEF7AAFA024613469B0013449A001A443A
:104260007B685B685B00B2FBF3F5FEF79DFA0246E4
:1042700013469B0013449A001A447B685B685B00FA
:10428000B2FBF3F37D4AA2FB03235B09642202FB2A
:1042900003F3EB1ADB003233784AA2FB03235B09FA
:1042A00003F007027B681B6822449A6054E1FEF722
:1042B00067FA024613469B0013449A001A447B682F
:1042C0005B685B00B2FBF3F36C4AA2FB03235B0960
:1042D0001C01FEF755FA024613469B0013449A0050
:1042E0001A447B685B685B00B2FBF3F5FEF748FAA3
:1042F000024613469B0013449A001A447B685B688D
:104300005B00B2FBF3F35D4AA2FB03235B0964226B
:1043100002FB03F3EB1ADB003233584AA2FB032300
:104320005B095B0003F4F8731C44FEF729FA0246AC
:1043300013469B0013449A001A447B685B685B0039
:10434000B2FBF3F5FEF71CFA024613469B0013443A
:104350009A001A447B685B685B00B2FBF3F3474A40
:10436000A2FB03235B09642202FB03F3EB1ADB00CD
:104370003233424AA2FB03235B0903F007027B6846
:104380001B6822449A60E7E07B681B68394A9342C5
:1043900004D07B681B68384A934271D1FEF704FA57
:1043A000024613469B0013449A001A447B685B68DC
:1043B0009B00B2FBF3F3314AA2FB03235B091C0110
:1043C000FEF7F2F9024613469B0013449A001A4482
:1043D0007B685B689B00B2FBF3F5FEF7E5F90246EC
:1043E00013469B0013449A001A447B685B689B0049
:1043F000B2FBF3F3214AA2FB03235B09642202FB15
:1044000003F3EB1A1B0132331C4AA2FB03235B09A3
:1044100003F0F0031C44FEF7C7F9024613469B0065
:1044200013449A001A447B685B689B00B2FBF3F567
:10443000FEF7BAF9024613469B0013449A001A4449
:104440007B685B689B00B2FBF3F30C4AA2FB03237F
:104450005B09642202FB03F3EB1A1B013233074AA8
:10446000A2FB03235B0903F00F027B681B68224455
:104470009A6071E000100140001401401F85EB516B
:10448000FEF77EF9024613469B0013449A001A4435
:104490007B685B689B00B2FBF3F3314AA2FB03230A
:1044A0005B091C01FEF76CF9024613469B0013449E
:1044B0009A001A447B685B689B00B2FBF3F5FEF739
:1044C0005FF9024613469B0013449A001A447B6826
:1044D0005B689B00B2FBF3F3214AA2FB03235B0959
:1044E000642202FB03F3EB1A1B0132331C4AA2FBCA
:1044F00003235B0903F0F0031C44FEF741F9024675
:1045000013469B0013449A001A447B685B689B0027
:10451000B2FBF3F5FEF734F9024613469B00134451
:104520009A001A447B685B689B00B2FBF3F30C4A69
:10453000A2FB03235B09642202FB03F3EB1A1B01BA
:104540003233074AA2FB03235B0903F00F027B68A7
:104550001B6822449A60FFE700BF1037BD46B0BD1C
:104560001F85EB5180B582B000AF78607868FCF7AA
:104570006BFE00BF0837BD4680BD000080B586B029
:1045800000AF78600023FB820023BB827B6800229F
:104590001A70364B00225A62354B00225A62354857
:1045A00005F07CFA3C213448FEF7BCFD3C21334841
:1045B000FEF7B8FDFB8A7B822C4B5B6A3B822C4B5F
:1045C0005B6AFB81FB892E4AA2FB03231B0BFB8248
:1045D0003B8A2C4AA2FB03235B0BBB82FB8ADAB229
:1045E0007B681A70786800F0FDF9FA8A7B8A9A4233
:1045F00012D07B681B781946234805F04FFA7B6878
:104600001B781A4613461B019B1A9B0003F21643A4
:104610006421184600F0C2F8BB8A012BCAD17B681E
:104620001B781946194805F039FA7B681B781A4639
:1046300013461B019B1A9B0003F216434FF4FA71B9
:10464000184600F0ABF83C210B48FEF7A2FD3C21D8
:104650000A48FEF79EFD054B00225A62044B0022D9
:104660005A6200BF1837BD4680BD00BF000400403D
:104670000008004080BA0008C0010120800101202C
:10468000A9D9DAF373B2E7458CBA000898BA0008E2
:1046900080B500AF64214FF4C46000F07FF864215E
:1046A00040F62D0000F07AF8642140F62D1000F05D
:1046B00075F8642140F64D2000F070F8642140F652
:1046C0002D1000F06BF83220FFF74CFF322140F63E
:1046D0002D0000F063F83220FFF744FFC82140F6B8
:1046E0002D0000F05BF800BF80BD80B500AF6421F5
:1046F00040F62D1000F052F8642140F64D2000F0F5
:104700004DF8642140F62D1000F048F864214FF474
:10471000DC6000F043F8642140F62D1000F03EF814
:104720004FF4C870FFF71EFF642140F62D1000F013
:1047300035F8642140F64D2000F030F8642140F651
:104740002D1000F02BF8642140F2265000F026F8DE
:1047500064214FF4446000F021F8642140F22650B7
:1047600000F01CF8642140F62D1000F017F86421C9
:1047700040F64D2000F012F8642140F62D1000F0B4
:104780000DF8642140F62D0000F008F864214FF484
:10479000DC6000F003F800BF80BD000080B58AB087
:1047A00000AF78603960284B284A1A60264B40F2E7
:1047B00047325A60244B00229A60254A7B68B2FB3C
:1047C000F3F3214AD360204B00221A611E4B0022D2
:1047D0005A611D4B00229A616023FB601D4A7B6871
:1047E000B2FBF3F33B6100237B610023FB611648BE
:1047F000FEF745FB0346002B01D003F079FD07F1DE
:104800000C030C2219461048FEF712FE0346002B3B
:1048100001D003F06DFD0C210B48FEF75BFB034656
:10482000002B01D003F064FD3868FFF79BFE0C21DC
:104830000548FEF78DFB0346002B01D003F058FD21
:1048400000BF2837BD4680BD400101200004014063
:10485000A08601001873010080B500AF1D4A53788F
:104860006FF3000353701B4A53786FF34103537087
:10487000194B1B686FF001021A61174B1B68DA684D
:10488000154B1B6842F00102DA601348FEF77DFA0F
:10489000124805F077F9124B1B68B3F5967FFAD9E9
:1048A0004FF4967140F22650FFF778FF4FF496715F
:1048B00040F27550FFF772FF4FF496714FF4C460E9
:1048C000FFF76CFF4FF47A70FFF74CFE00BF00BF9C
:1048D00080BD00BFD800012040020120B8BA000806
:1048E0002CC2002080B500AF00F018FF02F0E4FEFB
:1048F000094A13786FF3C303137003F025F9F6EE3A
:10490000000AB6EE000A00F051F8002000F0A2FE06
:1049100000F004FF00BF80BDD800012080B483B048
:1049200000AF78607B681B68094A13607B685B682E
:10493000074A53607B689B68054A93607B68DB6825
:10494000034AD36000BF0C37BD465DF8047B704757
:104950006482002080B483B000AF78607B681B68FD
:10496000114A13607B689B680F4A93607B685B68A1
:104970000D4A53607B68DB680B4AD3607B681B6918
:10498000094A13617B685B69074A53617B689B69CD
:10499000054A93617B68DB69034AD36100BF0C372A
:1049A000BD465DF8047B70479C04002080B483B052
:1049B00000AF87ED010AC7ED000A074B96221A8265
:1049C000064B96221A82064B64221A8200BF0C37CD
:1049D000BD465DF8047B70474C8200202CC200204D
:1049E000CC81002080B582B000AF78607B681B78F6
:1049F00003F00103DBB21A464FF480411848FDF77B
:104A0000C3FA7B681B7803F00203DBB21A464FF44B
:104A100000411348FDF7B8FA7B681B7803F00403E4
:104A2000DBB21A464FF480710E48FDF7ADFA7B6891
:104A30001B7803F00803DBB21A4610210848FDF783
:104A4000A3FA7B681B7803F01003DBB21A4620211F
:104A50000348FDF799FA00BF0837BD4680BD00BF87
:104A6000000402400008024090B400AF0E4B4FF02B
:104A700000021A610D4B4FF000021A610C4B4FF00F
:104A80000002DA61084A4FF000034FF00004C2E967
:104A90000234064A4FF000034FF00004C2E902342A
:104AA00000BFBD4690BC7047C0000120308200208E
:104AB000F481002080B500AF4FF480711048FDF7FD
:104AC0004BFA0346002B16D100210E48FEF740FAA0
:104AD00004210D48FEF73CFA00210C48FEF738FA95
:104AE0000B48FEF776F900F019FE0A4805F04AF87F
:104AF000FFF7FBFDFEE7084805F044F800BF80BD66
:104B00000004024080020120C002012000020120B6
:104B100040020120C4BA0008D4BA000880B582B0AF
:104B200000AF752003F06AFC0346FB71FB79194660
:104B3000194804F0B3FFFB79982B04D0752003F0DB
:104B40005DFC0346FB71FB791946134804F0A6FF90
:104B5000124805F017F800216B2003F079FC0A20B9
:104B6000FCF772FB00211A2003F072FC0A20FCF70C
:104B70006BFB18211B2003F06BFC0A20FCF764FB85
:104B800000F012F8F0EE407A054BC3ED007A00BF5A
:104B90000837BD4680BD00BFE8BA0008FCBA00086F
:104BA000BC0400200000000090B583B000AF472097
:104BB00003F024FC03461B021CB2482003F01EFC39
:104BC00003461BB22343FB80B7F906301846FBF7B8
:104BD000A9FC0BA3D3E90023FBF738FE03460C46E0
:104BE00018462146FBF7E0FF03463B603B6807EEB3
:104BF000903AB0EE670A0C37BD4690BDAFF3008027
:104C0000666666666666304080B582B000AF034671
:104C1000FB71094A137843F0080313709FED070AEC
:104C200000F03AF9FB79002B01D002F0BFFC00BF85
:104C30000837BD4680BD00BFD80001200000B44247
:104C400080B500AF054A137843F0080313700120C4
:104C50009FED030A00F07AF900BF80BDD800012063
:104C60000000B44280B500AF0120FFF7CDFFFFF791
:104C7000E7FFFFF7F9FE00F051FD00BF80BD80B5F2
:104C800000AF0020FFF7C0FF0120FFF7BDFF00BF0E
:104C900080BD000080B500AF094A13786FF3C303ED
:104CA0001370102000F0D6FC9FED060A00F02CFADD
:104CB00000F034FD002000F0CDFC00BF80BD00BF3F
:104CC000D80001200000B4C280B500AF174A1378A5
:104CD00043F008031370002000F0BCFC144B1B7C55
:104CE000DBB207EE903AF8EE677AB0EE670A00F0B2
:104CF000D3F80E4A13786FF3C30313706FF05900A3
:104D000000F01AFB094A137843F008031370084BAC
:104D10005B7CDBB207EE903AF8EE677AB0EE670A9A
:104D200000F0BAF802F042FC00BF80BDD8000120BC
:104D30001C82002080B500AF094A13786FF3C303CB
:104D40001370012000F086FC9FED060A00F0DCF9EC
:104D500000F0E4FC002000F07DFC00BF80BD00BF3F
:104D6000D80001200000B44280B500AF174A137884
:104D700043F008031370002000F06CFC144B9B7C84
:104D8000DBB207EE903AF8EE677AB0EE670A00F011
:104D900083F80E4A13786FF3C30313705A2000F0A0
:104DA000CBFA0A4A137843F008031370084BDB7CF4
:104DB000DBB207EE903AF8EE677AB0EE670A00F0E1
:104DC0006BF802F0F3FB00BF80BD00BFD8000120EC
:104DD0001C82002080B500AF074A13786FF3C3032D
:104DE0001370102000F036FC9FED040A00F08CF9DF
:104DF00000F094FC00BF80BDD8000120000034C347
:104E000080B584B000AF0346FB711E4B1B68FB608E
:104E10001D4A13786FF3C3031370112000F01AFCBE
:104E2000C820FFF79FFBFFF71FFE164B174A1A60BB
:104E3000BBEE0F0A00F030F801209FED150A00F0DC
:104E400085F8104AFB681360002000F003FC0E4A4E
:104E5000137843F008031370FB79002B04D19FED06
:104E60000D0A00F019F808E0B3EE0F0A00F014F88C
:104E70000120B3EE0F0A00F069F800BF1037BD46FD
:104E800080BD00BF64820020D8000120CDCC4C3E04
:104E9000CDCC14C20000784280B584B000AF87ED5D
:104EA000010A284BDB69FB60274A537843F0010372
:104EB0005370254A537843F002035370224A137803
:104EC0006FF3C7131370204A13786FF386131370B0
:104ED0001D4A137843F0100313701B4A13786FF3C5
:104EE00045131370174B4FF000021A6100F046FB98
:104EF000D7ED017AF5EEC07AF1EE10FA0FDB00BFC4
:104F0000104B93ED077AD7ED036AD7ED017A76EE71
:104F1000A77AB4EEE77AF1EE10FAF1D40EE000BF12
:104F2000084B93ED077AD7ED036AD7ED017A76EE59
:104F3000A77AB4EEE77AF1EE10FAF1DC00BF103791
:104F4000BD4680BDF4810020D8000120B0B584B0FA
:104F500000AF87ED010A0346FB70624BDB69FB6023
:104F6000614A537843F0020353705F4A537843F029
:104F7000010353705C4A13786FF3C71313705A4AD6
:104F800013786FF386131370574A137843F01003A6
:104F90001370554A13786FF34513137000F0EEFA4F
:104FA000FB781846FBF7BEFA4FF000024F4BFBF7B9
:104FB00023FB03460C4625461C464D4B1B681846F2
:104FC000FBF7C2FA02460B4620462946FBF714FBC4
:104FD00003460C4625461C46464B1B681846FBF705
:104FE000B3FA02460B4620462946FBF705FB03466B
:104FF0000C46184621464FF000023F4BFBF7FCFAE7
:1050000003460C4618462146FBF7CEFD0346BB601F
:10501000D7ED027AB2EE007A77EE877AC7ED027AA0
:10502000D7ED017AF5EEC07AF1EE10FA13DB00BF8E
:105030002C4B93ED077AD7ED027A37EE277AD7ED2E
:10504000016AD7ED037A76EEA77AB4EEE77AF1EE4D
:1050500010FAEDD412E000BF224B93ED077AD7EDA2
:10506000027A37EE277AD7ED016AD7ED037A76EE2A
:10507000A77AB4EEE77AF1EE10FAEDDCFB78002BBC
:105080002CD0194A13786FF304131370164A13784F
:1050900043F02003137000BF124BD3ED017AF5EEFD
:1050A000407AF1EE10FAF7D14FF4FA70FFF75AFA9E
:1050B0000D4A53786FF3410353700B4A53786FF3E3
:1050C0000003537000F094FA4FF000030B4A936012
:1050D0000B4A93600B4B4FF000029A6000BF1037F1
:1050E000BD46B0BDF4810020D80001200000E03FA3
:1050F00064820020E400012000408F4084030020EF
:10510000580200206C020020B0B584B000AF87EDDB
:10511000010A814B1B6AFB60D7ED017AF5EEC07A7C
:10512000F1EE10FA03DD7C4B01221A7609E0D7ED8F
:10513000017AF5EEC07AF1EE10FA02D5764BFF2235
:105140001A76764A537843F001035370734A5378C2
:1051500043F002035370714A137843F04003137015
:105160006E4A13786FF3C71313706C4A13786FF39A
:1051700004131370694A13786FF345131370FFF724
:1051800073FC674B1B681846FBF7DEF94FF0000213
:10519000644BFBF731FA03460C4625461C46624B2E
:1051A0009B681846FBF7D0F902460B462046294675
:1051B000FBF722FA03460C461846214654A3D3E9CE
:1051C0000023FBF719FA03460C4618462146FBF765
:1051D000EBFC0346BB60504B4FF000025A604E4B55
:1051E0004FF000021A61514B4FF000029A6000F03C
:1051F000C5F9D7ED017AF5EEC07AF1EE10FA33DD9C
:1052000000BF454B93ED087AD7ED036AD7ED017ADD
:1052100076EEA76AD7ED027A76EEE77AB4EEE77A11
:10522000F1EE10FAEDD43D4A13786FF38613137044
:105230003A4A137843F08003137000BF364B93ED66
:10524000087AD7ED036AD7ED017A76EEA77AB4EE45
:10525000E77AF1EE10FAF1D42F4B4FF000021A6109
:10526000C820FBF7F1FF39E0D7ED017AF5EEC07AFF
:10527000F1EE10FA32D500BF274B93ED087AD7ED47
:10528000036AD7ED017A76EEA76AD7ED027A76EE59
:10529000A77AB4EEE77AF1EE10FAEDDC1F4A137844
:1052A0006FF3861313701D4A137843F08003137055
:1052B00000BF194B93ED087AD7ED036AD7ED017A59
:1052C00076EEA77AB4EEE77AF1EE10FAF1DC124B43
:1052D0004FF000021A61C820FBF7B6FF0E4B4FF0EB
:1052E00000021A61C820FBF7AFFF00F081F94FF010
:1052F00000030F4A93600F4A93600C4B4FF000027B
:105300009A6000BF1037BD46B0BD00BFAFF300804C
:105310003F355EBA49BC4C40F4810020D8000120E2
:10532000404300200000E03F648200206C02002027
:105330008403002058020020B0B584B000AF0346BB
:10534000FB804FF00003FB604FF00003BB60FFF7F2
:105350008BFB814B4FF000021A627F4B4FF0000233
:105360001A617E4A537843F0010353707B4A5378A5
:1053700043F002035370B7F90630002B03DD764B80
:1053800001221A7606E0B7F90630002B02DA724BDA
:10539000FF221A76714A137843F0100313706F4A94
:1053A00013786FF3451313706C4A137843F040037E
:1053B00013706A4A13786FF3C713137000F0DEF8A6
:1053C000674B1B681846FBF7BFF84FF00002654BB0
:1053D000FBF712F903460C4625461C46624B9B68B8
:1053E0001846FBF7B1F802460B4620462946FBF764
:1053F00003F903460C461846214655A3D3E900237A
:10540000FBF7FAF803460C4618462146FBF7CCFB9F
:105410000346FB60504B1B7E5BB2012B3FD14FF02C
:105420007C53BB6000BF4C4B93ED087AD7ED037AF9
:1054300037EE277AB7F9063007EE903AF8EEE76ACA
:10544000D7ED027A76EEE77AB4EEE77AF1EE10FA6B
:10545000E9D4424A13786FF3861313703F4A1378E6
:1054600043F08003137007E03B4BD3ED047AF5EE75
:10547000407AF1EE10FA57D0374B93ED087AB7F92E
:10548000063007EE903AF8EEE76AD7ED027A76EE4C
:10549000E77AB4EEE77AF1EE10FAE5D447E02E4B66
:1054A0001B7E5BB2B3F1FF3F41D1304BBB6000BF0D
:1054B000294B93ED087AD7ED037A37EE677AB7F97F
:1054C000063007EE903AF8EEE76AD7ED027A76EE0C
:1054D000A77AB4EEE77AF1EE10FAE9DC1F4A137806
:1054E0006FF3861313701D4A137843F08003137013
:1054F00007E0194BD3ED047AF5EE407AF1EE10FA9D
:1055000014D0154B93ED087AB7F9063007EE903AB0
:10551000F8EEE76AD7ED027A76EEA77AB4EEE77A8C
:10552000F1EE10FAE5DC02E000BF00E000BF104B36
:1055300000221A734FF000030E4A93600E4A9360E4
:105540000B4B4FF000029A6000BF1037BD46B0BD54
:105550003F355EBA49BC4C40F4810020D8000120A0
:10556000404300200000E03F64820020CDCC4C3E50
:105570006C020020840300205802002080B588B00F
:1055800000AF60237B600A23BB600023FB60002325
:105590003B6100237B610023BB610023FB613B1D5A
:1055A000002219461048FDF743FF0346002B01D0A7
:1055B00002F09EFE3B1D042219460C48FDF738FF01
:1055C0000346002B01D002F093FE00210648FDF7B0
:1055D00081FC04210548FDF77DFC02F06DF800BF59
:1055E0002037BD4680BD00BF80020120C0020120DF
:1055F00080B500AF124B00221A8000211148FDF740
:10560000A7FC04211048FDF7A3FC00224FF48041C1
:105610000E48FCF7B9FC00224FF400410B48FCF7A0
:10562000B3FC002201210A48FCF7AEFC0022022153
:105630000748FCF7A9FC00F071F800BF80BD00BF6F
:10564000D800012080020120C00201200000024099
:105650000004024080B582B000AF0346FB71012216
:1056600020212948FCF790FCFB7903F00F03002B65
:1056700002D0012B0ED01BE0244B01221A73002212
:1056800001212348FCF780FC012202212048FCF77D
:105690007BFC0DE01D4BFF221A73012201211C48E7
:1056A000FCF772FC002202211948FCF76DFC00BFD8
:1056B000FB7903F0F003002B02D0102B10D01FE079
:1056C000144B01221A7300224FF480411248FCF758
:1056D0005BFC01224FF400410F48FCF755FC0FE042
:1056E0000C4BFF221A7301224FF480410A48FCF749
:1056F0004BFC00224FF400410748FCF745FC00BF7B
:1057000000BF0837BD4680BD00080240840300206A
:1057100000040240580200200000024080B500AFA3
:10572000002220212148FCF72FFC002201212048E3
:10573000FCF72AFC012202211D48FCF725FC00226F
:105740004FF480411B48FCF71FFC01224FF400413D
:105750001848FCF719FC4FF00003174A9360174AEA
:105760009360174B4FF000029A60164A53786FF31C
:1057700000035370134A53786FF341035370114A77
:1057800013786FF3041313700E4A13786FF34513F5
:1057900013700C4A13786FF386131370094A137849
:1057A0006FF3C713137000BF80BD00BF0008024035
:1057B0000004024000000240840300205802002040
:1057C0006C020020D800012080B584B000AF786062
:1057D0000023FB735A4804F0D5F97868FEF7CEFE33
:1057E0003220FEF7BFFEFFF737F87B681B78082BE7
:1057F00000F2958001A252F823F000BF2158000862
:1058000037580008535800086F5800088B58000894
:10581000A7580008DD580008135900082759000848
:105820001120FFF717FF0120FFF7EAFA4FF47A7013
:10583000FBF70AFD78E001F03FFF0020FFF70AFFC9
:10584000404B00221A800020FFF7DEF9FFF7F8F93D
:105850006AE001F031FF0023FB7304E0FFF71AFA5E
:10586000FB7B0133FB73FB7B0F2BF7D95CE001F073
:1058700023FF0023FB7304E0FFF75CFAFB7B01339B
:10588000FB73FB7B0F2BF7D94EE001F015FF0023D4
:10589000FB7304E0FFF79EFAFB7B0133FB73FB7B9A
:1058A0000F2BF7D940E001F007FFFFF737F9002091
:1058B000FFF7D0FE0020FFF7A7F90023FB7307E0F6
:1058C000FFF702FA0020FFF7DAF9FB7B0133FB73E5
:1058D000FB7B0F2BF4D9FFF7B3F925E001F0ECFEC9
:1058E000FFF71CF90020FFF7B5FE0020FFF78CF949
:1058F0000023FB7307E0FFF737FA0020FFF7BFF93B
:10590000FB7B0133FB73FB7B0F2BF4D9FFF798F97B
:105910000AE00D4A137843F00803137004E00B48C3
:1059200004F030F908E000BF01F0E8FEFFF7F6FEF2
:10593000074804F027F94DE71037BD4680BD00BF8A
:1059400004BB000848820020D800012010BB0008DA
:1059500020BB00080000000090B583B000AF4FF0FE
:1059600000033B60AA4B00221A700022A94B11468B
:10597000D980A94B1146D980A84B1146D980A84B94
:105980001146D980A74BDA800023A24A1360A24AAD
:105990001360A24A1360A24A1360A24A1360002255
:1059A0009C4B114699809C4B114699809B4B11460C
:1059B00099809B4B114699809A4B9A800022954B77
:1059C00011461982944B11461982944B1146198243
:1059D000934B11461982934B1A82934B00221A80E3
:1059E000924B00221A80914B00225A808F4A4FF02E
:1059F00000034FF00004C2E902348C4B4FF0000268
:105A00001A618A4B4FF000025A61894B00221A80BA
:105A1000874B00225A80864A4FF000034FF0000463
:105A2000C2E90234824B4FF000021A61804B4FF002
:105A300000025A617F4B4FF000021A607D4B4FF01D
:105A400000025A607B4B4FF000029A60794B0122B2
:105A50001A73784B4FF000021A61774B4FF0000237
:105A60001A60754B4FF000025A60734B4FF0000202
:105A70009A60714B01221A736F4B4FF000021A614A
:105A80006E4B4FF000021A606C4B4FF000025A60F0
:105A90006A4B4FF000029A60684B00221A73674B02
:105AA0004FF000021A61664B4FF000021A60654B1E
:105AB0004FF07C521A60634B4FF081425A60614B49
:105AC000D3ED007A9FED607AC7EE276A16EE900A52
:105AD000FAF73AFD4CA3D3E90023FAF78DFD03460C
