:020000040800F2
:100000000000022045970008118B00081F8B000894
:10001000258B00082B8B0008318B000800000000A6
:10002000000000000000000000000000378B000806
:10003000458B000800000000538B0008618B00080E
:1000400095970008959700089597000895970008E0
:1000500095970008959700089597000895970008D0
:1000600095970008959700089597000895970008C0
:1000700095970008959700089597000895970008B0
:1000800095970008959700089597000895970008A0
:100090009597000895970008959700089597000890
:1000A0006D8B0008959700089597000895970008B4
:1000B000818B000895970008959700089597000890
:1000C0009597000895970008959700089597000860
:1000D0009597000895970008959700089597000850
:1000E0009597000895970008959700089597000840
:1000F0009597000895970008959700089597000830
:10010000959700089597000895970008959700081F
:100110009597000895970008958B0008959700081B
:1001200095970008959700089597000895970008FF
:100130009597000800000000000000009597000857
:1001400095970008959700089597000895970008DF
:1001500095970008959700089597000895970008CF
:1001600095970008959700089597000895970008BF
:100170009597000895970008000000000000000017
:0801800095970008959700080F
:1001900010B5054C237833B9044B13B10448AFF3C1
:1001A00000800123237010BDE0010020000000004A
:1001B0007CC0000808B5034B1BB103490348AFF3EB
:1001C000008008BD00000000E40100207CC00008A1
:1001D000034613F8012B002AFBD1181A0138704787
:1001E00001F0FF01102A2BDB10F0070F08D010F8E8
:1001F000013B013A8B422DD010F0070F42B3F6D1EC
:10020000F0B441EA012141EA014122F007047FF004
:1002100000070023F0E80256083C85EA010586EA5B
:10022000010685FA47F5A3FA87F586FA47F6A5FA97
:1002300087F68EB9EED1F0BC01F0FF0102F00702A3
:1002400032B110F8013B013A83EA010313B1F8D14E
:100250000020704701387047002D06BF354603382F
:10026000073815F0010F07D1013015F4807F02BF68
:10027000013015F4C03F0130F0BC0138704700BFB9
:1002800081F0004102E000BF83F0004330B54FEA47
:1002900041044FEA430594EA050F08BF90EA020FB4
:1002A0001FBF54EA000C55EA020C7FEA645C7FEA47
:1002B000655C00F0E2804FEA5454D4EB5555B8BF6A
:1002C0006D420CDD2C4480EA020281EA030382EADB
:1002D000000083EA010180EA020281EA0303362D6D
:1002E00088BF30BD11F0004F4FEA01314FF4801C40
:1002F0004CEA113102D0404261EB410113F0004F52
:100300004FEA03334CEA133302D0524263EB430308
:1003100094EA050F00F0A780A4F10104D5F1200EA6
:100320000DDB02FA0EFC22FA05F2801841F1000101
:1003300003FA0EF2801843FA05F359410EE0A5F1D5
:1003400020050EF1200E012A03FA0EFC28BF4CF006
:10035000020C43FA05F3C01851EBE37101F00045BC
:1003600007D54FF0000EDCF1000C7EEB00006EEBC9
:100370000101B1F5801F1BD3B1F5001F0CD3490853
:100380005FEA30004FEA3C0C04F101044FEA4452AA
:1003900012F5800F80F09A80BCF1004F08BF5FEA31
:1003A000500C50F1000041EB045141EA050130BD11
:1003B0005FEA4C0C404141EB010111F4801FA4F1B4
:1003C0000104E9D191F0000F04BF01460020B1FA09
:1003D00081F308BF2033A3F10B03B3F120020CDA41
:1003E0000C3208DD02F1140CC2F10C0201FA0CF01F
:1003F00021FA02F10CE002F11402D8BFC2F1200C84
:1004000001FA02F120FA0CFCDCBF41EA0C01904039
:10041000E41AA2BF01EB0451294330BD6FEA040482
:100420001F3C1CDA0C340EDC04F11404C4F120026D
:1004300020FA04F001FA02F340EA030021FA04F37F
:1004400045EA030130BDC4F10C04C4F1200220FAD6
:1004500002F001FA04F340EA0300294630BD21FA14
:1004600004F0294630BD94F0000F83F4801306BFDA
:1004700081F480110134013D4EE77FEA645C18BFCE
:100480007FEA655C29D094EA050F08BF90EA020F65
:1004900005D054EA000C04BF1946104630BD91EA5D
:1004A000030F1EBF0021002030BD5FEA545C05D160
:1004B0004000494128BF41F0004130BD14F580049F
:1004C0003CBF01F5801130BD01F0004545F0FE4113
:1004D00041F470014FF0000030BD7FEA645C1ABF48
:1004E000194610467FEA655C1CBF0B46024650EA7F
:1004F000013406BF52EA033591EA030F41F40021AB
:1005000030BD00BF90F0000F04BF0021704730B530
:100510004FF4806404F132044FF000054FF0000105
:1005200050E700BF90F0000F04BF0021704730B5C6
:100530004FF4806404F1320410F0004548BF40429B
:100540004FF000013EE700BF42004FEAE2014FEAF0
:1005500031014FEA02701FBF12F07F4393F07F4FCB
:1005600081F06051704732F07F4208BF704793F0CE
:100570007F4F04BF41F40021704730B54FF46074E1
:1005800001F0004521F000411CE700BF50EA0102E4
:1005900008BF704730B54FF000050AE050EA01028D
:1005A00008BF704730B511F0004502D5404261EBFD
:1005B00041014FF4806404F132045FEA915C3FF43E
:1005C000D8AE4FF003025FEADC0C18BF03325FEADB
:1005D000DC0C18BF033202EBDC02C2F1200300FA8C
:1005E00003FC20FA02F001FA03FE40EA0E0021FAB1
:1005F00002F11444BDE600BF70B54FF0FF0C4CF49F
:10060000E06C1CEA11541DBF1CEA135594EA0C0F50
:1006100095EA0C0F00F0DEF82C4481EA030621EA8B
:100620004C5123EA4C5350EA013518BF52EA0335C6
:1006300041F4801143F4801338D0A0FB02CE4FF078
:100640000005E1FB02E506F00042E0FB03E54FF0A8
:100650000006E1FB03569CF0000F18BF4EF0010EA0
:10066000A4F1FF04B6F5007F64F5407404D25FEA9C
:100670004E0E6D4146EB060642EAC62141EA55514F
:100680004FEAC52040EA5E504FEACE2EB4F1FD0C91
:1006900088BFBCF5E06F1ED8BEF1004F08BF5FEA0F
:1006A000500E50F1000041EB045170BD06F00046C1
:1006B00046EA010140EA020081EA0301B4EB5C046E
:1006C000C2BFD4EB0C0541EA045170BD41F4801166
:1006D0004FF0000E013C00F3AB8014F1360FDEBF8B
:1006E000002001F0004170BDC4F10004203C35DA67
:1006F0000C341BDC04F11404C4F1200500FA05F3EA
:1007000020FA04F001FA05F240EA020001F000428A
:1007100021F0004110EBD37021FA04F642EB060100
:100720005EEA430E08BF20EAD37070BDC4F10C042A
:10073000C4F1200500FA04F320FA05F001FA04F2EE
:1007400040EA020001F0004110EBD37041F10001DA
:100750005EEA430E08BF20EAD37070BDC4F12005E5
:1007600000FA05F24EEA020E20FA04F301FA05F24D
:1007700043EA020321FA04F001F0004121FA04F2F5
:1007800020EA020000EBD3705EEA430E08BF20EAC5
:10079000D37070BD94F0000F0FD101F000464000FF
:1007A00041EB010111F4801F08BF013CF7D041EA81
:1007B000060195F0000F18BF704703F00046520085
:1007C00043EB030313F4801F08BF013DF7D043EA56
:1007D0000603704794EA0C0F0CEA135518BF95EA0C
:1007E0000C0F0CD050EA410618BF52EA4306D1D193
:1007F00081EA030101F000414FF0000070BD50EAB2
:10080000410606BF1046194652EA430619D094EA3B
:100810000C0F02D150EA013613D195EA0C0F05D125
:1008200052EA03361CBF104619460AD181EA030179
:1008300001F0004141F0FE4141F470014FF0000031
:1008400070BD41F0FE4141F4780170BD70B54FF0CC
:10085000FF0C4CF4E06C1CEA11541DBF1CEA13554C
:1008600094EA0C0F95EA0C0F00F0A7F8A4EB05042E
:1008700081EA030E52EA03354FEA013100F0888025
:100880004FEA03334FF0805545EA131343EA1263EE
:100890004FEA022245EA111545EA10654FEA0026A3
:1008A0000EF000419D4208BF964244F1FD0404F55C
:1008B000407402D25B084FEA3202B61A65EB0305B8
:1008C0005B084FEA32024FF480104FF4002CB6EB75
:1008D000020E75EB030E22BFB61A754640EA0C00F5
:1008E0005B084FEA3202B6EB020E75EB030E22BF35
:1008F000B61A754640EA5C005B084FEA3202B6EB76
:10090000020E75EB030E22BFB61A754640EA9C0034
:100910005B084FEA3202B6EB020E75EB030E22BF04
:10092000B61A754640EADC0055EA060E18D04FEAC2
:10093000051545EA16754FEA06164FEAC30343EA62
:1009400052734FEAC2025FEA1C1CC0D111F4801F2F
:100950000BD141EA00014FF000004FF0004CB6E728
:1009600011F4801F04BF01430020B4F1FD0C88BFC7
:10097000BCF5E06F3FF6AFAEB5EB030C04BFB6EBD2
:10098000020C5FEA500C50F1000041EB045170BDC5
:100990000EF0004E4EEA113114EB5C04C2BFD4EBF2
:1009A0000C0541EA045170BD41F480114FF0000E76
:1009B000013C90E645EA060E8DE60CEA135594EAF2
:1009C0000C0F08BF95EA0C0F3FF43BAF94EA0C0FF5
:1009D0000AD150EA01347FF434AF95EA0C0F7FF46A
:1009E00025AF104619462CE795EA0C0F06D152EABE
:1009F00003353FF4FDAE1046194622E750EA4106A2
:100A000018BF52EA43067FF4C5AE50EA41047FF4B2
:100A10000DAF52EA43057FF4EBAE12E74FF0FF3C17
:100A200006E000BF4FF0010C02E000BF4FF0010CE8
:100A30004DF804CD4FEA410C7FEA6C5C4FEA430C61
:100A400018BF7FEA6C5C1BD001B050EA410C0CBFB0
:100A500052EA430C91EA030F02BF90EA020F002012
:100A6000704710F1000F91EA030F58BF994208BF79
:100A700090422CBFD8176FEAE37040F00100704736
:100A80004FEA410C7FEA6C5C02D150EA013C07D18D
:100A90004FEA430C7FEA6C5CD6D152EA033CD3D0D8
:100AA0005DF8040B704700BF8446104662468C46D2
:100AB0001946634600E000BF01B5FFF7B7FF002805
:100AC00048BF10F1000F01BD4DF808EDFFF7F4FF2E
:100AD0000CBF012000205DF808FB00BF4DF808EDB9
:100AE000FFF7EAFF34BF012000205DF808FB00BFDC
:100AF0004DF808EDFFF7E0FF94BF012000205DF8FE
:100B000008FB00BF4DF808EDFFF7CEFF94BF0120B2
:100B100000205DF808FB00BF4DF808EDFFF7C4FFAB
:100B200034BF012000205DF808FB00BF4FEA410CF4
:100B30007FEA6C5C02D150EA013C0AD14FEA430CD7
:100B40007FEA6C5C02D152EA033C02D14FF0000014
:100B500070474FF0010070474FEA410212F5001252
:100B600015D211D56FF47873B3EB625212D94FEAF4
:100B7000C12343F0004343EA505311F0004F23FADE
:100B800002F018BF404270474FF00000704750EA33
:100B9000013005D111F0004008BF6FF000407047F0
:100BA0004FF00000704700BF4A0011D212F500124A
:100BB00011D20DD56FF47873B3EB62520ED44FEAB5
:100BC000C12343F0004343EA505323FA02F0704735
:100BD0004FF00000704750EA013002D14FF0FF3073
:100BE00070474FF0000070474FEA4102B2F1E04316
:100BF00024BFB3F5001CDCF1FE5C0DD901F0004C04
:100C00004FEAC0024CEA5070B2F1004F40EB830053
:100C100008BF20F00100704711F0804F21D113F17F
:100C20003872BCBF01F00040704741F480114FEAB8
:100C30005252C2F11802C2F1200C10FA0CF320FA41
:100C400002F018BF40F001004FEAC1234FEAD3235E
:100C500003FA0CFC40EA0C0023FA02F34FEA4303C8
:100C6000CCE77FEA625307D150EA01331EBF4FF051
:100C7000FE4040F44000704701F0004040F0FE406C
:100C800040F40000704700BF80F0004002E000BF69
:100C900081F0004142001FBF5FEA410392EA030F67
:100CA0007FEA226C7FEA236C6AD04FEA1262D2EBB1
:100CB0001363C1BFD218414048404140B8BF5B42B6
:100CC000192B88BF704710F0004F40F4000020F04F
:100CD0007F4018BF404211F0004F41F4000121F065
:100CE0007F4118BF494292EA030F3FD0A2F10102AF
:100CF00041FA03FC10EB0C00C3F1200301FA03F1ED
:100D000000F0004302D5494260EB4000B0F5000F0F
:100D100013D3B0F1807F06D340084FEA310102F1CE
:100D20000102FE2A51D2B1F1004F40EBC25008BF80
:100D300020F0010040EA03007047490040EB00004A
:100D400010F4000FA2F10102EDD1B0FA80FCACF179
:100D5000080CB2EB0C0200FA0CF0AABF00EBC25078
:100D600052421843BCBFD0401843704792F0000F66
:100D700081F4000106BF80F400000132013BB5E7B9
:100D80004FEA41037FEA226C18BF7FEA236C21D02F
:100D900092EA030F04D092F0000F08BF0846704794
:100DA00090EA010F1CBF0020704712F07F4F04D162
:100DB000400028BF40F00040704712F100723CBF75
:100DC00000F50000704700F0004343F0FE4040F49F
:100DD000000070477FEA226216BF08467FEA23635D
:100DE0000146420206BF5FEA412390EA010F40F448
:100DF000800070474FF0000304E000BF10F0004394
:100E000048BF40425FEA000C08BF704743F096437A
:100E100001464FF000001CE050EA010208BF704795
:100E20004FF000030AE000BF50EA010208BF70471C
:100E300011F0004302D5404261EB41015FEA010C31
:100E400002BF84460146002043F0B64308BFA3F129
:100E50008053A3F50003BCFA8CF2083AA3EBC2530B
:100E600010DB01FA02FC634400FA02FCC2F120022A
:100E7000BCF1004F20FA02F243EB020008BF20F061
:100E80000100704702F1200201FA02FCC2F12002C7
:100E900050EA4C0021FA02F243EB020008BF20EABC
:100EA000DC70704753B94AB9002908BF00281CBF3D
:100EB0004FF0FF314FF0FF3000F072B9ADF1080C88
:100EC0006DE904CE00F006F8DDF804E0DDE9022368
:100ED00004B070472DE9F047089E04468846002B71
:100EE0004BD18A42154667D9B2FA82F24AB1C2F1B1
:100EF000200701FA02F320FA07F7954047EA0308B2
:100F000094404FEA154E230CB8FBFEF71FFA85FC00
:100F10000EFB178843EA084307FB0CF1994209D9F5
:100F2000EB1807F1FF3080F01B81994240F21881E5
:100F3000023F2B445B1AA4B2B3FBFEF00EFB10334E
:100F400044EA034400FB0CFCA44509D92C1900F128
:100F5000FF3380F00781A44540F2048102382C441D
:100F600040EA0740A4EB0C0400271EB1D440002344
:100F7000C6E900433946BDE8F0878B4209D9002E07
:100F800000F0EB800027C6E9000138463946BDE88D
:100F9000F087B3FA83F7002F47D18B4202D3824206
:100FA00000F2FA80841A61EB030301209846002EB8
:100FB000E0D0C6E90048DDE702B9FFDEB2FA82F20E
:100FC000002A40F08F80491B4FEA154E1FFA85F822
:100FD0000127B1FBFEFC230C0EFB1C1143EA01436D
:100FE00008FB0CF1994207D9EB180CF1FF3002D243
:100FF000994200F2CD808446591AA3B2B1FBFEF0AB
:101000000EFB101443EA044408FB00F8A04507D97E
:101010002C1900F1FF3302D2A04500F2B680184629
:10102000A4EB080440EA0C409FE7C7F1200CBB404A
:1010300022FA0CFE4EEA030E01FA07F420FA0CF530
:1010400021FA0CF34FEA1E482543B3FBF8F92C0CA8
:1010500008FB19331FFA8EFA44EA034309FB0AF42A
:101060009C4202FA07F200FA07F10BD91EEB0303C8
:1010700009F1FF3080F087809C4240F28480A9F122
:10108000020973441B1BADB2B3FBF8F008FB10332D
:1010900045EA034400FB0AFAA24508D91EEB040402
:1010A00000F1FF336BD2A24569D90238744440EA9B
:1010B0000940A0FB0289A4EB0A044C45C2464B46FA
:1010C00054D351D0002E69D0B1EB0A0564EB030470
:1010D00004FA0CFCFD40FC404CEA0505C6E900544E
:1010E000002747E7C2F1200320FA03F7954001FAF1
:1010F00002F021FA03F34FEA154E3843010CB3FB1B
:10110000FEF71FFA85F80EFB173341EA034107FB90
:1011100008F38B4204FA02F407D9691807F1FF3C7F
:101120002FD28B422DD9023F2944CB1A81B2B3FB77
:10113000FEF00EFB103341EA034100FB08F38B4243
:1011400007D9691800F1FF3C17D28B4215D9023834
:101150002944C91A40EA07473BE73746304609E7C2
:101160000746E7E61846FBE64145ABD2B8EB020A74
:1011700069EB0E0201381346A4E76046E9E718461A
:1011800095E76746D1E781467CE702382C4447E77C
:10119000ACF1020C2B442FE7384608E73746E9E666
:1011A000704700BF80B500AF0E4B1B680D4A43F47B
:1011B000007313600B4B1B680A4A43F4806313608F
:1011C000084B1B68074A43F480731360032000F048
:1011D00007FD002000F008F807F072FC0023184615
:1011E00080BD00BF003C024080B582B000AF786097
:1011F000124B1A68124B1B7819464FF47A73B3FBE3
:10120000F1F3B2FBF3F3184600F01FFD0346002B89
:1012100001D001230EE07B680F2B0AD800227968E9
:101220004FF0FF3000F0E7FC064A7B6813600023B4
:1012300000E0012318460837BD4680BD08000020A5
:10124000040000200000002080B400AF064B1B7893
:101250001A46064B1B681344044A136000BFBD4680
:101260005DF8047B704700BF0400002008020020E6
:1012700080B400AF034B1B681846BD465DF8047B85
:10128000704700BF0802002080B584B000AF7860CE
:10129000FFF7EEFFB8607B68FB60FB68B3F1FF3FD0
:1012A00005D0094B1B781A46FB681344FB6000BF4E
:1012B000FFF7DEFF0246BB68D31AFA689A42F7D8F6
:1012C00000BF1037BD4680BD0400002080B584B04B
:1012D00000AF78600023FB737B68002B01D10123F2
:1012E00033E07B681B6C002B09D1786807F064F948
:1012F0007B6800225A647B68002283F83C207B686C
:101300001B6C03F01003002B18D17B681B6C23F4BB
:10131000885323F0020343F002027B681A64786862
:1013200000F092FA7B6800225A647B681B6C23F001
:10133000030343F001027B681A6401E00123FB739D
:101340007B68002283F83C20FB7B18461037BD46A3
:1013500080BD000080B485B000AF78600023BB6022
:101360007B6893F83C30012B01D10223A5E07B6818
:10137000012283F83C207B681B689B6803F0010313
:10138000012B18D07B681B689A687B681B6842F049
:1013900001029A604C4B1B684C4AA2FB03239A0C37
:1013A00013465B001344BB6002E0BB68013BBB60BB
:1013B000BB68002BF9D17B681B689B6803F00103B5
:1013C000012B79D17B681B6C23F4E06323F00103CC
:1013D00043F480727B681A647B681B685B6803F463
:1013E0008063002B07D07B681B6C23F4405343F4CD
:1013F00080527B681A647B681B6C03F48053B3F5DE
:10140000805F06D17B685B6C23F006027B685A64C0
:1014100002E07B6800225A647B68002283F83C204B
:101420002B4BFB607B681B686FF022021A60FB6825
:101430005B6803F01F03002B2AD17B681B68254AD9
:10144000934215D07B681B68234A934205D1204BF9
:101450005B6803F01F03002B0AD07B681B681F4AE0
:10146000934229D11A4B5B6803F01F030F2B23D83B
:101470007B681B689B6803F04053002B1CD17B6882
:101480001B689A687B681B6842F080429A6013E090
:101490007B681B680F4A93420ED17B681B689B6870
:1014A00003F04053002B07D17B681B689A687B6868
:1014B0001B6842F080429A60002318461437BD46EC
:1014C0005DF8047B704700BF0800002083DE1B43EB
:1014D0000023014000200140002101400022014082
:1014E00080B584B000AF786039600023FB607B6812
:1014F0001B689B6803F48063B3F5806F13D17B682E
:101500001B689B6803F48073B3F5807F0BD17B6805
:101510001B6C43F020027B681A647B68002283F80E
:101520003C2001235CE0FFF7A3FEF8601AE03B6873
:10153000B3F1FF3F16D03B68002B07D0FFF798FEB2
:101540000246FB68D31A3A689A420BD27B681B6C3E
:1015500043F004027B681A647B68002283F83C2015
:1015600003233DE07B681B681B6803F00203022B2A
:10157000DDD17B681B686FF012021A607B681B6C00
:1015800043F400727B681A647B681B689B6803F0F5
:101590004053002B23D17B681B7E002B1FD17B681F
:1015A0001B68DB6A03F47003002B06D07B681B68A2
:1015B0009B6803F48063002B11D17B681B6C23F4C0
:1015C00080727B681A647B681B6C03F48053002B69
:1015D00005D17B681B6C43F001027B681A64002311
:1015E00018461037BD4680BD80B483B000AF786028
:1015F0007B681B68DB6C18460C37BD465DF8047BC6
:101600007047000080B485B000AF78603960002377
:10161000BB607B6893F83C30012B01D1022305E1CC
:101620007B68012283F83C203B681B68092B25D985
:101630007B681B68D9683B681B689BB21A461346D7
:101640005B0013441E3B072202FA03F3DA437B6874
:101650001B680A40DA607B681B68D9683B689A6837
:101660003B681B689BB2184603465B0003441E3B65
:101670009A407B681B680A43DA6022E07B681B683B
:1016800019693B681B689BB21A4613465B001344FA
:10169000072202FA03F3DA437B681B680A401A61E7
:1016A0007B681B6819693B689A683B681B689BB23A
:1016B000184603465B0003449A407B681B680A4354
:1016C0001A613B685B68062B24D87B681B68596BE2
:1016D0003B685A6813469B001344053B1F2202FADD
:1016E00003F3DA437B681B680A405A637B681B6814
:1016F000596B3B681B689BB218463B685A68134697
:101700009B001344053B00FA03F27B681B680A4305
:101710005A634CE03B685B680C2B24D87B681B68E1
:10172000196B3B685A6813469B001344233B1F22E6
:1017300002FA03F3DA437B681B680A401A637B688A
:101740001B68196B3B681B689BB218463B685A685C
:1017500013469B001344233B00FA03F27B681B688B
:101760000A431A6323E07B681B68D96A3B685A689E
:1017700013469B001344413B1F2202FA03F3DA4352
:101780007B681B680A40DA627B681B68D96A3B6821
:101790001B689BB218463B685A6813469B0013446B
:1017A000413B00FA03F27B681B680A43DA62224B72
:1017B000FB607B681B68214A934209D13B681B6828
:1017C000122B05D1FB685B6843F48002FB685A600A
:1017D0007B681B68194A934223D13B681B68102B16
:1017E00003D03B681B68112B1BD1FB685B6843F47B
:1017F0000002FB685A603B681B68102B11D1104B2C
:101800001B68104AA2FB03239A0C13469B00134447
:101810005B00BB6002E0BB68013BBB60BB68002BA8
:10182000F9D17B68002283F83C2000231846143746
:10183000BD465DF8047B7047002301400020014055
:101840000800002083DE1B4380B485B000AF7860C1
:10185000794BFB60FB685B6823F44032FB685A609D
:10186000FB685A687B685B681A43FB685A607B6850
:101870001B685A687B681B6822F480725A607B6818
:101880001B6859687B681B691A027B681B680A43DE
:101890005A607B681B685A687B681B6822F040723C
:1018A0005A607B681B6859687B689A687B681B680C
:1018B0000A435A607B681B689A687B681B6822F43D
:1018C00000629A607B681B6899687B68DA687B684D
:1018D0001B680A439A607B689B6A584A934222D0ED
:1018E0007B681B689A687B681B6822F070629A604C
:1018F0007B681B6899687B689A6A7B681B680A43E7
:101900009A607B681B689A687B681B6822F040526B
:101910009A607B681B6899687B68DA6A7B681B68D9
:101920000A439A600FE07B681B689A687B681B68B3
:1019300022F070629A607B681B689A687B681B68FB
:1019400022F040529A607B681B689A687B681B682B
:1019500022F002029A607B681B6899687B681B7E94
:101960005A007B681B680A439A607B6893F82030B2
:10197000002B1BD07B681B685A687B681B6842F48D
:1019800000625A607B681B685A687B681B6822F497
:1019900060425A607B681B6859687B685B6A013BE0
:1019A0005A037B681B680A435A6007E07B681B6820
:1019B0005A687B681B6822F400625A607B681B6867
:1019C000DA6A7B681B6822F47002DA627B681B6843
:1019D000D96A7B68DB69013B1A057B681B680A438F
:1019E000DA627B681B689A687B681B6822F4007265
:1019F0009A607B681B6899687B6893F830305A025C
:101A00007B681B680A439A607B681B689A687B68DE
:101A10001B6822F480629A607B681B6899687B6807
:101A20005B699A027B681B680A439A6000BF14379F
:101A3000BD465DF8047B7047002301400100000FA4
:101A400080B485B000AF78607B6803F00703FB606B
:101A50000C4BDB68BB60BA684FF6FF031340BB60FA
:101A6000FB681A02BB68134343F0BF6343F40033BF
:101A7000BB60044ABB68D36000BF1437BD465DF845
:101A8000047B704700ED00E080B400AF044BDB68DE
:101A90001B0A03F007031846BD465DF8047B704738
:101AA00000ED00E080B483B000AF0346FB7197F90E
:101AB0000730002B0BDBFB7903F01F02074997F976
:101AC00007305B09012000FA02F241F8232000BF31
:101AD0000C37BD465DF8047B704700BF00E100E0B5
:101AE00080B483B000AF03463960FB7197F90730CB
:101AF000002B0ADB3B68DAB20C4997F90730120178
:101B0000D2B20B4483F800230AE03B68DAB20849FA
:101B1000FB7903F00F03043B1201D2B20B441A7697
:101B200000BF0C37BD465DF8047B704700E100E064
:101B300000ED00E080B489B000AFF860B9607A6071
:101B4000FB6803F00703FB61FB69C3F10703042B88
:101B500028BF0423BB61FB690433062B02D9FB6950
:101B6000033B00E000237B614FF0FF32BB6902FAC8
:101B700003F3DA43BB681A407B699A404FF0FF31A8
:101B80007B6901FA03F3D9437B680B401343184682
:101B90002437BD465DF8047B7047000080B582B0F5
:101BA00000AF78607B68013BB3F1807F01D30123F4
:101BB0000FE00A4A7B68013B53600F214FF0FF3072
:101BC000FFF78EFF054B00229A60044B07221A6034
:101BD000002318460837BD4680BD00BF10E000E076
:101BE00080B582B000AF78607868FFF729FF00BF4A
:101BF0000837BD4680BD80B586B000AF0346B960EA
:101C00007A60FB7300237B61FFF73EFF78617A689F
:101C1000B9687869FFF78EFF024697F90F301146D1
:101C20001846FFF75DFF00BF1837BD4680BD80B581
:101C300082B000AF0346FB7197F907301846FFF7F3
:101C400031FF00BF0837BD4680BD80B582B000AF10
:101C500078607868FFF7A2FF034618460837BD464C
:101C600080BD000080B489B000AF78603960002387
:101C70007B6100233B610023BB610023FB616BE1BF
:101C80000122FB6902FA03F37B613B681B687A69F6
:101C900013403B613A697B699A4240F05A813B6844
:101CA0005B68022B03D03B685B68122B23D1FB6976
:101CB000DA087B68083253F82230BB61FB6903F015
:101CC00007039B000F2202FA03F3DB43BA691340B8
:101CD000BB613B681A69FB6903F007039B0002FACA
:101CE00003F3BA691343BB61FB69DA087B68083206
:101CF000B96943F822107B681B68BB61FB695B0014
:101D0000032202FA03F3DB43BA691340BB613B6869
:101D10005B6803F00302FB695B0002FA03F3BA6934
:101D20001343BB617B68BA691A603B685B68012B2F
:101D30000BD03B685B68022B07D03B685B68112BBC
:101D400003D03B685B68122B30D17B689B68BB611A
:101D5000FB695B00032202FA03F3DB43BA69134019
:101D6000BB613B68DA68FB695B0002FA03F3BA699E
:101D70001343BB617B68BA699A607B685B68BB612F
:101D80000122FB6902FA03F3DB43BA691340BB612A
:101D90003B685B681B0903F00102FB6902FA03F36D
:101DA000BA691343BB617B68BA695A607B68DB68B8
:101DB000BB61FB695B00032202FA03F3DB43BA69F0
:101DC0001340BB613B689A68FB695B0002FA03F34E
:101DD000BA691343BB617B68BA69DA603B685B68C8
:101DE00003F08053002B00F0B4800023FB605F4BB6
:101DF0005B6C5E4A43F4804353645C4B5B6C03F45E
:101E00008043FB60FB685A4AFB699B08023352F827
:101E10002330BB61FB6903F003039B000F2202FA2E
:101E200003F3DB43BA691340BB617B68514A9342B9
:101E30002BD07B68504A934225D07B684F4A93420F
:101E40001FD07B684E4A934219D07B684D4A93421B
:101E500013D07B684C4A93420DD07B684B4A934227
:101E600007D07B684A4A934201D107230EE008233A
:101E70000CE006230AE0052308E0042306E0032320
:101E800004E0022302E0012300E00023FA6902F0EB
:101E9000030292009340BA691343BB613449FB6962
:101EA0009B080233BA6941F823203A4B1B68BB6197
:101EB0003B69DB43BA691340BB613B685B6803F471
:101EC0008033002B03D0BA693B691343BB61314AAD
:101ED000BB6913602F4B5B68BB613B69DB43BA692D
:101EE0001340BB613B685B6803F40033002B03D0F5
:101EF000BA693B691343BB61264ABB695360254BF2
:101F00009B68BB613B69DB43BA691340BB613B68BB
:101F10005B6803F48013002B03D0BA693B69134359
:101F2000BB611C4ABB6993601A4BDB68BB613B69B0
:101F3000DB43BA691340BB613B685B6803F4001381
:101F4000002B03D0BA693B691343BB61114ABB69DB
:101F5000D360FB690133FB61FB690F2B7FF690AE09
:101F600000BF2437BD465DF8047B7047003802404F
:101F70000038014000000240000402400008024016
:101F8000000C024000100240001402400018024001
:101F9000001C0240003C014080B485B000AF786076
:101FA0000B467B807B681A697B881340002B02D02C
:101FB0000123FB7301E00023FB73FB7B18461437FE
:101FC000BD465DF8047B704780B483B000AF786095
:101FD0000B467B8013467B707B78002B03D07A887E
:101FE0007B689A6103E07B881A047B689A6100BF72
:101FF0000C37BD465DF8047B7047000080B586B0A5
:1020000000AF78607B68002B01D101232DE27B6853
:102010001B6803F00103002B75D0A34B9B6803F0F2
:102020000C03042B0CD0A04B9B6803F00C03082B73
:1020300012D19D4B5B6803F48003B3F5800F0BD185
:10204000994B1B6803F40033002B5BD07B685B6803
:10205000002B57D1012308E27B685B68B3F5803F12
:1020600006D1914B1B68904A43F4803313601DE006
:102070007B685B68B3F5A02F0CD18B4B1B688A4A39
:1020800043F480231360884B1B68874A43F48033F2
:1020900013600BE0844B1B68834A23F48033136086
:1020A000814B1B68804A23F4802313607B685B6844
:1020B000002B13D0FFF7DCF8386108E0FFF7D8F801
:1020C00002463B69D31A642B01D90323CDE1764B39
:1020D0001B6803F40033002BF0D014E0FFF7C8F8BE
:1020E000386108E0FFF7C4F802463B69D31A642B55
:1020F00001D90323B9E16C4B1B6803F40033002BB7
:10210000F0D100E000BF7B681B6803F00203002BE6
:1021100063D0654B9B6803F00C03002B0BD0624B24
:102120009B6803F00C03082B1CD15F4B5B6803F426
:102130008003002B16D15C4B1B6803F00203002BBD
:1021400005D07B68DB68012B01D001238DE1564B64
:102150001B6823F0F8027B681B69DB0052491343BC
:102160000B603AE07B68DB68002B20D04F4B0122EC
:102170001A60FFF77DF8386108E0FFF779F802464A
:102180003B69D31A022B01D903236EE1464B1B682E
:1021900003F00203002BF0D0434B1B6823F0F8023E
:1021A0007B681B69DB00404913430B6015E03F4B24
:1021B00000221A60FFF75CF8386108E0FFF758F872
:1021C00002463B69D31A022B01D903234DE1364B5A
:1021D0001B6803F00203002BF0D17B681B6803F03F
:1021E0000803002B30D07B685B69002B16D0304B86
:1021F00001221A60FFF73CF8386108E0FFF738F871
:1022000002463B69D31A022B01D903232DE1264B49
:102210005B6F03F00203002BF0D015E0244B00228B
:102220001A60FFF725F8386108E0FFF721F8024649
:102230003B69D31A022B01D9032316E11A4B5B6FBA
:1022400003F00203002BF0D17B681B6803F004034A
:10225000002B00F0A0800023FB75134B1B6C03F0D8
:102260008053002B0FD10023FB600F4B1B6C0E4AD9
:1022700043F0805313640C4B1B6C03F08053FB60E2
:10228000FB680123FB750B4B1B6803F48073002B69
:1022900021D1084B1B68074A43F480731360FEF793
:1022A000E7FF386111E000BF0038024000004742FC
:1022B000800E474200700040FEF7DAFF02463B699D
:1022C000D31A022B01D90323CFE06A4B1B6803F416
:1022D0008073002BF0D07B689B68012B06D1664B86
:1022E0001B6F654A43F0010313671CE07B689B6822
:1022F000052B0CD1604B1B6F5F4A43F0040313673F
:102300005D4B1B6F5C4A43F0010313670BE05A4BB4
:102310001B6F594A23F001031367574B1B6F564A33
:1023200023F0040313677B689B68002B15D0FEF72E
:102330009FFF38610AE0FEF79BFF02463B69D31A14
:1023400041F28832934201D903238EE04A4B1B6F3E
:1023500003F00203002BEED014E0FEF789FF386192
:102360000AE0FEF785FF02463B69D31A41F2883244
:10237000934201D9032378E03F4B1B6F03F0020324
:10238000002BEED1FB7D012B05D13B4B1B6C3A4A58
:1023900023F0805313647B689B69002B64D0364B19
:1023A0009B6803F00C03082B5CD07B689B69022BB5
:1023B00041D1324B00221A60FEF75AFF386108E023
:1023C000FEF756FF02463B69D31A022B01D90323BD
:1023D0004BE0294B1B6803F00073002BF0D17B68A6
:1023E000DA697B681B6A1A437B685B6A9B011A4344
:1023F0007B689B6A5B08013B1B041A437B68DB6AB2
:102400001B061D4913434B601C4B01221A60FEF74B
:102410002FFF386108E0FEF72BFF02463B69D31A15
:10242000022B01D9032320E0134B1B6803F0007338
:10243000002BF0D018E0114B00221A60FEF718FFB5
:10244000386108E0FEF714FF02463B69D31A022BFD
:1024500001D9032309E0084B1B6803F00073002B2C
:10246000F0D101E0012300E0002318461837BD46F3
:1024700080BD00BF0070004000380240600047424D
:1024800080B584B000AF786039607B68002B01D1E3
:102490000123CAE0674B1B6803F00F033A689A42B6
:1024A0000CD9644B3A68D2B21A70624B1B6803F0C5
:1024B0000F033A689A4201D00123B6E07B681B689B
:1024C00003F00203002B20D07B681B6803F0040399
:1024D000002B05D0584B9B68574A43F4E053936058
:1024E0007B681B6803F00803002B05D0524B9B68E8
:1024F000514A43F4604393604F4B9B6823F0F002D2
:102500007B689B684C4913438B607B681B6803F0B6
:102510000103002B44D07B685B68012B07D1464B3D
:102520001B6803F40033002B19D101237DE07B6885
:102530005B68022B03D07B685B68032B07D13E4BA3
:102540001B6803F00073002B09D101236DE03A4BA7
:102550001B6803F00203002B01D1012365E0364B19
:102560009B6823F003027B685B68334913438B60ED
:10257000FEF77EFEF8600AE0FEF77AFE0246FB6890
:10258000D31A41F28832934201D903234DE02A4BFA
:102590009B6803F00C027B685B689B009A42EBD15E
:1025A000244B1B6803F00F033A689A420CD2214B6C
:1025B0003A68D2B21A701F4B1B6803F00F033A68D7
:1025C0009A4201D0012330E07B681B6803F00403CA
:1025D000002B08D0184B9B6823F4E0527B68DB6823
:1025E000154913438B607B681B6803F00803002BBD
:1025F00009D0114B9B6823F460427B681B69DB00A8
:102600000D4913438B6000F01DF801460A4B9B688F
:102610001B0903F00F03094AD35C21FA03F3084AAC
:1026200013600020FEF7E0FD002318461037BD467A
:1026300080BD00BF003C02400038024048C2000894
:1026400008000020F0B585B000AF00237B600023B8
:10265000FB6000233B600023BB60504B9B6803F092
:102660000C03042B07D0082B08D0002B40F08D80E2
:102670004B4BBB608CE04B4BBB6089E0474B5B68CE
:1026800003F03F037B60454B5B6803F48003002B42
:1026900023D0424B5B689B094FF0000440F2FF11CE
:1026A0004FF0000203EA010504EA02063D4A02FB7C
:1026B00006F1002202FB05F20A443A49A5FB01019A
:1026C000531819467B684FF000041A462346FEF75C
:1026D000E9FB03460C46FB6049E0304B5B689B0915
:1026E0004FF0000440F2FF114FF0000203EA010531
:1026F00004EA0206294632464FF000034FF0000478
:10270000540144EAD1644B0119462246491B62EB4D
:1027100006024FF000034FF00004940144EA916474
:102720008B015B1A64EB02044FF000014FF00002D2
:10273000E20042EA5372D9000B4614465B1944EB9F
:1027400006044FF000014FF00002A20242EA935249
:1027500099020B461446184621467B684FF0000448
:102760001A462346FEF79EFB03460C46FB600B4BC6
:102770005B681B0C03F0030301335B003B60FA68EA
:102780003B68B2FBF3F3BB6002E0054BBB6000BFEC
:10279000BB6818461437BD46F0BD00BF0038024084
:1027A0000024F40040787D0180B400AF034B1B6827
:1027B0001846BD465DF8047B704700BF0800002046
:1027C00080B500AFFFF7F0FF0146054B9B689B0A01
:1027D00003F00703034AD35C21FA03F3184680BDD4
:1027E0000038024058C2000880B500AFFFF7DCFF98
:1027F0000146054B9B685B0B03F00703034AD35C60
:1028000021FA03F3184680BD0038024058C2000880
:1028100080B582B000AF78607B68002B01D10123C6
:1028200056E07B6800229A627B6893F85130DBB2F5
:10283000002B06D17B68002283F85020786806F0D0
:10284000A1F87B68022283F851207B681B681A6814
:102850007B681B6822F040021A607B685A687B68BC
:102860009B681A437B68DB681A437B681B691A43C1
:102870007B685B691A437B689B6903F400731A43A6
:102880007B68DB691A437B681B6A42EA03017B6849
:102890009A6A7B681B680A431A607B689B691B0CF9
:1028A00003F004017B685A6A7B681B680A435A601C
:1028B0007B681B68DA697B681B6822F40062DA6156
:1028C0007B6800225A657B68012283F8512000232F
:1028D00018460837BD4680BD80B58CB000AFF860A3
:1028E000B9607A607B800123FB62002387F82B307C
:1028F000FB6893F85030012B01D102238AE1FB6879
:10290000012283F85020FEF7B3FC7862FB6893F84D
:10291000513087F82330FB685B68FB617B887B83E1
:1029200097F82330012B0FD0FB69B3F5827F07D1D5
:10293000FB689B68002B03D197F82330042B03D04E
:10294000022387F82B305BE1BB68002B05D07B6846
:10295000002B02D07B88002B03D1012387F82B307A
:102960004EE1FB6893F85130DBB2042B03D0FB68D7
:10297000052283F85120FB6800225A65FB687A68BB
:102980009A63FB687A88DA87FB687A889A87FB689B
:10299000BA681A63FB687A88DA86FB687A889A864E
:1029A000FB6800221A64FB6800225A64FB681B68FB
:1029B0001B6803F04003402B07D0FB681B681A68B4
:1029C000FB681B6842F040021A60FB68DB68B3F5E5
:1029D000006F78D1FB685B68002B02D07B8B012BEA
:1029E00066D1FB681B6B1A88FB681B68DA60FB68A2
:1029F0001B6B9A1CFB681A63FB68DB8E9BB2013B66
:102A00009AB2FB68DA8653E0FB681B689B6803F0A8
:102A10000203022B1BD1FB68DB8E9BB2002B16D06E
:102A2000FB6A012B13D1FB681B6B1A88FB681B68C0
:102A3000DA60FB681B6B9A1CFB681A63FB68DB8E11
:102A40009BB2013B9AB2FB68DA860023FB62FB680B
:102A50001B689B6803F00103012B19D1FB68DB8F16
:102A60009BB2002B14D0FB681B68DA68FB689B6B79
:102A700092B21A80FB689B6B9A1CFB689A63FB6896
:102A8000DB8F9BB2013B9AB2FB68DA870123FB62C2
:102A9000FEF7EEFB02467B6AD31ABA6B9A4207D85E
:102AA000BB6BB3F1FF3F03D0032387F82B30A7E0C4
:102AB000FB68DB8E9BB2002BA6D1FB68DB8F9BB241
:102AC000002BA1D17CE0FB685B68002B02D07B8BE4
:102AD000012B6BD1FB681A6BFB681B680C331278F7
:102AE0001A70FB681B6B5A1CFB681A63FB68DB8E51
:102AF0009BB2013B9AB2FB68DA8657E0FB681B6821
:102B00009B6803F00203022B1CD1FB68DB8E9BB297
:102B1000002B17D0FB6A012B14D1FB681A6BFB68E2
:102B20001B680C3312781A70FB681B6B5A1CFB680D
:102B30001A63FB68DB8E9BB2013B9AB2FB68DA86B4
:102B40000023FB62FB681B689B6803F00103012BF9
:102B500019D1FB68DB8F9BB2002B14D0FB681B687C
:102B6000DA68FB689B6BD2B21A70FB689B6B5A1CCD
:102B7000FB689A63FB68DB8F9BB2013B9AB2FB68F0
:102B8000DA870123FB62FEF773FB02467B6AD31AE6
:102B9000BA6B9A4203D8BB6BB3F1FF3F02D1BB6B58
:102BA000002B03D1032387F82B3029E0FB68DB8E51
:102BB0009BB2002BA2D1FB68DB8F9BB2002B9DD177
:102BC0007A6AB96BF86800F093F80346002B06D0D8
:102BD000012387F82B30FB6820225A6510E0FB6840
:102BE0009B68002B0BD100237B61FB681B68DB68B3
:102BF0007B61FB681B689B687B617B6900E000BFB1
:102C0000FB68012283F85120FB68002283F85020E2
:102C100097F82B3018463037BD4680BD80B584B05C
:102C200000AFF860B9603B601346FB714CE03B6855
:102C3000B3F1FF3F48D0FEF71BFB0246BB69D31A36
:102C40003A689A4202D93B68002B3DD1FB681B6869
:102C50005A68FB681B6822F0E0025A60FB685B68F8
:102C6000B3F5827F11D1FB689B68B3F5004F04D0A8
:102C7000FB689B68B3F5806F07D1FB681B681A6817
:102C8000FB681B6822F040021A60FB689B6AB3F580
:102C9000005F0FD1FB681B681A68FB681B6822F491
:102CA00000521A60FB681B681A68FB681B6842F4D4
:102CB00000521A60FB68012283F85120FB68002251
:102CC00083F8502003230FE0FB681B689A68BB68F9
:102CD0001340BA689A420CBF01230023DBB21A46A4
:102CE000FB799A42A3D1002318461037BD4680BD18
:102CF00080B588B002AFF860B9607A601B4B1B6882
:102D00001B4AA2FB03235B0D4FF47A7202FB03F311
:102D10007B61FB685B68B3F5827F12D17B680093AF
:102D2000BB6800228021F868FFF778FF0346002B7C
:102D300016D0FB685B6D43F02002FB685A650323E5
:102D40000FE07B69002B0AD07B69013B7B61FB684C
:102D50001B689B6803F08003802BF2D000E000BF6B
:102D6000002318461837BD4680BD00BF080000206C
:102D7000819F5E1680B582B000AF78607B68002BC3
:102D800001D101231DE07B6893F83D30DBB2002BBD
:102D900006D17B68002283F83C20786806F098FA18
:102DA0007B68022283F83D207B681A687B680433C5
:102DB0001946104600F002FD7B68012283F83D2091
:102DC000002318460837BD4680BD80B485B000AFEB
:102DD00078607B68022283F83D207B681B689B68D3
:102DE00003F00703FB60FB68062B07D07B681B68BA
:102DF0001A687B681B6842F001021A607B68012236
:102E000083F83D20002318461437BD465DF8047B47
:102E1000704780B483B000AF78607B68022283F88B
:102E20003D207B681B681A6A41F211131340002B86
:102E30000FD17B681B681A6A40F244431340002B91
:102E400007D17B681B681A687B681B6822F0010247
:102E50001A607B68012283F83D20002318460C3756
:102E6000BD465DF8047B704780B483B000AF7860E6
:102E70007B681B68DA687B681B6822F00102DA60F5
:102E80007B681B681A6A41F211131340002B0FD1A3
:102E90007B681B681A6A40F244431340002B07D139
:102EA0007B681B681A687B681B6822F001021A6045
:102EB000002318460C37BD465DF8047B704780B58B
:102EC00082B000AF78607B68002B01D101231DE048
:102ED0007B6893F83D30DBB2002B06D17B68002283
:102EE00083F83C20786806F0E9FA7B68022283F8D0
:102EF0003D207B681A687B6804331946104600F051
:102F00005DFC7B68012283F83D20002318460837CA
:102F1000BD4680BD80B584B000AF786039607B6805
:102F20001B6801223968184600F032FF7B681B6875
:102F3000154A934204D07B681B68144A934201D11E
:102F4000012300E00023002B07D07B681B685A6C2C
:102F50007B681B6842F400425A647B681B689B686C
:102F600003F00703FB60FB68062B07D07B681B6838
:102F70001A687B681B6842F001021A600023184639
:102F80001037BD4680BD00BF000001400004014075
:102F900080B582B000AF786039607B681B68002222
:102FA0003968184600F0F4FE7B681B68224A934299
:102FB00004D07B681B68214A934201D1012300E0C1
:102FC0000023002B17D07B681B681A6A41F211138B
:102FD0001340002B0FD17B681B681A6A40F24443F0
:102FE0001340002B07D17B681B685A6C7B681B68F9
:102FF00022F400425A647B681B681A6A41F211137A
:103000001340002B0FD17B681B681A6A40F24443BF
:103010001340002B07D17B681B681A687B681B680C
:1030200022F001021A607B68012283F83D20002310
:1030300018460837BD4680BD00000140000401402D
:1030400080B586B000AF786039607B68002B01D115
:10305000012383E07B6893F83D30DBB2002B06D17F
:103060007B68002283F83C20786806F0A9F97B6829
:10307000022283F83D207B681B689B687A6812688F
:1030800023F4804323F0070393607B681A687B680E
:1030900004331946104600F091FB7B681B689B685F
:1030A0007B617B681B689B693B617B681B681B6A53
:1030B000FB603B681B687A6913437B613B6923F4BF
:1030C000407323F003033B613B689A683B689B694C
:1030D0001B0213433A6913433B613B6923F440638A
:1030E00023F00C033B613B6923F4704323F0F003AE
:1030F0003B613B68DA683B68DB691B0213433A6952
:1031000013433B613B681B691A013B681B6A1B0345
:1031100013433A6913433B61FB6823F02203FB60CE
:10312000FB6823F08803FB603B685A683B685B6977
:103130001B011343FA681343FB607B681B687A69C1
:103140009A607B681B683A699A617B681B68FA68B9
:103150001A627B68012283F83D2000231846183745
:10316000BD4680BD80B582B000AF786039603B68F5
:10317000002B02D0042B08D00FE07B681B680122D3
:103180000021184600F004FE16E07B681B6801224F
:103190000421184600F0FCFD0EE07B681B6801224C
:1031A0000021184600F0F4FD7B681B680122042111
:1031B000184600F0EDFD00BF7B681B681A687B684D
:1031C0001B6842F001021A60002318460837BD460A
:1031D00080BD80B582B000AF786039603B68002B5D
:1031E00002D0042B08D00FE07B681B68002200216E
:1031F000184600F0CDFD16E07B681B680022042114
:10320000184600F0C5FD0EE07B681B680022002117
:10321000184600F0BDFD7B681B680022042118469B
:1032200000F0B6FD00BF7B681B681A6A41F21113FB
:103230001340002B0FD17B681B681A6A40F244438D
:103240001340002B07D17B681B681A687B681B68DA
:1032500022F001021A60002318460837BD4680BDDF
:1032600080B582B000AF78607B681B681B6903F093
:103270000203022B22D17B681B68DB6803F0020388
:10328000022B1BD17B681B686FF002021A617B68FE
:1032900001221A777B681B689B6903F00303002BEC
:1032A00003D0786800F06BFA05E0786800F05DFA0A
:1032B000786800F06EFA7B6800221A777B681B68DA
:1032C0001B6903F00403042B22D17B681B68DB68B5
:1032D00003F00403042B1BD17B681B686FF004020E
:1032E0001A617B6802221A777B681B689B6903F46A
:1032F0004073002B03D0786800F041FA05E078684D
:1033000000F033FA786800F044FA7B6800221A77FC
:103310007B681B681B6903F00803082B22D17B68BC
:103320001B68DB6803F00803082B1BD17B681B6854
:103330006FF008021A617B6804221A777B681B68A9
:10334000DB6903F00303002B03D0786800F017FA61
:1033500005E0786800F009FA786800F01AFA7B68EE
:1033600000221A777B681B681B6903F01003102B7F
:1033700022D17B681B68DB6803F01003102B1BD184
:103380007B681B686FF010021A617B6808221A774D
:103390007B681B68DB6903F44073002B03D07868FB
:1033A00000F0EDF905E0786800F0DFF9786800F0EA
:1033B000F0F97B6800221A777B681B681B6903F0B1
:1033C0000103012B0ED17B681B68DB6803F001034E
:1033D000012B07D17B681B686FF001021A617868C6
:1033E00002F082FD7B681B681B6903F08003802B61
:1033F0000ED17B681B68DB6803F08003802B07D14C
:103400007B681B686FF080021A61786800F086FDA7
:103410007B681B681B6903F04003402B0ED17B685F
:103420001B68DB6803F04003402B07D17B681B68F7
:103430006FF040021A61786800F0B5F97B681B688C
:103440001B6903F02003202B0ED17B681B68DB680F
:1034500003F02003202B07D17B681B686FF020024C
:103460001A61786800F050FD00BF0837BD4680BD86
:1034700080B584B000AFF860B9607A60FB6893F8FB
:103480003C30012B01D10223B4E0FB68012283F818
:103490003C20FB68022283F83D207B680C2B00F265
:1034A0009F8001A252F823F0DD340008E1350008C6
:1034B000E1350008E13500081D350008E135000858
:1034C000E1350008E13500085F350008E135000806
:1034D000E1350008E13500089F350008FB681B68EE
:1034E000B968184600F00AFAFB681B689A69FB681D
:1034F0001B6842F008029A61FB681B689A69FB68C6
:103500001B6822F004029A61FB681B689969BB681A
:103510001A69FB681B680A439A6162E0FB681B68D2
:10352000B968184600F05AFAFB681B689A69FB688C
:103530001B6842F400629A61FB681B689A69FB6829
:103540001B6822F480629A61FB681B689969BB68FA
:103550001B691A02FB681B680A439A6141E0FB6819
:103560001B68B968184600F0AFFAFB681B68DA6997
:10357000FB681B6842F00802DA61FB681B68DA69C5
:10358000FB681B6822F00402DA61FB681B68D969DA
:10359000BB681A69FB681B680A43DA6121E0FB68B3
:1035A0001B68B968184600F003FBFB681B68DA6902
:1035B000FB681B6842F40062DA61FB681B68DA6929
:1035C000FB681B6822F48062DA61FB681B68D969BA
:1035D000BB681B691A02FB681B680A43DA6100E0DA
:1035E00000BFFB68012283F83D20FB68002283F8BE
:1035F0003C20002318461037BD4680BD80B584B0FE
:1036000000AF786039607B6893F83C30012B01D1C2
:103610000223A6E07B68012283F83C207B6802221B
:1036200083F83D207B681B689B68FB60FB6823F088
:103630007703FB60FB6823F47F43FB607B681B68B8
:10364000FA689A603B681B68402B67D0402B0BD808
:10365000102B73D0102B02D8002B6FD078E0202BCA
:103660006CD0302B6AD073E0702B0DD0702B04D847
:10367000502B33D0602B41D06AE0B3F5805F66D029
:10368000B3F5005F17D063E07B6818683B68996802
:103690003B685A683B68DB6800F05AFB7B681B6834
:1036A0009B68FB60FB6843F07703FB607B681B68EB
:1036B000FA689A604CE07B6818683B6899683B68D8
:1036C0005A683B68DB6800F043FB7B681B689A68BC
:1036D0007B681B6842F480429A6039E07B68186816
:1036E0003B6859683B68DB681A4600F0B7FA7B68AC
:1036F0001B685021184600F010FB29E07B68186811
:103700003B6859683B68DB681A4600F0D6FA7B686C
:103710001B686021184600F000FB19E07B68186800
:103720003B6859683B68DB681A4600F097FA7B688B
:103730001B684021184600F0F0FA09E07B681A681F
:103740003B681B681946104600F0E7FA00E000BF2E
:103750007B68012283F83D207B68002283F83C20AF
:10376000002318461037BD4680BD80B483B000AF3B
:10377000786000BF0C37BD465DF8047B704780B4AD
:1037800083B000AF786000BF0C37BD465DF8047BA6
:10379000704780B483B000AF786000BF0C37BD467F
:1037A0005DF8047B704780B483B000AF786000BFE1
:1037B0000C37BD465DF8047B7047000080B485B0CF
:1037C00000AF786039607B681B68FB607B68404AAB
:1037D000934213D07B68B3F1804F0FD07B683D4A92
:1037E00093420BD07B683C4A934207D07B683B4AAC
:1037F000934203D07B683A4A934208D1FB6823F096
:103800007003FB603B685B68FA681343FB607B688E
:103810002F4A93422BD07B68B3F1804F27D07B682F
:103820002C4A934223D07B682B4A93421FD07B685B
:103830002A4A93421BD07B68294A934217D07B685F
:10384000284A934213D07B68274A93420FD07B6863
:10385000264A93420BD07B68254A934207D07B6867
:10386000244A934203D07B68234A934208D1FB68E1
:1038700023F44073FB603B68DB68FA681343FB602A
:10388000FB6823F080023B685B691343FB607B6845
:10389000FA681A603B689A687B68DA623B681A6863
:1038A0007B689A627B680A4A934203D07B680C4A21
:1038B000934203D13B681A697B681A637B680122D3
:1038C0005A6100BF1437BD465DF8047B704700BFE6
:1038D000000001400004004000080040000C0040CF
:1038E0000004014000400140004401400048014004
:1038F00000180040001C00400020004080B487B049
:1039000000AF786039607B681B6A23F001027B6836
:103910001A627B681B6A7B617B685B683B617B68C2
:103920009B69FB60FB6823F07003FB60FB6823F07E
:103930000303FB603B681B68FA681343FB607B6909
:1039400023F002037B613B689B687A6913437B61C8
:103950007B68204A934203D07B681F4A93420CD174
:103960007B6923F008037B613B68DB687A6913435A
:103970007B617B6923F004037B617B68154A93427A
:1039800003D07B68144A934211D13B6923F48073BE
:103990003B613B6923F400733B613B685B693A69B7
:1039A00013433B613B689B693A6913433B617B6806
:1039B0003A695A607B68FA689A613B685A687B6822
:1039C0005A637B687A691A6200BF1C37BD465DF88E
:1039D000047B7047000001400004014080B487B0C0
:1039E00000AF786039607B681B6A23F010027B6847
:1039F0001A627B681B6A7B617B685B683B617B68E2
:103A00009B69FB60FB6823F4E043FB60FB6823F4E5
:103A10004073FB603B681B681B02FA681343FB6042
:103A20007B6923F020037B613B689B681B017A69FB
:103A300013437B617B68224A934203D07B68214A0F
:103A400093420DD17B6923F080037B613B68DB6887
:103A50001B017A6913437B617B6923F040037B611F
:103A60007B68174A934203D07B68164A934213D16E
:103A70003B6923F480633B613B6923F400633B6152
:103A80003B685B699B003A6913433B613B689B69F8
:103A90009B003A6913433B617B683A695A607B68D3
:103AA000FA689A613B685A687B689A637B687A69AE
:103AB0001A6200BF1C37BD465DF8047B704700BF2B
:103AC000000001400004014080B487B000AF78607E
:103AD00039607B681B6A23F480727B681A627B689A
:103AE0001B6A7B617B685B683B617B68DB69FB60B1
:103AF000FB6823F07003FB60FB6823F00303FB60AB
:103B00003B681B68FA681343FB607B6923F400730E
:103B10007B613B689B681B027A6913437B617B680E
:103B2000214A934203D07B68204A93420DD17B699E
:103B300023F400637B613B68DB681B027A691343F3
:103B40007B617B6923F480637B617B68164A9342C7
:103B500003D07B68154A934213D13B6923F4805309
:103B60003B613B6923F400533B613B685B691B018C
:103B70003A6913433B613B689B691B013A691343F4
:103B80003B617B683A695A607B68FA68DA613B6836
:103B90005A687B68DA637B687A691A6200BF1C37EF
:103BA000BD465DF8047B7047000001400004014001
:103BB00080B487B000AF786039607B681B6A23F4FB
:103BC00080527B681A627B681B6A3B617B685B681A
:103BD0007B617B68DB69FB60FB6823F4E043FB608F
:103BE000FB6823F44073FB603B681B681B02FA68A8
:103BF0001343FB603B6923F400533B613B689B68C4
:103C00001B033A6913433B617B68124A934203D01A
:103C10007B68114A934209D17B6923F480437B611D
:103C20003B685B699B017A6913437B617B687A69B6
:103C30005A607B68FA68DA613B685A687B681A6484
:103C40007B683A691A6200BF1C37BD465DF8047B89
:103C5000704700BF000001400004014080B487B0FD
:103C600000AFF860B9607A60FB681B6A7B61FB6833
:103C70001B6A23F00102FB681A62FB689B693B61C7
:103C80003B6923F0F0033B617B681B013A691343F6
:103C90003B617B6923F00A037B617A69BB6813434C
:103CA0007B61FB683A699A61FB687A691A6200BFB6
:103CB0001C37BD465DF8047B704780B487B000AF09
:103CC000F860B9607A60FB681B6A23F01002FB6839
:103CD0001A62FB689B697B61FB681B6A3B617B69BD
:103CE00023F470437B617B681B037A6913437B6118
:103CF0003B6923F0A0033B61BB681B013A69134396
:103D00003B61FB687A699A61FB683A691A6200BF95
:103D10001C37BD465DF8047B704780B485B000AFAA
:103D2000786039607B689B68FB60FB6823F07003F8
:103D3000FB603A68FB68134343F00703FB607B6852
:103D4000FA689A6000BF1437BD465DF8047B70477F
:103D500080B487B000AFF860B9607A603B60FB6800
:103D60009B687B617B6923F47F437B613B681A021C
:103D70007B681A43BB6813437A6913437B61FB6812
:103D80007A699A6000BF1C37BD465DF8047B7047B6
:103D900080B487B000AFF860B9607A60BB6803F0A8
:103DA0001F03012202FA03F37B61FB681A6A7B6935
:103DB000DB431A40FB681A62FB681A6ABB6803F0AF
:103DC0001F03796801FA03F31A43FB681A6200BF04
:103DD0001C37BD465DF8047B704780B485B000AFEA
:103DE000786039607B6893F83C30012B01D1022365
:103DF00032E07B68012283F83C207B68022283F852
:103E00003D207B681B685B68FB607B681B689B6868
:103E1000BB60FB6823F07003FB603B681B68FA68BB
:103E20001343FB60BB6823F08003BB603B685B68A7
:103E3000BA681343BB607B681B68FA685A607B688A
:103E40001B68BA689A607B68012283F83D207B6812
:103E5000002283F83C20002318461437BD465DF845
:103E6000047B704780B485B000AF78603960002370
:103E7000FB607B6893F83C30012B01D102233DE0CD
:103E80007B68012283F83C20FB6823F0FF023B683B
:103E9000DB681343FB60FB6823F440723B689B685C
:103EA0001343FB60FB6823F480623B685B68134349
:103EB000FB60FB6823F400623B681B681343FB60F4
:103EC000FB6823F480523B681B691343FB60FB686B
:103ED00023F400523B685B691343FB60FB6823F4E7
:103EE00080423B68DB691343FB607B681B68FA68B0
:103EF0005A647B68002283F83C200023184614375C
:103F0000BD465DF8047B704780B483B000AF786035
:103F100000BF0C37BD465DF8047B704780B483B0AA
:103F200000AF786000BF0C37BD465DF8047B70477A
:103F300080B582B000AF78607B68002B01D101238F
:103F40003FE07B6893F83930DBB2002B06D17B6809
:103F5000002283F83820786805F0ACFB7B682422C7
:103F600083F839207B681B68DA687B681B6822F459
:103F70000052DA60786800F00BF97B681B681A69F8
:103F80007B681B6822F490421A617B681B685A693F
:103F90007B681B6822F02A025A617B681B68DA681A
:103FA0007B681B6842F40052DA607B680022DA63A7
:103FB0007B68202283F839207B68202283F83A200E
:103FC000002318460837BD4680BD80B588B002AFD3
:103FD000F860B9603B601346FB8000237B61FB689F
:103FE00093F83930DBB2202B40F08380BB68002B84
:103FF00002D0FB88002B01D101237BE0FB6893F802
:104000003830012B01D1022374E0FB68012283F8D0
:104010003820FB680022DA63FB68212283F839200C
:10402000FDF726F97861FB68FA889A84FB68FA88BC
:10403000DA8442E0FB68DB8C9BB2013B9AB2FB68FE
:10404000DA84FB689B68B3F5805F22D13B680093FC
:104050007B6900228021F86800F050F80346002BAD
:1040600001D0032346E0BB683B613B691B881A46CD
:10407000FB681B68C2F308025A60FB681B69002BCF
:1040800003D1BB680233BB6017E0BB680133BB6080
:1040900013E03B6800937B6900228021F86800F000
:1040A0002DF80346002B01D0032323E0BB685A1CE4
:1040B000BA601A78FB681B685A60FB68DB8C9BB29D
:1040C000002BB7D13B6800937B6900224021F86840
:1040D00000F014F80346002B01D003230AE0FB682C
:1040E000202283F83920FB68002283F8382000233F
:1040F00000E0022318461837BD4680BD80B584B065
:1041000000AFF860B9603B601346FB712CE0BB69FF
:10411000B3F1FF3F28D0BB69002B07D0FDF7A8F80B
:1041200002463B68D31ABA699A421DD2FB681B68E3
:10413000DA68FB681B6822F4D072DA60FB681B68DF
:104140005A69FB681B6822F001025A61FB68202251
:1041500083F83920FB68202283F83A20FB6800228C
:1041600083F8382003230FE0FB681B681A68BB68DC
:104170001340BA689A420CBF01230023DBB21A46EF
:10418000FB799A42C3D0002318461037BD4680BD44
:10419000B0B584B000AF78607B681B681B6923F4FE
:1041A00040517B68DA687B681B680A431A617B6848
:1041B0009A687B681B691A437B685B691A437B6852
:1041C000DB691343FB607B681B68DB6823F41643E1
:1041D00023F00C037A681268F9680B43D3607B689C
:1041E0001B685B6923F440717B689A697B681B6874
:1041F0000A435A617B68DB69B3F5004F40F0E48005
:104200007B681B68AB4A934204D07B681B68AA4A50
:1042100093426CD1FEF7E8FA024613469B00134422
:104220009A001A447B685B685B00B2FBF3F3A34A15
:10423000A2FB03235B091C01FEF7D6FA02461346D4
:104240009B0013449A001A447B685B685B00B2FBD6
:10425000F3F5FEF7C9FA024613469B0013449A0091
:104260001A447B685B685B00B2FBF3F3934AA2FBE2
:1042700003235B09642202FB03F3EB1ADB003233F6
:104280008E4AA2FB03235B095B0003F4F8731C4412
:10429000FEF7AAFA024613469B0013449A001A44FA
:1042A0007B685B685B00B2FBF3F5FEF79DFA0246A4
:1042B00013469B0013449A001A447B685B685B00BA
:1042C000B2FBF3F37D4AA2FB03235B09642202FBEA
:1042D00003F3EB1ADB003233784AA2FB03235B09BA
:1042E00003F007027B681B6822449A6054E1FEF7E2
:1042F00067FA024613469B0013449A001A447B68EF
:104300005B685B00B2FBF3F36C4AA2FB03235B091F
:104310001C01FEF755FA024613469B0013449A000F
:104320001A447B685B685B00B2FBF3F5FEF748FA62
:10433000024613469B0013449A001A447B685B684C
:104340005B00B2FBF3F35D4AA2FB03235B0964222B
:1043500002FB03F3EB1ADB003233584AA2FB0323C0
:104360005B095B0003F4F8731C44FEF729FA02466C
:1043700013469B0013449A001A447B685B685B00F9
:10438000B2FBF3F5FEF71CFA024613469B001344FA
:104390009A001A447B685B685B00B2FBF3F3474A00
:1043A000A2FB03235B09642202FB03F3EB1ADB008D
:1043B0003233424AA2FB03235B0903F007027B6806
:1043C0001B6822449A60E7E07B681B68394A934285
:1043D00004D07B681B68384A934271D1FEF704FA17
:1043E000024613469B0013449A001A447B685B689C
:1043F0009B00B2FBF3F3314AA2FB03235B091C01D0
:10440000FEF7F2F9024613469B0013449A001A4441
:104410007B685B689B00B2FBF3F5FEF7E5F90246AB
:1044200013469B0013449A001A447B685B689B0008
:10443000B2FBF3F3214AA2FB03235B09642202FBD4
:1044400003F3EB1A1B0132331C4AA2FB03235B0963
:1044500003F0F0031C44FEF7C7F9024613469B0025
:1044600013449A001A447B685B689B00B2FBF3F527
:10447000FEF7BAF9024613469B0013449A001A4409
:104480007B685B689B00B2FBF3F30C4AA2FB03233F
:104490005B09642202FB03F3EB1A1B013233074A68
:1044A000A2FB03235B0903F00F027B681B68224415
:1044B0009A6071E000100140001401401F85EB512B
:1044C000FEF77EF9024613469B0013449A001A44F5
:1044D0007B685B689B00B2FBF3F3314AA2FB0323CA
:1044E0005B091C01FEF76CF9024613469B0013445E
:1044F0009A001A447B685B689B00B2FBF3F5FEF7F9
:104500005FF9024613469B0013449A001A447B68E5
:104510005B689B00B2FBF3F3214AA2FB03235B0918
:10452000642202FB03F3EB1A1B0132331C4AA2FB89
:1045300003235B0903F0F0031C44FEF741F9024634
:1045400013469B0013449A001A447B685B689B00E7
:10455000B2FBF3F5FEF734F9024613469B00134411
:104560009A001A447B685B689B00B2FBF3F30C4A29
:10457000A2FB03235B09642202FB03F3EB1A1B017A
:104580003233074AA2FB03235B0903F00F027B6867
:104590001B6822449A60FFE700BF1037BD46B0BDDC
:1045A0001F85EB5180B582B000AF78607868FCF76A
:1045B0006BFE00BF0837BD4680BD000080B586B0E9
:1045C00000AF78600023FB820023BB827B6800225F
:1045D0001A70364B00225A62354B00225A62354817
:1045E00005F068FD3C213448FEF7BCFD3C21334812
:1045F000FEF7B8FDFB8A7B822C4B5B6A3B822C4B1F
:104600005B6AFB81FB892E4AA2FB03231B0BFB8207
:104610003B8A2C4AA2FB03235B0BBB82FB8ADAB2E8
:104620007B681A70786800F01FFAFA8A7B8A9A42CF
:1046300012D07B681B781946234805F03BFD7B6848
:104640001B781A4613461B019B1A9B0003F2164364
:104650006421184600F0C2F8BB8A012BCAD17B68DE
:104660001B781946194805F025FD7B681B781A460A
:1046700013461B019B1A9B0003F216434FF4FA7179
:10468000184600F0ABF83C210B48FEF7A2FD3C2198
:104690000A48FEF79EFD054B00225A62044B002299
:1046A0005A6200BF1837BD4680BD00BF00040040FD
:1046B0000008004098C0000814110020D410002009
:1046C000A9D9DAF373B2E745A4C00008B0C0000866
:1046D00080B500AF64214FF4C46000F07FF864211E
:1046E00040F62D0000F07AF8642140F62D1000F01D
:1046F00075F8642140F64D2000F070F8642140F612
:104700002D1000F06BF83220FCF7BEFD322140F690
:104710002D0000F063F83220FCF7B6FDC82140F60A
:104720002D0000F05BF800BF80BD80B500AF6421B4
:1047300040F62D1000F052F8642140F64D2000F0B4
:104740004DF8642140F62D1000F048F864214FF434
:10475000DC6000F043F8642140F62D1000F03EF8D4
:104760004FF4C870FCF790FD642140F62D1000F066
:1047700035F8642140F64D2000F030F8642140F611
:104780002D1000F02BF8642140F2265000F026F89E
:1047900064214FF4446000F021F8642140F2265077
:1047A00000F01CF8642140F62D1000F017F8642189
:1047B00040F64D2000F012F8642140F62D1000F074
:1047C0000DF8642140F62D0000F008F864214FF444
:1047D000DC6000F003F800BF80BD000080B58AB047
:1047E00000AF78603960284B284A1A60264B40F2A7
:1047F00047325A60244B00229A60254A7B68B2FBFC
:10480000F3F3214AD360204B00221A611E4B002291
:104810005A611D4B00229A616023FB601D4A7B6830
:10482000B2FBF3F33B6100237B610023FB6116487D
:10483000FEF745FB0346002B01D004F065F807F1B5
:104840000C030C2219461048FEF712FE0346002BFB
:1048500001D004F059F80C210B48FEF75BFB03462E
:10486000002B01D004F050F83868FCF70DFD0C2146
:104870000548FEF78DFB0346002B01D004F044F8F9
:1048800000BF2837BD4680BD9410002000040140C1
:10489000A08601001873010080B500AF1C4A537850
:1048A0006FF3820353701A4A53786FF304135370F3
:1048B000184B1B686FF001021A61164B1B68DA680F
:1048C000144B1B6842F00102DA601248FEF77DFAD1
:1048D000114805F063FC114B1B68C82BFBD94FF442
:1048E000967140F22650FFF779FF4FF4967140F22F
:1048F0007550FFF773FF4FF496714FF4C460FFF7E4
:104900006DFF4FF47A70FFF74DFE00BF00BF80BD12
:104910002810002094110020D0C00008E00C0020D6
:1049200080B500AF00F0DAFF03F026FA0E4A1378E4
:104930006FF3C3031370002000F056FFDFED0B0A86
:104940009FED0B0A00F060F80A4B00221A80B3EECC
:104950000B0A00F0E7FA01211B2000F035FB00F004
:10496000BDFF00BF80BD00BF281000209A99193FED
:104970009A99993E2A10002080B483B000AF7860E5
:104980007B681B68094A13607B685B68074A536051
:104990007B689B68054A93607B68DB68034AD36049
:1049A00000BF0C37BD465DF8047B704764080020EB
:1049B00080B483B000AF78607B681B68114A1360D5
:1049C0007B689B680F4A93607B685B680D4A536005
:1049D0007B68DB680B4AD3607B681B69094A1361FB
:1049E0007B685B69074A53617B689B69054A9361F1
:1049F0007B68DB69034AD36100BF0C37BD465DF8B5
:104A0000047B70478804002080B584B002AF87ED36
:104A1000010AC7ED000A104B32229A810F4B642223
:104A20009A810F4B32229A810B4B9B899BB219467C
:104A30000B4B9B899BB21A46074BDB881BB218466F
:104A4000074BDB881BB200930346064805F032FB98
:104A500000BF0837BD4680BD4C080020E00C002098
:104A6000D8070020DCC0000880B582B000AF7860B5
:104A70007B681B7803F00103DBB21A464FF48041D8
:104A80001848FDF7A1FA7B681B7803F00203DBB23C
:104A90001A464FF400411348FDF796FA7B681B78DD
:104AA00003F00403DBB21A464FF480710E48FDF7A1
:104AB0008BFA7B681B7803F00803DBB21A461021DF
:104AC0000848FDF781FA7B681B7803F01003DBB21E
:104AD0001A4620210348FDF777FA00BF0837BD4684
:104AE00080BD00BF000402400008024090B400AF47
:104AF0000E4B4FF000021A610D4B4FF000021A618D
:104B00000C4B4FF00002DA61084A4FF000034FF0FF
:104B10000004C2E90234064A4FF000034FF00004DB
:104B2000C2E9023400BFBD4690BC7047101000209F
:104B300030080020F807002080B500AF4FF48071E6
:104B40001048FDF729FA0346002B16D100210E4824
:104B5000FEF71EFA04210D48FEF71AFA00210C4850
:104B6000FEF716FA0B48FEF754F900F0B7FE0A48B4
:104B700005F014FBFFF7D9FDFEE7084805F00EFB32
:104B800000BF80BD00040240D41100201412002098
:104B9000541100209411002000C1000810C1000829
:104BA00080B582B000AF752003F034FF0346FB717F
:104BB000FB7919461A4805F07DFAFB79982B0ED03F
:104BC000752003F027FF0346FB7105E0154805F04B
:104BD000E5FA6420FCF758FBFB79982BF6D11248D4
:104BE00005F0DCFA00216B2003F03EFF0A20FCF701
:104BF0004BFB00211A2003F037FF0A20FCF744FB8F
:104C000018211B2003F030FF00F012F8F0EE407A7C
:104C1000064BC3ED007A00BF0837BD4680BD00BF1C
:104C200024C1000838C1000844C10008AC040020B9
:104C300090B583B000AF472003F0ECFE03461B02A3
:104C40001CB2482003F0E6FE03461BB22343FB8060
:104C5000B7F906301846FBF765FC0BA3D3E9002330
:104C6000FBF7F4FD03460C4618462146FBF7BCFF54
:104C700003463B603B6807EE903AB0EE670A0C379C
:104C8000BD4690BDAFF300806666666666663040DE
:104C900080B500AF064A137843F0080313709FED08
:104CA000050A00F03FF902F0E1FF00BF80BD00BF40
:104CB000281000200000B44280B500AF054A1378E8
:104CC00043F0080313709FED040A00F02BF900BFB6
:104CD00080BD00BF281000200000B44280B500AFA6
:104CE000054A13786FF3C303137001215A2000F0B3
:104CF0006BF900BF80BD00BF2810002080B500AF59
:104D0000FFF7C6FFFFF7EAFFFFF7F0FE00F0E6FD52
:104D100000BF80BD80B500AFFFF7CEFFFFF7B8FF43
:104D200000BF80BD80B500AF094A13786FF3C3039D
:104D30001370102000F058FD9FED060A00F01CFAD9
:104D400000F0CCFD002000F04FFD00BF80BD00BF93
:104D5000281000200000B4C280B500AF1A4A1378B2
:104D60006FF3C3031370002000F03EFD174B1B7C54
:104D7000DBB207EE903AF8EE677AB0EE670A00F021
:104D8000D1F8134B00221A80124B00221A800E4ACF
:104D900013786FF3C30313706FF0590000F0A8FB92
:104DA000094A13786FF3C3031370084B5B7CDBB2C3
:104DB00007EE903AF8EE677AB0EE670A00F0B2F8C4
:104DC00002F054FF00BF80BD281000201C08002006
:104DD000600800202A10002080B500AF094A13782F
:104DE0006FF3C3031370012000F0FEFC9FED060A71
:104DF00000F0C2F900F072FD002000F0F5FC00BFE9
:104E000080BD00BF281000200000B44280B500AF74
:104E10001B4A13786FF3C3031370002000F0E4FC07
:104E2000184B9B7CDBB207EE903AF8EE677AB0EE57
:104E3000670A00F077F8124A13786FF3C303137010
:104E40005A2000F055FB0E4A13786FF3C30313701A
:104E50000C4BDB7CDBB207EE903AF8EE677AB0EEF3
:104E6000670A00F05FF8084B4FF000025A60064BEB
:104E70004FF000029A6002F0F9FE00BF80BD00BF53
:104E8000281000201C080020A80B002080B500AFCF
:104E9000074A13786FF3C3031370102000F0A4FCCB
:104EA0009FED040A00F068F900F018FD00BF80BD16
:104EB00028100020000034C380B582B000AF034644
:104EC000FB71164A13786FF3C3031370112000F0BF
:104ED0008BFCC820FFF766FB00214FF4FA7000F04E
:104EE0006FFA002000F080FC0C4A137843F00803AE
:104EF0001370FB79002B04D19FED090A00F012F822
:104F000007E0B3EE0B0A00F00DF801211B2000F0C2
:104F10005BF800BF0837BD4680BD00BF28100020E9
:104F20000000584280B584B000AF87ED010A244BE1
:104F3000DB69FB60234A53786FF345135370214AB2
:104F4000537843F0040353701E4A537843F0100320
:104F500053701C4A53786FF3C3035370194A537844
:104F60006FF3C7135370174A53786FF38613537058
:104F7000144A137843F010031370124A13786FF336
:104F8000451313700F4A13786FF3861313700C4B8D
:104F90004FF000021A6100F0BFFB00BF084B93ED19
:104FA000077AD7ED036AD7ED017A76EEA77AB4EEE9
:104FB000E77AF1EE10FAF1D400BF1037BD4680BD9C
:104FC000F807002028100020B0B584B000AF0346D9
:104FD0000A46FB8013467B715E4BDB69FB605E4AD1
:104FE00013786FF3C30313705B4A53786FF3451361
:104FF0005370594A537843F010035370564A53780C
:105000006FF3C3035370544A537843F0040353704F
:10501000514A53786FF3C71353704F4A53786FF365
:10502000861353704C4A137843F0100313704A4AA6
:1050300013786FF34513137000F06EFB7B791846FD
:10504000FBF770FA4FF00002444BFBF7D5FA03462A
:105050000C4625461C46424B1B681846FBF774FA63
:1050600002460B4620462946FBF7C6FA03460C4685
:1050700025461C463B4B1B681846FBF765FA024663
:105080000B4620462946FBF7B7FA03460C4618465E
:1050900021464FF00002344BFBF7AEFA03460C46B4
:1050A00018462146FBF7A0FD0346BB6000BF294B15
:1050B00093ED077AD7ED027A37EE277AFB8807EE71
:1050C000903AF8EEE76AD7ED037A76EEA77AB4EE77
:1050D000E77AF1EE10FAEAD47B79002B2AD01E4A47
:1050E00013786FF3041313701B4A137843F02003F3
:1050F000137000BF174BD3ED017AF5EEC07AF1EED5
:1051000010FAF7DC4FF4FA70FFF74CFA124A5378B2
:105110006FF345135370104A53786FF304135370B1
:105120000D4A53786FF3C30353700B4A53786FF3F0
:105130008203537000F028FB4FF000030B4A93608A
:105140000B4A93600B4B4FF000029A6000BF103780
:10515000BD46B0BDF8070020281000200000E03F49
:10516000640800203810002000408F4070030020A9
:1051700058020020A80B0020B0B584B000AF87ED26
:10518000010A874B1B6AFB60D7ED017AF5EEC07A06
:10519000F1EE10FA03DD824B01221A7609E0D7ED19
:1051A000017AF5EEC07AF1EE10FA02D57C4BFF22BF
:1051B0001A767C4A53786FF345135370794A5378C3
:1051C00043F004035370774A537843F0100353704D
:1051D000744A53786FF3C3035370724A537843F0A1
:1051E000400353706F4A53786FF3C71353706D4A7F
:1051F00013786FF3041313706A4A13786FF345132F
:105200001370684A137843F080031370FFF76EFC45
:10521000654B1B681846FBF797F94FF00002634B8C
:10522000FBF7EAF903460C4625461C46604B9B6893
:105230001846FBF789F902460B4620462946FBF73C
:10524000DBF903460C461846214653A3D3E9002355
:10525000FBF7D2F903460C4618462146FBF7C4FC7F
:105260000346BB604E4B4FF000025A604C4B4FF070
:1052700000021A614F4B4FF000029A6000F04CFAA6
:10528000D7ED017AF5EEC07AF1EE10FA2CDD00BF11
:10529000434B93ED087AD7ED036AD7ED017A76EEAA
:1052A000A76AD7ED027A76EEE77AB4EEE77AF1EE06
:1052B00010FAEDD43B4A53786FF386135370394A92
:1052C000537843F08003537000BF354B93ED087A59
:1052D000D7ED036AD7ED017A76EEA77AB4EEE77AD6
:1052E000F1EE10FAF1D439E0D7ED017AF5EEC07A9B
:1052F000F1EE10FA32D500BF294B93ED087AD7EDC5
:10530000036AD7ED017A76EEA76AD7ED027A76EED8
:10531000A77AB4EEE77AF1EE10FAEDDC214A537881
:105320006FF3861353701F4A537843F08003537012
:1053300000BF1B4B93ED087AD7ED036AD7ED017AD6
:1053400076EEA77AB4EEE77AF1EE10FAF1DC144BC0
:105350004FF000021A61C820FBF796FF104B4FF088
:1053600000021A61C820FBF78FFF00F00DFA4FF022
:105370000003114A9360114A93600E4B4FF00002F4
:105380009A60084A13786FF3C713137000BF103781
:10539000BD46B0BDAFF300803F355EBA49BC4C405E
:1053A000F807002028100020D00700200000E03F70
:1053B00064080020A80B0020700300205802002081
:1053C000B0B582B000AF03460A46FB8013467B713E
:1053D000FFF78CFB4FF000033E4A13613D4A5360D8
:1053E0003D4B00221A803D4A537843F0040353702A
:1053F0003A4A53786FF345135370384A53786FF332
:10540000C3035370354A537843F010035370334A43
:10541000137843F010031370304A13786FF3451379
:1054200013702E4A53786FF3861353702B4A5378B8
:105430006FF3C713537000F06FF900BF264B1B8842
:105440009BB21846FBF76EF804460D46FB881846DB
:10545000FBF768F84FF00002214BFBF7CDF802464E
:105460000B4620462946FBF739FB0346002BE5D1C6
:105470001A4A13786FF304131370184A137843F021
:105480002003137000BF144B1B889BB2FA889A420A
:10549000F9D87B79002B09D00021124B0A461A73E8
:1054A000114B0A461A736420FFF77CF800F06CF980
:1054B000084B4FF000025A604FF00003094A936016
:1054C000094A9360094B4FF000029A6000BF083709
:1054D000BD46B0BDF807002060080020281000205D
:1054E0000000E03F7003002058020020A80B0020BD
:1054F000B0B584B000AF0346FB804FF00003FB6003
:10550000FFF7F4FA7C4B4FF000021A627A4B4FF02F
:1055100000021A61794A537843F004035370774AC2
:1055200053786FF345135370744A53786FF3C30382
:105530005370724A537843F010035370B7F9063032
:10554000002B03DD6C4B01221A7606E0B7F906301A
:10555000002B02DA684BFF221A76684A137843F070
:1055600010031370654A13786FF345131370634A81
:10557000537843F040035370604A53786FF3C71376
:10558000537000F0C9F85E4B1B681846FAF7DCFF51
:105590004FF000025B4BFBF72FF803460C46254605
:1055A0001C46594B9B681846FAF7CEFF02460B463D
:1055B00020462946FBF720F803460C4618462146AC
:1055C0004BA3D3E90023FBF717F803460C46184614
:1055D0002146FBF709FB0346FB60474B1B7E5BB292
:1055E000012B34D100BF444B93ED087AD7ED037AF9
:1055F00037EE277AB7F9063007EE903AF8EEE77AF9
:10560000B4EEE77AF1EE10FAEDD43C4A53786FF33A
:1056100086135370394A537843F08003537007E080
:10562000354BD3ED047AF5EE407AF1EE10FA49D01D
:10563000314B93ED087AB7F9063007EE903AF8EE61
:10564000E77AB4EEE77AF1EE10FAE9D43DE02A4BBE
:105650001B7E5BB2B3F1FF3F37D100BF264B93ED0A
:10566000087AD7ED037A37EE677AB7F9063007EE96
:10567000903AF8EEE77AB4EEE77AF1EE10FAEDDC64
:105680001E4A53786FF3861353701C4A537843F0C5
:105690008003537007E0184BD3ED047AF5EE407A9F
:1056A000F1EE10FA10D0144B93ED087AB7F90630EA
:1056B00007EE903AF8EEE77AB4EEE77AF1EE10FAF8
:1056C000E9DC02E000BF00E000BF104B00221A73CB
:1056D0004FF000030E4A93600E4A93600B4B4FF05D
:1056E00000029A6000BF1037BD46B0BDAFF3008026
:1056F0003F355EBA49BC4C40F80700202810002016
:10570000D00700200000E03F64080020A80B002024
:10571000700300205802002080B588B000AF6023DD
:105720007B600A23BB600023FB6000233B610023F6
:105730007B610023BB610023FB613B1D00221946F6
:105740000F48FDF795FE0346002B01D003F0DCF86F
:105750003B1D042219460B48FDF78AFE0346002B29
:1057600001D003F0D1F800210548FDF7D3FB042157
:105770000448FDF7CFFB00BF2037BD4680BD00BF0A
:10578000D41100201412002080B500AF114B00226C
:105790001A8000211048FDF7FBFB04210F48FDF79C
:1057A000F7FB00224FF480410D48FCF70DFC00226E
:1057B0004FF400410A48FCF707FC00220121094888
:1057C000FCF702FC002202210648FCF7FDFB00BFAB
:1057D00080BD00BF28100020D4110020141200202A
:1057E000000002400004024080B582B000AF0346D2
:1057F000FB71012220213348FCF7E6FBFB7903F023
:105800000F03002B02D0012B13D025E02E4A537832
:1058100043F0020353702D4B01221A730022012121
:105820002B48FCF7D1FB012202212948FCF7CCFBD5
:1058300012E0254A53786FF341035370234BFF2244
:105840001A73012201212248FCF7BEFB002202212B
:105850001F48FCF7B9FB00BFFB7903F0F003002BF6
:1058600002D0102B15D029E0174A537843F00103DA
:105870005370184B01221A7300224FF480411648CE
:10588000FCF7A2FB01224FF400411348FCF79CFBFC
:1058900014E00D4A53786FF3000353700D4BFF2251
:1058A0001A7301224FF480410B48FCF78DFB002254
:1058B0004FF400410848FCF787FB00BF00BF0837E2
:1058C000BD4680BD00080240281000207003002063
:1058D00000040240580200200000024080B500AFE2
:1058E000002220211248FCF76FFB00220121114801
:1058F000FCF76AFB012202210E48FCF765FB00223F
:105900004FF480410C48FCF75FFB01224FF400414B
:105910000948FCF759FB4FF00003084A9360084A16
:105920009360084B4FF000029A6000BF80BD00BF3B
:105930000008024000040240000002407003002002
:1059400058020020A80B002080B582B000AF78601C
:10595000614804F023FC7868FEF730FE3220FEF741
:1059600021FEFEF799FF7B681B78082B00F2A480CC
:1059700001A252F823F000BF9D590008BD5900084C
:10598000D75900081D5A0008635A0008B95A000880
:10599000B95A0008AD5A0008C15A00080020FFF7A4
:1059A00023FFFFF7B9FE4FF47A70FBF76DFCFFF7AA
:1059B000EBFE4FF47A70FBF767FC82E002F0DCF953
:1059C0000020FFF711FF454B00221A80FFF760F916
:1059D000FFF784F975E002F0CFF9FFF7A3F9FFF7BD
:1059E000A1F9FFF79FF9FFF79DF9FFF79BF9FFF783
:1059F00099F9FFF797F9FFF795F9FFF793F9FFF793
:105A000091F9FFF78FF9FFF78DF9FFF78BF9FFF7A2
:105A100089F9FFF787F9FFF785F952E002F0ACF951
:105A2000FFF7DAF9FFF7D8F9FFF7D6F9FFF7D4F95E
:105A3000FFF7D2F9FFF7D0F9FFF7CEF9FFF7CCF96E
:105A4000FFF7CAF9FFF7C8F9FFF7C6F9FFF7C4F97E
:105A5000FFF7C2F9FFF7C0F9FFF7BEF9FFF7BCF98E
:105A60002FE002F089F9FFF711FAFFF70FFAFFF7BD
:105A70000DFAFFF70BFAFFF709FAFFF707FAFFF73E
:105A800005FAFFF703FAFFF701FAFFF7FFF9FFF74F
:105A9000FDF9FFF7FBF9FFF7F9F9FFF7F7F9FFF762
:105AA000F5F9FFF7F3F9FFF7F1F90AE00C4A13787B
:105AB00043F00803137004E00A4804F06FFB08E0A9
:105AC00000BF02F07DF9FFF709FF074804F066FB0D
:105AD0003EE70837BD4680BD4CC100086008002085
