:020000040800F2
:100000000000022065820008E9760008F776000803
:10001000FD7600080377000809770008000000005B
:100020000000000000000000000000000F77000842
:100030001D770008000000002B77000839770008C2
:10004000B5820008B5820008B5820008B5820008B4
:10005000B5820008B5820008B5820008B5820008A4
:10006000B5820008B5820008B5820008B582000894
:10007000B5820008B5820008B5820008B582000884
:10008000B5820008B5820008B5820008B582000874
:10009000B5820008B5820008B5820008B582000864
:1000A000B5820008B5820008B5820008B582000854
:1000B000B5820008B5820008B5820008B582000844
:1000C000B5820008B5820008B5820008B582000834
:1000D000B5820008B5820008B5820008B582000824
:1000E000B5820008B5820008B5820008B582000814
:1000F000B5820008B5820008B5820008B582000804
:10010000B5820008B5820008B5820008B5820008F3
:10011000B5820008B582000845770008B58200085E
:10012000B5820008B5820008B5820008B5820008D3
:10013000B58200080000000000000000B582000841
:10014000B5820008B5820008B5820008B5820008B3
:10015000B5820008B5820008B5820008B5820008A3
:10016000B5820008B5820008B5820008B582000893
:10017000B5820008B5820008000000000000000001
:08018000B5820008B5820008F9
:1001900010B5054C237833B9044B13B10448AFF3C1
:1001A00000800123237010BDDC010020000000004E
:1001B0009CAB000808B5034B1BB103490348AFF3E0
:1001C000008008BD00000000E00100209CAB00089A
:1001D000034613F8012B002AFBD1181A0138704787
:1001E00001F0FF01102A2BDB10F0070F08D010F8E8
:1001F000013B013A8B422DD010F0070F42B3F6D1EC
:10020000F0B441EA012141EA014122F007047FF004
:1002100000070023F0E80256083C85EA010586EA5B
:10022000010685FA47F5A3FA87F586FA47F6A5FA97
:1002300087F68EB9EED1F0BC01F0FF0102F00702A3
:1002400032B110F8013B013A83EA010313B1F8D14E
:100250000020704701387047002D06BF354603382F
:10026000073815F0010F07D1013015F4807F02BF68
:10027000013015F4C03F0130F0BC0138704700BFB9
:1002800081F0004102E000BF83F0004330B54FEA47
:1002900041044FEA430594EA050F08BF90EA020FB4
:1002A0001FBF54EA000C55EA020C7FEA645C7FEA47
:1002B000655C00F0E2804FEA5454D4EB5555B8BF6A
:1002C0006D420CDD2C4480EA020281EA030382EADB
:1002D000000083EA010180EA020281EA0303362D6D
:1002E00088BF30BD11F0004F4FEA01314FF4801C40
:1002F0004CEA113102D0404261EB410113F0004F52
:100300004FEA03334CEA133302D0524263EB430308
:1003100094EA050F00F0A780A4F10104D5F1200EA6
:100320000DDB02FA0EFC22FA05F2801841F1000101
:1003300003FA0EF2801843FA05F359410EE0A5F1D5
:1003400020050EF1200E012A03FA0EFC28BF4CF006
:10035000020C43FA05F3C01851EBE37101F00045BC
:1003600007D54FF0000EDCF1000C7EEB00006EEBC9
:100370000101B1F5801F1BD3B1F5001F0CD3490853
:100380005FEA30004FEA3C0C04F101044FEA4452AA
:1003900012F5800F80F09A80BCF1004F08BF5FEA31
:1003A000500C50F1000041EB045141EA050130BD11
:1003B0005FEA4C0C404141EB010111F4801FA4F1B4
:1003C0000104E9D191F0000F04BF01460020B1FA09
:1003D00081F308BF2033A3F10B03B3F120020CDA41
:1003E0000C3208DD02F1140CC2F10C0201FA0CF01F
:1003F00021FA02F10CE002F11402D8BFC2F1200C84
:1004000001FA02F120FA0CFCDCBF41EA0C01904039
:10041000E41AA2BF01EB0451294330BD6FEA040482
:100420001F3C1CDA0C340EDC04F11404C4F120026D
:1004300020FA04F001FA02F340EA030021FA04F37F
:1004400045EA030130BDC4F10C04C4F1200220FAD6
:1004500002F001FA04F340EA0300294630BD21FA14
:1004600004F0294630BD94F0000F83F4801306BFDA
:1004700081F480110134013D4EE77FEA645C18BFCE
:100480007FEA655C29D094EA050F08BF90EA020F65
:1004900005D054EA000C04BF1946104630BD91EA5D
:1004A000030F1EBF0021002030BD5FEA545C05D160
:1004B0004000494128BF41F0004130BD14F580049F
:1004C0003CBF01F5801130BD01F0004545F0FE4113
:1004D00041F470014FF0000030BD7FEA645C1ABF48
:1004E000194610467FEA655C1CBF0B46024650EA7F
:1004F000013406BF52EA033591EA030F41F40021AB
:1005000030BD00BF90F0000F04BF0021704730B530
:100510004FF4806404F132044FF000054FF0000105
:1005200050E700BF90F0000F04BF0021704730B5C6
:100530004FF4806404F1320410F0004548BF40429B
:100540004FF000013EE700BF42004FEAE2014FEAF0
:1005500031014FEA02701FBF12F07F4393F07F4FCB
:1005600081F06051704732F07F4208BF704793F0CE
:100570007F4F04BF41F40021704730B54FF46074E1
:1005800001F0004521F000411CE700BF50EA0102E4
:1005900008BF704730B54FF000050AE050EA01028D
:1005A00008BF704730B511F0004502D5404261EBFD
:1005B00041014FF4806404F132045FEA915C3FF43E
:1005C000D8AE4FF003025FEADC0C18BF03325FEADB
:1005D000DC0C18BF033202EBDC02C2F1200300FA8C
:1005E00003FC20FA02F001FA03FE40EA0E0021FAB1
:1005F00002F11444BDE600BF70B54FF0FF0C4CF49F
:10060000E06C1CEA11541DBF1CEA135594EA0C0F50
:1006100095EA0C0F00F0DEF82C4481EA030621EA8B
:100620004C5123EA4C5350EA013518BF52EA0335C6
:1006300041F4801143F4801338D0A0FB02CE4FF078
:100640000005E1FB02E506F00042E0FB03E54FF0A8
:100650000006E1FB03569CF0000F18BF4EF0010EA0
:10066000A4F1FF04B6F5007F64F5407404D25FEA9C
:100670004E0E6D4146EB060642EAC62141EA55514F
:100680004FEAC52040EA5E504FEACE2EB4F1FD0C91
:1006900088BFBCF5E06F1ED8BEF1004F08BF5FEA0F
:1006A000500E50F1000041EB045170BD06F00046C1
:1006B00046EA010140EA020081EA0301B4EB5C046E
:1006C000C2BFD4EB0C0541EA045170BD41F4801166
:1006D0004FF0000E013C00F3AB8014F1360FDEBF8B
:1006E000002001F0004170BDC4F10004203C35DA67
:1006F0000C341BDC04F11404C4F1200500FA05F3EA
:1007000020FA04F001FA05F240EA020001F000428A
:1007100021F0004110EBD37021FA04F642EB060100
:100720005EEA430E08BF20EAD37070BDC4F10C042A
:10073000C4F1200500FA04F320FA05F001FA04F2EE
:1007400040EA020001F0004110EBD37041F10001DA
:100750005EEA430E08BF20EAD37070BDC4F12005E5
:1007600000FA05F24EEA020E20FA04F301FA05F24D
:1007700043EA020321FA04F001F0004121FA04F2F5
:1007800020EA020000EBD3705EEA430E08BF20EAC5
:10079000D37070BD94F0000F0FD101F000464000FF
:1007A00041EB010111F4801F08BF013CF7D041EA81
:1007B000060195F0000F18BF704703F00046520085
:1007C00043EB030313F4801F08BF013DF7D043EA56
:1007D0000603704794EA0C0F0CEA135518BF95EA0C
:1007E0000C0F0CD050EA410618BF52EA4306D1D193
:1007F00081EA030101F000414FF0000070BD50EAB2
:10080000410606BF1046194652EA430619D094EA3B
:100810000C0F02D150EA013613D195EA0C0F05D125
:1008200052EA03361CBF104619460AD181EA030179
:1008300001F0004141F0FE4141F470014FF0000031
:1008400070BD41F0FE4141F4780170BD70B54FF0CC
:10085000FF0C4CF4E06C1CEA11541DBF1CEA13554C
:1008600094EA0C0F95EA0C0F00F0A7F8A4EB05042E
:1008700081EA030E52EA03354FEA013100F0888025
:100880004FEA03334FF0805545EA131343EA1263EE
:100890004FEA022245EA111545EA10654FEA0026A3
:1008A0000EF000419D4208BF964244F1FD0404F55C
:1008B000407402D25B084FEA3202B61A65EB0305B8
:1008C0005B084FEA32024FF480104FF4002CB6EB75
:1008D000020E75EB030E22BFB61A754640EA0C00F5
:1008E0005B084FEA3202B6EB020E75EB030E22BF35
:1008F000B61A754640EA5C005B084FEA3202B6EB76
:10090000020E75EB030E22BFB61A754640EA9C0034
:100910005B084FEA3202B6EB020E75EB030E22BF04
:10092000B61A754640EADC0055EA060E18D04FEAC2
:10093000051545EA16754FEA06164FEAC30343EA62
:1009400052734FEAC2025FEA1C1CC0D111F4801F2F
:100950000BD141EA00014FF000004FF0004CB6E728
:1009600011F4801F04BF01430020B4F1FD0C88BFC7
:10097000BCF5E06F3FF6AFAEB5EB030C04BFB6EBD2
:10098000020C5FEA500C50F1000041EB045170BDC5
:100990000EF0004E4EEA113114EB5C04C2BFD4EBF2
:1009A0000C0541EA045170BD41F480114FF0000E76
:1009B000013C90E645EA060E8DE60CEA135594EAF2
:1009C0000C0F08BF95EA0C0F3FF43BAF94EA0C0FF5
:1009D0000AD150EA01347FF434AF95EA0C0F7FF46A
:1009E00025AF104619462CE795EA0C0F06D152EABE
:1009F00003353FF4FDAE1046194622E750EA4106A2
:100A000018BF52EA43067FF4C5AE50EA41047FF4B2
:100A10000DAF52EA43057FF4EBAE12E74FF0FF3C17
:100A200006E000BF4FF0010C02E000BF4FF0010CE8
:100A30004DF804CD4FEA410C7FEA6C5C4FEA430C61
:100A400018BF7FEA6C5C1BD001B050EA410C0CBFB0
:100A500052EA430C91EA030F02BF90EA020F002012
:100A6000704710F1000F91EA030F58BF994208BF79
:100A700090422CBFD8176FEAE37040F00100704736
:100A80004FEA410C7FEA6C5C02D150EA013C07D18D
:100A90004FEA430C7FEA6C5CD6D152EA033CD3D0D8
:100AA0005DF8040B704700BF8446104662468C46D2
:100AB0001946634600E000BF01B5FFF7B7FF002805
:100AC00048BF10F1000F01BD4DF808EDFFF7F4FF2E
:100AD0000CBF012000205DF808FB00BF4DF808EDB9
:100AE000FFF7EAFF34BF012000205DF808FB00BFDC
:100AF0004DF808EDFFF7E0FF94BF012000205DF8FE
:100B000008FB00BF4DF808EDFFF7CEFF94BF0120B2
:100B100000205DF808FB00BF4DF808EDFFF7C4FFAB
:100B200034BF012000205DF808FB00BF4FEA410CF4
:100B30007FEA6C5C02D150EA013C0AD14FEA430CD7
:100B40007FEA6C5C02D152EA033C02D14FF0000014
:100B500070474FF0010070474FEA410212F5001252
:100B600015D211D56FF47873B3EB625212D94FEAF4
:100B7000C12343F0004343EA505311F0004F23FADE
:100B800002F018BF404270474FF00000704750EA33
:100B9000013005D111F0004008BF6FF000407047F0
:100BA0004FF00000704700BF4FEA4102B2F1E0434E
:100BB00024BFB3F5001CDCF1FE5C0DD901F0004C44
:100BC0004FEAC0024CEA5070B2F1004F40EB830094
:100BD00008BF20F00100704711F0804F21D113F1C0
:100BE0003872BCBF01F00040704741F480114FEAF9
:100BF0005252C2F11802C2F1200C10FA0CF320FA82
:100C000002F018BF40F001004FEAC1234FEAD3239E
:100C100003FA0CFC40EA0C0023FA02F34FEA430308
:100C2000CCE77FEA625307D150EA01331EBF4FF091
:100C3000FE4040F44000704701F0004040F0FE40AC
:100C400040F40000704700BF53B94AB9002908BFFB
:100C500000281CBF4FF0FF314FF0FF3000F072B999
:100C6000ADF1080C6DE904CE00F006F8DDF804E003
:100C7000DDE9022304B070472DE9F047089E0446E1
:100C80008846002B4BD18A42154667D9B2FA82F2C8
:100C90004AB1C2F1200701FA02F320FA07F79540A2
:100CA00047EA030894404FEA154E230CB8FBFEF7C1
:100CB0001FFA85FC0EFB178843EA084307FB0CF17B
:100CC000994209D9EB1807F1FF3080F01B81994256
:100CD00040F21881023F2B445B1AA4B2B3FBFEF032
:100CE0000EFB103344EA034400FB0CFCA44509D975
:100CF0002C1900F1FF3380F00781A44540F20481F4
:100D000002382C4440EA0740A4EB0C0400271EB133
:100D1000D4400023C6E900433946BDE8F0878B4242
:100D200009D9002E00F0EB800027C6E90001384603
:100D30003946BDE8F087B3FA83F7002F47D18B42DD
:100D400002D3824200F2FA80841A61EB030301208D
:100D50009846002EE0D0C6E90048DDE702B9FFDE84
:100D6000B2FA82F2002A40F08F80491B4FEA154EFA
:100D70001FFA85F80127B1FBFEFC230C0EFB1C11AA
:100D800043EA014308FB0CF1994207D9EB180CF137
:100D9000FF3002D2994200F2CD808446591AA3B2A4
:100DA000B1FBFEF00EFB101443EA044408FB00F80C
:100DB000A04507D92C1900F1FF3302D2A04500F25B
:100DC000B6801846A4EB080440EA0C409FE7C7F140
:100DD000200CBB4022FA0CFE4EEA030E01FA07F487
:100DE00020FA0CF521FA0CF34FEA1E482543B3FB19
:100DF000F8F92C0C08FB19331FFA8EFA44EA034366
:100E000009FB0AF49C4202FA07F200FA07F10BD937
:100E10001EEB030309F1FF3080F087809C4240F213
:100E20008480A9F1020973441B1BADB2B3FBF8F037
:100E300008FB103345EA034400FB0AFAA24508D92F
:100E40001EEB040400F1FF336BD2A24569D90238CE
:100E5000744440EA0940A0FB0289A4EB0A044C4513
:100E6000C2464B4654D351D0002E69D0B1EB0A058F
:100E700064EB030404FA0CFCFD40FC404CEA05055D
:100E8000C6E90054002747E7C2F1200320FA03F720
:100E9000954001FA02F021FA03F34FEA154E384368
:100EA000010CB3FBFEF71FFA85F80EFB173341EA7E
:100EB000034107FB08F38B4204FA02F407D96918CF
:100EC00007F1FF3C2FD28B422DD9023F2944CB1A88
:100ED00081B2B3FBFEF00EFB103341EA034100FB8D
:100EE00008F38B4207D9691800F1FF3C17D28B42F7
:100EF00015D902382944C91A40EA07473BE7374663
:100F0000304609E70746E7E61846FBE64145ABD21F
:100F1000B8EB020A69EB0E0201381346A4E76046FB
:100F2000E9E7184695E76746D1E781467CE702384E
:100F30002C4447E7ACF1020C2B442FE7384608E776
:100F40003746E9E6704700BF80B500AF0E4B1B681F
:100F50000D4A43F4007313600B4B1B680A4A43F4B9
:100F600080631360084B1B68074A43F48073136067
:100F7000032000F0AFFB002000F008F806F08CFB27
:100F80000023184680BD00BF003C024080B582B0FF
:100F900000AF7860124B1A68124B1B7819464FF459
:100FA0007A73B3FBF1F3B2FBF3F3184600F0C7FB1F
:100FB0000346002B01D001230EE07B680F2B0AD8DB
:100FC000002279684FF0FF3000F08FFB064A7B6803
:100FD0001360002300E0012318460837BD4680BD9A
:100FE00008000020040000200000002080B400AFB2
:100FF000064B1B781A46064B1B681344044A1360C1
:1010000000BFBD465DF8047B704700BF04000020B0
:101010000402002080B400AF034B1B681846BD4695
:101020005DF8047B704700BF0402002080B584B0E7
:1010300000AF7860FFF7EEFFB8607B68FB60FB688D
:10104000B3F1FF3F05D0094B1B781A46FB681344E8
:10105000FB6000BFFFF7DEFF0246BB68D31AFA68E9
:101060009A42F7D800BF1037BD4680BD040000206B
:1010700080B584B000AF78600023FB737B68002BE1
:1010800001D1012333E07B681B6C002B09D1786808
:1010900006F046F87B6800225A647B68002283F8D9
:1010A0003C207B681B6C03F01003002B18D17B687D
:1010B0001B6C23F4885323F0020343F002027B6885
:1010C0001A64786800F03AF97B6800225A647B68F9
:1010D0001B6C23F0030343F001027B681A6401E0F8
:1010E0000123FB737B68002283F83C20FB7B1846BE
:1010F0001037BD4680BD000080B485B000AF786079
:1011000039600023BB607B6893F83C30012B01D130
:10111000022305E17B68012283F83C203B681B68C1
:10112000092B25D97B681B68D9683B681B689BB273
:101130001A4613465B0013441E3B072202FA03F3D0
:10114000DA437B681B680A40DA607B681B68D968F1
:101150003B689A683B681B689BB2184603465B0075
:1011600003441E3B9A407B681B680A43DA6022E016
:101170007B681B6819693B681B689BB21A4613465B
:101180005B001344072202FA03F3DA437B681B680F
:101190000A401A617B681B6819693B689A683B685A
:1011A0001B689BB2184603465B0003449A407B6869
:1011B0001B680A431A613B685B68062B24D87B686E
:1011C0001B68596B3B685A6813469B001344053BE8
:1011D0001F2202FA03F3DA437B681B680A405A6352
:1011E0007B681B68596B3B681B689BB218463B6861
:1011F0005A6813469B001344053B00FA03F27B68D0
:101200001B680A435A634CE03B685B680C2B24D88C
:101210007B681B68196B3B685A6813469B00134434
:10122000233B1F2202FA03F3DA437B681B680A4060
:101230001A637B681B68196B3B681B689BB2184676
:101240003B685A6813469B001344233B00FA03F2A1
:101250007B681B680A431A6323E07B681B68D96AB2
:101260003B685A6813469B001344413B1F2202FA15
:1012700003F3DA437B681B680A40DA627B681B6809
:10128000D96A3B681B689BB218463B685A6813468C
:101290009B001344413B00FA03F27B681B680A433E
:1012A000DA62224BFB607B681B68214A934209D1BA
:1012B0003B681B68122B05D1FB685B6843F4800216
:1012C000FB685A607B681B68194A934223D13B68CC
:1012D0001B68102B03D03B681B68112B1BD1FB68CC
:1012E0005B6843F40002FB685A603B681B68102B84
:1012F00011D1104B1B68104AA2FB03239A0C134612
:101300009B0013445B00BB6002E0BB68013BBB6019
:10131000BB68002BF9D17B68002283F83C200023B6
:1013200018461437BD465DF8047B70470023014022
:10133000002001400800002083DE1B4380B485B0FC
:1013400000AF7860794BFB60FB685B6823F4403248
:10135000FB685A60FB685A687B685B681A43FB68E5
:101360005A607B681B685A687B681B6822F480722D
:101370005A607B681B6859687B681B691A027B6826
:101380001B680A435A607B681B685A687B681B6845
:1013900022F040725A607B681B6859687B689A68C3
:1013A0007B681B680A435A607B681B689A687B6885
:1013B0001B6822F400629A607B681B6899687B68EE
:1013C000DA687B681B680A439A607B689B6A584AA4
:1013D000934222D07B681B689A687B681B6822F066
:1013E00070629A607B681B6899687B689A6A7B6800
:1013F0001B680A439A607B681B689A687B681B6855
:1014000022F040529A607B681B6899687B68DA6AB0
:101410007B681B680A439A600FE07B681B689A68C8
:101420007B681B6822F070629A607B681B689A6810
:101430007B681B6822F040529A607B681B689A6840
:101440007B681B6822F002029A607B681B689968BF
:101450007B681B7E5A007B681B680A439A607B6826
:1014600093F82030002B1BD07B681B685A687B6880
:101470001B6842F400625A607B681B685A687B688C
:101480001B6822F460425A607B681B6859687B685D
:101490005B6A013B5A037B681B680A435A6007E09A
:1014A0007B681B685A687B681B6822F400625A607C
:1014B0007B681B68DA6A7B681B6822F47002DA6258
:1014C0007B681B68D96A7B68DB69013B1A057B680E
:1014D0001B680A43DA627B681B689A687B681B6832
:1014E00022F400729A607B681B6899687B6893F8A5
:1014F00030305A027B681B680A439A607B681B681D
:101500009A687B681B6822F480629A607B681B681B
:1015100099687B685B699A027B681B680A439A60DA
:1015200000BF1437BD465DF8047B704700230140BF
:101530000100000F80B485B000AF78607B6803F0D5
:101540000703FB600C4BDB68BB60BA684FF6FF0318
:101550001340BB60FB681A02BB68134343F0BF63D0
:1015600043F40033BB60044ABB68D36000BF143748
:10157000BD465DF8047B704700ED00E080B400AF2D
:10158000044BDB681B0A03F007031846BD465DF8F1
:10159000047B704700ED00E080B483B000AF0346E9
:1015A000FB7197F90730002B0BDBFB7903F01F026F
:1015B000074997F907305B09012000FA02F241F868
:1015C000232000BF0C37BD465DF8047B704700BF89
:1015D00000E100E080B483B000AF03463960FB71E6
:1015E00097F90730002B0ADB3B68DAB20C4997F910
:1015F00007301201D2B20B4483F800230AE03B68A3
:10160000DAB20849FB7903F00F03043B1201D2B2AE
:101610000B441A7600BF0C37BD465DF8047B70475B
:1016200000E100E000ED00E080B489B000AFF860B8
:10163000B9607A60FB6803F00703FB61FB69C3F1E3
:101640000703042B28BF0423BB61FB690433062B6B
:1016500002D9FB69033B00E000237B614FF0FF32BE
:10166000BB6902FA03F3DA43BB681A407B699A400C
:101670004FF0FF317B6901FA03F3D9437B680B40DC
:10168000134318462437BD465DF8047B70470000BD
:1016900080B582B000AF78607B68013BB3F1807F9A
:1016A00001D301230FE00A4A7B68013B53600F21FD
:1016B0004FF0FF30FFF78EFF054B00229A60044B7E
:1016C00007221A60002318460837BD4680BD00BFB8
:1016D00010E000E080B582B000AF78607868FFF776
:1016E00029FF00BF0837BD4680BD80B586B000AF7A
:1016F0000346B9607A60FB7300237B61FFF73EFF0E
:1017000078617A68B9687869FFF78EFF024697F9C1
:101710000F3011461846FFF75DFF00BF1837BD4672
:1017200080BD80B582B000AF0346FB7197F90730EA
:101730001846FFF731FF00BF0837BD4680BD80B5B2
:1017400082B000AF78607868FFF7A2FF03461846C2
:101750000837BD4680BD000080B489B000AF786016
:10176000396000237B6100233B610023BB610023C0
:10177000FB616BE10122FB6902FA03F37B613B68C9
:101780001B687A6913403B613A697B699A4240F071
:101790005A813B685B68022B03D03B685B68122B65
:1017A00023D1FB69DA087B68083253F82230BB6129
:1017B000FB6903F007039B000F2202FA03F3DB43EC
:1017C000BA691340BB613B681A69FB6903F0070300
:1017D0009B0002FA03F3BA691343BB61FB69DA08A1
:1017E0007B680832B96943F822107B681B68BB61CB
:1017F000FB695B00032202FA03F3DB43BA6913407F
:10180000BB613B685B6803F00302FB695B0002FAA3
:1018100003F3BA691343BB617B68BA691A603B681A
:101820005B68012B0BD03B685B68022B07D03B68E1
:101830005B68112B03D03B685B68122B30D17B684F
:101840009B68BB61FB695B00032202FA03F3DB4385
:10185000BA691340BB613B68DA68FB695B0002FA56
:1018600003F3BA691343BB617B68BA699A607B680A
:101870005B68BB610122FB6902FA03F3DB43BA69CF
:101880001340BB613B685B681B0903F00102FB6905
:1018900002FA03F3BA691343BB617B68BA695A6001
:1018A0007B68DB68BB61FB695B00032202FA03F320
:1018B000DB43BA691340BB613B689A68FB695B0014
:1018C00002FA03F3BA691343BB617B68BA69DA6051
:1018D0003B685B6803F08053002B00F0B48000236A
:1018E000FB605F4B5B6C5E4A43F4804353645C4B2C
:1018F0005B6C03F48043FB60FB685A4AFB699B08FE
:10190000023352F82330BB61FB6903F003039B00F1
:101910000F2202FA03F3DB43BA691340BB617B6811
:10192000514A93422BD07B68504A934225D07B6822
:101930004F4A93421FD07B684E4A934219D07B682E
:101940004D4A934213D07B684C4A93420DD07B683A
:101950004B4A934207D07B684A4A934201D10723FE
:101960000EE008230CE006230AE0052308E0042328
:1019700006E0032304E0022302E0012300E0002349
:10198000FA6902F0030292009340BA691343BB6103
:101990003449FB699B080233BA6941F823203A4B6A
:1019A0001B68BB613B69DB43BA691340BB613B68A1
:1019B0005B6803F48033002B03D0BA693B6913439F
:1019C000BB61314ABB6913602F4B5B68BB613B69EC
:1019D000DB43BA691340BB613B685B6803F40033C7
:1019E000002B03D0BA693B691343BB61264ABB692C
:1019F0005360254B9B68BB613B69DB43BA6913406D
:101A0000BB613B685B6803F48013002B03D0BA69A9
:101A10003B691343BB611C4ABB6993601A4BDB688B
:101A2000BB613B69DB43BA691340BB613B685B68E0
:101A300003F40013002B03D0BA693B691343BB6165
:101A4000114ABB69D360FB690133FB61FB690F2B52
:101A50007FF690AE00BF2437BD465DF8047B70472B
:101A600000380240003801400000024000040240FB
:101A700000080240000C0240001002400014024026
:101A800000180240001C0240003C014080B483B0BA
:101A900000AF78600B467B8013467B707B78002B11
:101AA00003D07A887B689A6103E07B881A047B689C
:101AB0009A6100BF0C37BD465DF8047B704700009B
:101AC00080B586B000AF78607B68002B01D1012320
:101AD0002DE27B681B6803F00103002B75D0A34B3C
:101AE0009B6803F00C03042B0CD0A04B9B6803F005
:101AF0000C03082B12D19D4B5B6803F48003B3F5F4
:101B0000800F0BD1994B1B6803F40033002B5BD083
:101B10007B685B68002B57D1012308E27B685B6818
:101B2000B3F5803F06D1914B1B68904A43F4803354
:101B300013601DE07B685B68B3F5A02F0CD18B4B65
:101B40001B688A4A43F480231360884B1B68874ACA
:101B500043F4803313600BE0844B1B68834A23F407
:101B600080331360814B1B68804A23F48023136009
:101B70007B685B68002B13D0FFF74CFA386108E0F4
:101B8000FFF748FA02463B69D31A642B01D90323B5
:101B9000CDE1764B1B6803F40033002BF0D014E04A
:101BA000FFF738FA386108E0FFF734FA02463B697C
:101BB000D31A642B01D90323B9E16C4B1B6803F4DE
:101BC0000033002BF0D100E000BF7B681B6803F0FE
:101BD0000203002B63D0654B9B6803F00C03002BC2
:101BE0000BD0624B9B6803F00C03082B1CD15F4B9E
:101BF0005B6803F48003002B16D15C4B1B6803F079
:101C00000203002B05D07B68DB68012B01D0012388
:101C10008DE1564B1B6823F0F8027B681B69DB00E3
:101C2000524913430B603AE07B68DB68002B20D0FD
:101C30004F4B01221A60FFF7EDF9386108E0FFF71A
:101C4000E9F902463B69D31A022B01D903236EE15D
:101C5000464B1B6803F00203002BF0D0434B1B687C
:101C600023F0F8027B681B69DB00404913430B60DB
:101C700015E03F4B00221A60FFF7CCF9386108E00D
:101C8000FFF7C8F902463B69D31A022B01D9032397
:101C90004DE1364B1B6803F00203002BF0D17B684B
:101CA0001B6803F00803002B30D07B685B69002BB6
:101CB00016D0304B01221A60FFF7ACF9386108E00A
:101CC000FFF7A8F902463B69D31A022B01D9032377
:101CD0002DE1264B5B6F03F00203002BF0D015E0E3
:101CE000244B00221A60FFF795F9386108E0FFF7EE
:101CF00091F902463B69D31A022B01D9032316E15D
:101D00001A4B5B6F03F00203002BF0D17B681B685A
:101D100003F00403002B00F0A0800023FB75134B9D
:101D20001B6C03F08053002B0FD10023FB600F4B83
:101D30001B6C0E4A43F0805313640C4B1B6C03F076
:101D40008053FB60FB680123FB750B4B1B6803F49E
:101D50008073002B21D1084B1B68074A43F4807322
:101D60001360FFF757F9386111E000BF00380240F7
:101D700000004742800E474200700040FFF74AF9DA
:101D800002463B69D31A022B01D90323CFE06A4BE9
:101D90001B6803F48073002BF0D07B689B68012BD9
:101DA00006D1664B1B6F654A43F0010313671CE0C5
:101DB0007B689B68052B0CD1604B1B6F5F4A43F01F
:101DC000040313675D4B1B6F5C4A43F00103136709
:101DD0000BE05A4B1B6F594A23F001031367574B13
:101DE0001B6F564A23F0040313677B689B68002B24
:101DF00015D0FFF70FF938610AE0FFF70BF902463B
:101E00003B69D31A41F28832934201D903238EE011
:101E10004A4B1B6F03F00203002BEED014E0FFF7D8
:101E2000F9F838610AE0FFF7F5F802463B69D31A82
:101E300041F28832934201D9032378E03F4B1B6F74
:101E400003F00203002BEED1FB7D012B05D13B4BB0
:101E50001B6C3A4A23F0805313647B689B69002B08
:101E600064D0364B9B6803F00C03082B5CD07B6876
:101E70009B69022B41D1324B00221A60FFF7CAF84E
:101E8000386108E0FFF7C6F802463B69D31A022B17
:101E900001D903234BE0294B1B6803F00073002B8F
:101EA000F0D17B68DA697B681B6A1A437B685B6ADE
:101EB0009B011A437B689B6A5B08013B1B041A4326
:101EC0007B68DB6A1B061D4913434B601C4B0122D8
:101ED0001A60FFF79FF8386108E0FFF79BF80246A9
:101EE0003B69D31A022B01D9032320E0134B1B6853
:101EF00003F00073002BF0D018E0114B00221A60A1
:101F0000FFF788F8386108E0FFF784F802463B697C
:101F1000D31A022B01D9032309E0084B1B6803F0F5
:101F20000073002BF0D101E0012300E000231846EC
:101F30001837BD4680BD00BF007000400038024029
:101F40006000474280B584B000AF786039607B683C
:101F5000002B01D10123CAE0674B1B6803F00F037C
:101F60003A689A420CD9644B3A68D2B21A70624B02
:101F70001B6803F00F033A689A4201D00123B6E0D0
:101F80007B681B6803F00203002B20D07B681B6872
:101F900003F00403002B05D0584B9B68574A43F4C9
:101FA000E05393607B681B6803F00803002B05D0A7
:101FB000524B9B68514A43F4604393604F4B9B687C
:101FC00023F0F0027B689B684C4913438B607B686D
:101FD0001B6803F00103002B44D07B685B68012B76
:101FE00007D1464B1B6803F40033002B19D10123A2
:101FF0007DE07B685B68022B03D07B685B68032B0A
:1020000007D13E4B1B6803F00073002B09D101235D
:102010006DE03A4B1B6803F00203002B01D1012352
:1020200065E0364B9B6823F003027B685B683349AD
:1020300013438B60FEF7EEFFF8600AE0FEF7EAFF5D
:102040000246FB68D31A41F28832934201D9032336
:102050004DE02A4B9B6803F00C027B685B689B0099
:102060009A42EBD1244B1B6803F00F033A689A4263
:102070000CD2214B3A68D2B21A701F4B1B6803F086
:102080000F033A689A4201D0012330E07B681B6855
:1020900003F00403002B08D0184B9B6823F4E05294
:1020A0007B68DB68154913438B607B681B6803F012
:1020B0000803002B09D0114B9B6823F460427B6816
:1020C0001B69DB000D4913438B6000F01DF80146CE
:1020D0000A4B9B681B0903F00F03094AD35C21FAE2
:1020E00003F3084A13600020FEF750FF0023184650
:1020F0001037BD4680BD00BF003C024000380240A2
:10210000E4AC000808000020F0B585B000AF002363
:102110007B600023FB6000233B600023BB60504BCF
:102120009B6803F00C03042B07D0082B08D0002B6E
:1021300040F08D804B4BBB608CE04B4BBB6089E02B
:10214000474B5B6803F03F037B60454B5B6803F4E0
:102150008003002B23D0424B5B689B094FF00004A7
:1021600040F2FF114FF0000203EA010504EA020603
:102170003D4A02FB06F1002202FB05F20A443A49FD
:10218000A5FB0101531819467B684FF000041A465D
:102190002346FEF759FD03460C46FB6049E0304BF1
:1021A0005B689B094FF0000440F2FF114FF0000202
:1021B00003EA010504EA0206294632464FF000030D
:1021C0004FF00004540144EAD1644B011946224601
:1021D000491B62EB06024FF000034FF0000494012C
:1021E00044EA91648B015B1A64EB02044FF0000136
:1021F0004FF00002E20042EA5372D9000B46144647
:102200005B1944EB06044FF000014FF00002A202FC
:1022100042EA935299020B461446184621467B68BF
:102220004FF000041A462346FEF70EFD03460C4607
:10223000FB600B4B5B681B0C03F0030301335B007B
:102240003B60FA683B68B2FBF3F3BB6002E0054B0E
:10225000BB6000BFBB6818461437BD46F0BD00BF69
:10226000003802400024F40040787D0180B400AFC3
:10227000034B1B681846BD465DF8047B704700BFE2
:102280000800002080B500AFFFF7F0FF0146054BC6
:102290009B689B0A03F00703034AD35C21FA03F30C
:1022A000184680BD00380240F4AC000880B500AF8D
:1022B000FFF7DCFF0146054B9B685B0B03F0070350
:1022C000034AD35C21FA03F3184680BD003802406C
:1022D000F4AC000880B582B000AF78607B68002B5A
:1022E00001D1012356E07B6800229A627B6893F853
:1022F0005130DBB2002B06D17B68002283F85020DE
:10230000786805F025F97B68022283F851207B6804
:102310001B681A687B681B6822F040021A607B68A1
:102320005A687B689B681A437B68DB681A437B6842
:102330001B691A437B685B691A437B689B6903F4DA
:1023400000731A437B68DB691A437B681B6A42EAA5
:1023500003017B689A6A7B681B680A431A607B6882
:102360009B691B0C03F004017B685A6A7B681B683D
:102370000A435A607B681B68DA697B681B6822F431
:102380000062DA617B6800225A657B68012283F86B
:102390005120002318460837BD4680BD80B58CB05B
:1023A00000AFF860B9607A607B800123FB62002394
:1023B00087F82B30FB6893F85030012B01D10223B2
:1023C0008AE1FB68012283F85020FEF723FE786241
:1023D000FB6893F8513087F82330FB685B68FB613A
:1023E0007B887B8397F82330012B0FD0FB69B3F5F3
:1023F000827F07D1FB689B68002B03D197F82330BD
:10240000042B03D0022387F82B305BE1BB68002B41
:1024100005D07B68002B02D07B88002B03D10123E1
:1024200087F82B304EE1FB6893F85130DBB2042B78
:1024300003D0FB68052283F85120FB6800225A650F
:10244000FB687A689A63FB687A88DA87FB687A881F
:102450009A87FB68BA681A63FB687A88DA86FB6831
:102460007A889A86FB6800221A64FB6800225A6404
:10247000FB681B681B6803F04003402B07D0FB6818
:102480001B681A68FB681B6842F040021A60FB6810
:10249000DB68B3F5006F78D1FB685B68002B02D076
:1024A0007B8B012B66D1FB681B6B1A88FB681B6852
:1024B000DA60FB681B6B9A1CFB681A63FB68DB8E97
:1024C0009BB2013B9AB2FB68DA8653E0FB681B685B
:1024D0009B6803F00203022B1BD1FB68DB8E9BB2CF
:1024E000002B16D0FB6A012B13D1FB681B6B1A88DB
:1024F000FB681B68DA60FB681B6B9A1CFB681A633D
:10250000FB68DB8E9BB2013B9AB2FB68DA86002344
:10251000FB62FB681B689B6803F00103012B19D168
:10252000FB68DB8F9BB2002B14D0FB681B68DA685A
:10253000FB689B6B92B21A80FB689B6B9A1CFB68D2
:102540009A63FB68DB8F9BB2013B9AB2FB68DA8728
:102550000123FB62FEF75EFD02467B6AD31ABA6B6B
:102560009A4207D8BB6BB3F1FF3F03D0032387F830
:102570002B30A7E0FB68DB8E9BB2002BA6D1FB685B
:10258000DB8F9BB2002BA1D17CE0FB685B68002B4A
:1025900002D07B8B012B6BD1FB681A6BFB681B682D
:1025A0000C3312781A70FB681B6B5A1CFB681A6399
:1025B000FB68DB8E9BB2013B9AB2FB68DA8657E080
:1025C000FB681B689B6803F00203022B1CD1FB68AD
:1025D000DB8E9BB2002B17D0FB6A012B14D1FB685A
:1025E0001A6BFB681B680C3312781A70FB681B6B44
:1025F0005A1CFB681A63FB68DB8E9BB2013B9AB2E4
:10260000FB68DA860023FB62FB681B689B6803F0AB
:102610000103012B19D1FB68DB8F9BB2002B14D077
:10262000FB681B68DA68FB689B6BD2B21A70FB68A8
:102630009B6B5A1CFB689A63FB68DB8F9BB2013B68
:102640009AB2FB68DA870123FB62FEF7E3FC0246DD
:102650007B6AD31ABA6B9A4203D8BB6BB3F1FF3FC4
:1026600002D1BB6B002B03D1032387F82B3029E069
:10267000FB68DB8E9BB2002BA2D1FB68DB8F9BB289
:10268000002B9DD17A6AB96BF86800F093F8034685
:10269000002B06D0012387F82B30FB6820225A65D7
:1026A00010E0FB689B68002B0BD100237B61FB686B
:1026B0001B68DB687B61FB681B689B687B617B69CF
:1026C00000E000BFFB68012283F85120FB68002274
:1026D00083F8502097F82B3018463037BD4680BD20
:1026E00080B584B000AFF860B9603B601346FB7101
:1026F0004CE03B68B3F1FF3F48D0FEF78BFC02464D
:10270000BB69D31A3A689A4202D93B68002B3DD183
:10271000FB681B685A68FB681B6822F0E0025A607D
:10272000FB685B68B3F5827F11D1FB689B68B3F5EA
:10273000004F04D0FB689B68B3F5806F07D1FB683E
:102740001B681A68FB681B6822F040021A60FB686D
:102750009B6AB3F5005F0FD1FB681B681A68FB68C2
:102760001B6822F400521A60FB681B681A68FB6839
:102770001B6842F400521A60FB68012283F8512062
:10278000FB68002283F8502003230FE0FB681B68DE
:102790009A68BB681340BA689A420CBF01230023B1
:1027A000DBB21A46FB799A42A3D1002318461037B0
:1027B000BD4680BD80B588B002AFF860B9607A6070
:1027C0001B4B1B681B4AA2FB03235B0D4FF47A7261
:1027D00002FB03F37B61FB685B68B3F5827F12D178
:1027E0007B680093BB6800228021F868FFF778FFC0
:1027F0000346002B16D0FB685B6D43F02002FB689C
:102800005A6503230FE07B69002B0AD07B69013BEB
:102810007B61FB681B689B6803F08003802BF2D010
:1028200000E000BF002318461837BD4680BD00BF3A
:1028300008000020819F5E1680B582B000AF7860EE
:102840007B68002B01D101231DE07B6893F83D30AC
:10285000DBB2002B06D17B68002283F83C2078682D
:1028600005F0A0FB7B68022283F83D207B681A6894
:102870007B6804331946104600F0D0FB7B680122C8
:1028800083F83D20002318460837BD4680BD80B53B
:1028900082B000AF78607B68002B01D101231DE07E
:1028A0007B6893F83D30DBB2002B06D17B680022B9
:1028B00083F83C20786805F0ABFA7B68022283F845
:1028C0003D207B681A687B6804331946104600F087
:1028D000A5FB7B68012283F83D20002318460837BA
:1028E000BD4680BD80B584B000AF786039607B683C
:1028F0001B6801223968184600F0E0FD7B681B6800
:10290000154A934204D07B681B68144A934201D154
:10291000012300E00023002B07D07B681B685A6C62
:102920007B681B6842F400425A647B681B689B68A2
:1029300003F00703FB60FB68062B07D07B681B686E
:102940001A687B681B6842F001021A60002318466F
:102950001037BD4680BD00BF0000014000040140AB
:1029600080B582B000AF786039607B681B68002258
:102970003968184600F0A2FD7B681B68224A934222
:1029800004D07B681B68214A934201D1012300E0F7
:102990000023002B17D07B681B681A6A41F21113C1
:1029A0001340002B0FD17B681B681A6A40F2444326
:1029B0001340002B07D17B681B685A6C7B681B682F
:1029C00022F400425A647B681B681A6A41F21113B0
:1029D0001340002B0FD17B681B681A6A40F24443F6
:1029E0001340002B07D17B681B681A687B681B6843
:1029F00022F001021A607B68012283F83D20002347
:102A000018460837BD4680BD000001400004014063
:102A100080B586B000AF786039607B68002B01D14B
:102A2000012383E07B6893F83D30DBB2002B06D1B5
:102A30007B68002283F83C20786805F035FA7B68D3
:102A4000022283F83D207B681B689B687A681268C5
:102A500023F4804323F0070393607B681A687B6844
:102A600004331946104600F0D9FA7B681B689B684E
:102A70007B617B681B689B693B617B681B681B6A89
:102A8000FB603B681B687A6913437B613B6923F4F5
:102A9000407323F003033B613B689A683B689B6982
:102AA0001B0213433A6913433B613B6923F44063C0
:102AB00023F00C033B613B6923F4704323F0F003E4
:102AC0003B613B68DA683B68DB691B0213433A6988
:102AD00013433B613B681B691A013B681B6A1B037C
:102AE00013433A6913433B61FB6823F02203FB6005
:102AF000FB6823F08803FB603B685A683B685B69AE
:102B00001B011343FA681343FB607B681B687A69F7
:102B10009A607B681B683A699A617B681B68FA68EF
:102B20001A627B68012283F83D200023184618377B
:102B3000BD4680BD80B582B000AF786039603B682B
:102B4000002B02D0042B08D00FE07B681B68012209
:102B50000021184600F0B2FC16E07B681B680122D9
:102B60000421184600F0AAFC0EE07B681B680122D5
:102B70000021184600F0A2FC7B681B68012204219A
:102B8000184600F09BFC00BF7B681B681A687B68D6
:102B90001B6842F001021A60002318460837BD4640
:102BA00080BD80B582B000AF786039603B68002B93
:102BB00002D0042B08D00FE07B681B6800220021A4
:102BC000184600F07BFC16E07B681B68002204219D
:102BD000184600F073FC0EE07B681B6800220021A1
:102BE000184600F06BFC7B681B6800220421184625
:102BF00000F064FC00BF7B681B681A6A41F2111385
:102C00001340002B0FD17B681B681A6A40F24443C3
:102C10001340002B07D17B681B681A687B681B6810
:102C200022F001021A60002318460837BD4680BD15
:102C300080B582B000AF78607B681B681B6903F0C9
:102C40000203022B22D17B681B68DB6803F00203BE
:102C5000022B1BD17B681B686FF002021A617B6834
:102C600001221A777B681B689B6903F00303002B22
:102C700003D0786800F0B4F905E0786800F0A6F9B0
:102C8000786800F0B7F97B6800221A777B681B68C8
:102C90001B6903F00403042B22D17B681B68DB68EB
:102CA00003F00403042B1BD17B681B686FF0040244
:102CB0001A617B6802221A777B681B689B6903F4A0
:102CC0004073002B03D0786800F08AF905E078683B
:102CD00000F07CF9786800F08DF97B6800221A77A3
:102CE0007B681B681B6903F00803082B22D17B68F3
:102CF0001B68DB6803F00803082B1BD17B681B688B
:102D00006FF008021A617B6804221A777B681B68DF
:102D1000DB6903F00303002B03D0786800F060F94F
:102D200005E0786800F052F9786800F063F97B6894
:102D300000221A777B681B681B6903F01003102BB5
:102D400022D17B681B68DB6803F01003102B1BD1BA
:102D50007B681B686FF010021A617B6808221A7783
:102D60007B681B68DB6903F44073002B03D0786831
:102D700000F036F905E0786800F028F9786800F08E
:102D800039F97B6800221A777B681B681B6903F09E
:102D90000103012B0ED17B681B68DB6803F0010384
:102DA000012B07D17B681B686FF001021A617868FC
:102DB00002F0EAF97B681B681B6903F08003802B33
:102DC0000ED17B681B68DB6803F08003802B07D182
:102DD0007B681B686FF080021A61786800F034FC31
:102DE0007B681B681B6903F04003402B0ED17B6896
:102DF0001B68DB6803F04003402B07D17B681B682E
:102E00006FF040021A61786800F0FEF87B681B687A
:102E10001B6903F02003202B0ED17B681B68DB6845
:102E200003F02003202B07D17B681B686FF0200282
:102E30001A61786800F0FEFB00BF0837BD4680BD10
:102E400080B584B000AFF860B9607A60FB6893F831
:102E50003C30012B01D10223B4E0FB68012283F84E
:102E60003C20FB68022283F83D207B680C2B00F29B
:102E70009F8001A252F823F0AD2E0008B12F000868
:102E8000B12F0008B12F0008ED2E0008B12F000867
:102E9000B12F0008B12F00082F2F0008B12F000814
:102EA000B12F0008B12F00086F2F0008FB681B68C6
:102EB000B968184600F052F9FB681B689A69FB680C
:102EC0001B6842F008029A61FB681B689A69FB68FC
:102ED0001B6822F004029A61FB681B689969BB6851
:102EE0001A69FB681B680A439A6162E0FB681B6809
:102EF000B968184600F0A2F9FB681B689A69FB687C
:102F00001B6842F400629A61FB681B689A69FB685F
:102F10001B6822F480629A61FB681B689969BB6830
:102F20001B691A02FB681B680A439A6141E0FB684F
:102F30001B68B968184600F0F7F9FB681B68DA6986
:102F4000FB681B6842F00802DA61FB681B68DA69FB
:102F5000FB681B6822F00402DA61FB681B68D96910
:102F6000BB681A69FB681B680A43DA6121E0FB68E9
:102F70001B68B968184600F04BFAFB681B68DA69F1
:102F8000FB681B6842F40062DA61FB681B68DA695F
:102F9000FB681B6822F48062DA61FB681B68D969F0
:102FA000BB681B691A02FB681B680A43DA6100E010
:102FB00000BFFB68012283F83D20FB68002283F8F4
:102FC0003C20002318461037BD4680BD80B483B036
:102FD00000AF786000BF0C37BD465DF8047B7047DA
:102FE00080B483B000AF786000BF0C37BD465DF899
:102FF000047B704780B483B000AF786000BF0C37AB
:10300000BD465DF8047B704780B483B000AF786044
:1030100000BF0C37BD465DF8047B704780B485B0B7
:1030200000AF786039607B681B68FB607B68404A52
:10303000934213D07B68B3F1804F0FD07B683D4A39
:1030400093420BD07B683C4A934207D07B683B4A53
:10305000934203D07B683A4A934208D1FB6823F03D
:103060007003FB603B685B68FA681343FB607B6836
:103070002F4A93422BD07B68B3F1804F27D07B68D7
:103080002C4A934223D07B682B4A93421FD07B6803
:103090002A4A93421BD07B68294A934217D07B6807
:1030A000284A934213D07B68274A93420FD07B680B
:1030B000264A93420BD07B68254A934207D07B680F
:1030C000244A934203D07B68234A934208D1FB6889
:1030D00023F44073FB603B68DB68FA681343FB60D2
:1030E000FB6823F080023B685B691343FB607B68ED
:1030F000FA681A603B689A687B68DA623B681A680B
:103100007B689A627B680A4A934203D07B680C4AC8
:10311000934203D13B681A697B681A637B6801227A
:103120005A6100BF1437BD465DF8047B704700BF8D
:10313000000001400004004000080040000C004076
:1031400000040140004001400044014000480140AB
:1031500000180040001C00400020004080B487B0F0
:1031600000AF786039607B681B6A23F001027B68DE
:103170001A627B681B6A7B617B685B683B617B686A
:103180009B69FB60FB6823F07003FB60FB6823F026
:103190000303FB603B681B68FA681343FB607B69B1
:1031A00023F002037B613B689B687A6913437B6170
:1031B0007B68204A934203D07B681F4A93420CD11C
:1031C0007B6923F008037B613B68DB687A69134302
:1031D0007B617B6923F004037B617B68154A934222
:1031E00003D07B68144A934211D13B6923F4807366
:1031F0003B613B6923F400733B613B685B693A695F
:1032000013433B613B689B693A6913433B617B68AD
:103210003A695A607B68FA689A613B685A687B68C9
:103220005A637B687A691A6200BF1C37BD465DF835
:10323000047B7047000001400004014080B487B067
:1032400000AF786039607B681B6A23F010027B68EE
:103250001A627B681B6A7B617B685B683B617B6889
:103260009B69FB60FB6823F4E043FB60FB6823F48D
:103270004073FB603B681B681B02FA681343FB60EA
:103280007B6923F020037B613B689B681B017A69A3
:1032900013437B617B68224A934203D07B68214AB7
:1032A00093420DD17B6923F080037B613B68DB682F
:1032B0001B017A6913437B617B6923F040037B61C7
:1032C0007B68174A934203D07B68164A934213D116
:1032D0003B6923F480633B613B6923F400633B61FA
:1032E0003B685B699B003A6913433B613B689B69A0
:1032F0009B003A6913433B617B683A695A607B687B
:10330000FA689A613B685A687B689A637B687A6955
:103310001A6200BF1C37BD465DF8047B704700BFD2
:10332000000001400004014080B487B000AF786025
:1033300039607B681B6A23F480727B681A627B6841
:103340001B6A7B617B685B683B617B68DB69FB6058
:10335000FB6823F07003FB60FB6823F00303FB6052
:103360003B681B68FA681343FB607B6923F40073B6
:103370007B613B689B681B027A6913437B617B68B6
:10338000214A934203D07B68204A93420DD17B6946
:1033900023F400637B613B68DB681B027A6913439B
:1033A0007B617B6923F480637B617B68164A93426F
:1033B00003D07B68154A934213D13B6923F48053B1
:1033C0003B613B6923F400533B613B685B691B0134
:1033D0003A6913433B613B689B691B013A6913439C
:1033E0003B617B683A695A607B68FA68DA613B68DE
:1033F0005A687B68DA637B687A691A6200BF1C3797
:10340000BD465DF8047B70470000014000040140A8
:1034100080B487B000AF786039607B681B6A23F4A2
:1034200080527B681A627B681B6A3B617B685B68C1
:103430007B617B68DB69FB60FB6823F4E043FB6036
:10344000FB6823F44073FB603B681B681B02FA684F
:103450001343FB603B6923F400533B613B689B686B
:103460001B033A6913433B617B68124A934203D0C2
:103470007B68114A934209D17B6923F480437B61C5
:103480003B685B699B017A6913437B617B687A695E
:103490005A607B68FA68DA613B685A687B681A642C
:1034A0007B683A691A6200BF1C37BD465DF8047B31
:1034B000704700BF000001400004014080B487B0A5
:1034C00000AFF860B9607A60BB6803F01F030122A7
:1034D00002FA03F37B61FB681A6A7B69DB431A40DB
:1034E000FB681A62FB681A6ABB6803F01F037968FD
:1034F00001FA03F31A43FB681A6200BF1C37BD468A
:103500005DF8047B704780B485B000AF78603960A7
:103510007B6893F83C30012B01D1022332E07B68B9
:10352000012283F83C207B68022283F83D207B68DF
:103530001B685B68FB607B681B689B68BB60FB6803
:1035400023F07003FB603B681B68FA681343FB6061
:10355000BB6823F08003BB603B685B68BA681343B9
:10356000BB607B681B68FA685A607B681B68BA6836
:103570009A607B68012283F83D207B68002283F8F3
:103580003C20002318461437BD465DF8047B704785
:1035900080B485B000AF786039600023FB607B6841
:1035A00093F83C30012B01D102233DE07B680122DE
:1035B00083F83C20FB6823F0FF023B68DB68134381
:1035C000FB60FB6823F440723B689B681343FB601D
:1035D000FB6823F480623B685B681343FB60FB6815
:1035E00023F400623B681B681343FB60FB6823F411
:1035F00080523B681B691343FB60FB6823F4005255
:103600003B685B691343FB60FB6823F480423B68C3
:10361000DB691343FB607B681B68FA685A647B684C
:10362000002283F83C20002318461437BD465DF87D
:10363000047B704780B483B000AF786000BF0C3764
:10364000BD465DF8047B704780B483B000AF7860FE
:1036500000BF0C37BD465DF8047B704780B582B073
:1036600000AF78607B68002B01D101233FE07B68CD
:1036700093F83930DBB2002B06D17B68002283F847
:103680003820786804F0A6FD7B68242283F839206E
:103690007B681B68DA687B681B6822F40052DA607A
:1036A000786800F00BF97B681B681A697B681B68F7
:1036B00022F490421A617B681B685A697B681B6818
:1036C00022F02A025A617B681B68DA687B681B68F3
:1036D00042F40052DA607B680022DA637B682022C1
:1036E00083F839207B68202283F83A20002318468B
:1036F0000837BD4680BD80B588B002AFF860B960BC
:103700003B601346FB8000237B61FB6893F83930F4
:10371000DBB2202B40F08380BB68002B02D0FB88FB
:10372000002B01D101237BE0FB6893F83830012B9B
:1037300001D1022374E0FB68012283F83820FB6882
:103740000022DA63FB68212283F83920FDF762FC4E
:103750007861FB68FA889A84FB68FA88DA8442E028
:10376000FB68DB8C9BB2013B9AB2FB68DA84FB6896
:103770009B68B3F5805F22D13B6800937B69002290
:103780008021F86800F050F80346002B01D0032395
:1037900046E0BB683B613B691B881A46FB681B68B7
:1037A000C2F308025A60FB681B69002B03D1BB6897
:1037B0000233BB6017E0BB680133BB6013E03B68BA
:1037C00000937B6900228021F86800F02DF8034601
:1037D000002B01D0032323E0BB685A1CBA601A787F
:1037E000FB681B685A60FB68DB8C9BB2002BB7D16F
:1037F0003B6800937B6900224021F86800F014F8D0
:103800000346002B01D003230AE0FB68202283F843
:103810003920FB68002283F83820002300E00223CF
:1038200018461837BD4680BD80B584B000AFF8603B
:10383000B9603B601346FB712CE0BB69B3F1FF3FFD
:1038400028D0BB69002B07D0FDF7E4FB02463B689C
:10385000D31ABA699A421DD2FB681B68DA68FB6802
:103860001B6822F4D072DA60FB681B685A69FB6837
:103870001B6822F001025A61FB68202283F839207C
:10388000FB68202283F83A20FB68002283F8382066
:1038900003230FE0FB681B681A68BB681340BA6813
:1038A0009A420CBF01230023DBB21A46FB799A42ED
:1038B000C3D0002318461037BD4680BDB0B584B0D4
:1038C00000AF78607B681B681B6923F440517B68FC
:1038D000DA687B681B680A431A617B689A687B68B0
:1038E0001B691A437B685B691A437B68DB69134376
:1038F000FB607B681B68DB6823F4164323F00C0332
:103900007A681268F9680B43D3607B681B685B694F
:1039100023F440717B689A697B681B680A435A618B
:103920007B68DB69B3F5004F40F0E4807B681B687F
:10393000AB4A934204D07B681B68AA4A93426CD17D
:10394000FEF7B4FC024613469B0013449A001A4447
:103950007B685B685B00B2FBF3F3A34AA2FB032323
:103960005B091C01FEF7A2FC024613469B001344B0
:103970009A001A447B685B685B00B2FBF3F5FEF7C4
:1039800095FC024613469B0013449A001A447B6838
:103990005B685B00B2FBF3F3934AA2FB03235B0972
:1039A000642202FB03F3EB1ADB0032338E4AA2FBE4
:1039B00003235B095B0003F4F8731C44FEF776FCF9
:1039C000024613469B0013449A001A447B685B68C6
:1039D0005B00B2FBF3F5FEF769FC024613469B0061
:1039E00013449A001A447B685B685B00B2FBF3F3F4
:1039F0007D4AA2FB03235B09642202FB03F3EB1A5B
:103A0000DB003233784AA2FB03235B0903F0070291
:103A10007B681B6822449A6054E1FEF733FC02463F
:103A200013469B0013449A001A447B685B685B0052
:103A3000B2FBF3F36C4AA2FB03235B091C01FEF704
:103A400021FC024613469B0013449A001A447B68EB
:103A50005B685B00B2FBF3F5FEF714FC024613460D
:103A60009B0013449A001A447B685B685B00B2FBBE
:103A7000F3F35D4AA2FB03235B09642202FB03F319
:103A8000EB1ADB003233584AA2FB03235B095B00CD
:103A900003F4F8731C44FEF7F5FB024613469B0043
:103AA00013449A001A447B685B685B00B2FBF3F531
:103AB000FEF7E8FB024613469B0013449A001A44A3
:103AC0007B685B685B00B2FBF3F3474AA2FB03230E
:103AD0005B09642202FB03F3EB1ADB003233424A38
:103AE000A2FB03235B0903F007027B681B682244E7
:103AF0009A60E7E07B681B68394A934204D07B6890
:103B00001B68384A934271D1FEF7D0FB0246134638
:103B10009B0013449A001A447B685B689B00B2FBCD
:103B2000F3F3314AA2FB03235B091C01FEF7BEFB42
:103B3000024613469B0013449A001A447B685B6854
:103B40009B00B2FBF3F5FEF7B1FB024613469B0068
:103B500013449A001A447B685B689B00B2FBF3F342
:103B6000214AA2FB03235B09642202FB03F3EB1A45
:103B70001B0132331C4AA2FB03235B0903F0F00351
:103B80001C44FEF793FB024613469B0013449A0025
:103B90001A447B685B689B00B2FBF3F5FEF786FB7B
:103BA000024613469B0013449A001A447B685B68E4
:103BB0009B00B2FBF3F30C4AA2FB03235B096422D4
:103BC00002FB03F3EB1A1B013233074AA2FB032368
:103BD0005B0903F00F027B681B6822449A6071E066
:103BE00000100140001401401F85EB51FEF74AFB15
:103BF000024613469B0013449A001A447B685B6894
:103C00009B00B2FBF3F3314AA2FB03235B091C01C7
:103C1000FEF738FB024613469B0013449A001A44F1
:103C20007B685B689B00B2FBF3F5FEF72BFB02465B
:103C300013469B0013449A001A447B685B689B0000
:103C4000B2FBF3F3214AA2FB03235B09642202FBCC
:103C500003F3EB1A1B0132331C4AA2FB03235B095B
:103C600003F0F0031C44FEF70DFB024613469B00D5
:103C700013449A001A447B685B689B00B2FBF3F51F
:103C8000FEF700FB024613469B0013449A001A44B9
:103C90007B685B689B00B2FBF3F30C4AA2FB032337
:103CA0005B09642202FB03F3EB1A1B013233074A60
:103CB000A2FB03235B0903F00F027B681B6822440D
:103CC0009A60FFE700BF1037BD46B0BD1F85EB51BE
:103CD00080B582B000AF78607868FDF7A7F900BFC3
:103CE0000837BD4680BD000080B586B000AF786063
:103CF0000023FB820023BB827B6800221A70364BB4
:103D000000225A62354B00225A62354804F062FFA5
:103D10003C213448FEF70EFF3C213348FEF70AFFF2
:103D2000FB8A7B822C4B5B6A3B822C4B5B6AFB8160
:103D3000FB892E4AA2FB03231B0BFB823B8A2C4AE6
:103D4000A2FB03235B0BBB82FB8ADAB27B681A708F
:103D5000786801F0EFFBFA8A7B8A9A4212D07B687E
:103D60001B781946234804F035FF7B681B781A46F8
:103D700013461B019B1A9B0003F21643642118464D
:103D800000F03CF8BB8A012BCAD17B681B7819462E
:103D9000194804F01FFF7B681B781A4613461B0165
:103DA0009B1A9B0003F216434FF4FA71184600F079
:103DB00025F83C210B48FEF7F4FE3C210A48FEF7AB
:103DC000F0FE054B00225A62044B00225A6200BFEB
:103DD0001837BD4680BD00BF000400400008004009
:103DE000B8AB00081C080020DC070020A9D9DAF3D2
:103DF00073B2E745C4AB0008D0AB000880B58AB009
:103E000000AF78603960284B284A1A60264B40F290
:103E100047325A60244B00229A60254A7B68B2FBE5
:103E2000F3F3214AD360204B00221A611E4B00227B
:103E30005A611D4B00229A616023FB601D4A7B681A
:103E4000B2FBF3F33B6100237B610023FB61164867
:103E5000FEF71DFD0346002B01D003F03BFB07F1ED
:103E60000C030C2219461048FEF7EAFF0346002B0C
:103E700001D003F02FFB0C210B48FEF733FD034666
:103E8000002B01D003F026FB3868FDF7CFF80C219A
:103E90000548FEF765FD0346002B01D003F01AFB31
:103EA00000BF2837BD4680BD9C07002000040140AC
:103EB000A08601001873010080B500AF114804F01E
:103EC000FDFE114B1B881BB240F6B8329342F8DD61
:103ED0004FF4967140F22650FFF790FF4FF4967121
:103EE00040F27550FFF78AFF4FF496714FF4C460AB
:103EF000FFF784FF4FF47A70FFF7EAFE00BF00BFC0
:103F000080BD00BFF0AB0008F405002080B500AF15
:103F100002F024FE0F4A13786FF3C303137002F00C
:103F200089FD002000F0FAFE4FF47A7140F216404D
:103F3000FFF764FFDFED080A9FED080A00F054F870
:103F4000074B00221A809FED070A00F07DFA00BFA0
:103F500080BD00BF100700209A99193F9A99993E99
:103F6000120700200000584284B090B400AF07F15F
:103F7000080484E80F00BB68074A1360FB68064A20
:103F800053603B69044A93607B69034AD36000BF76
:103F9000BD4690BC04B070479404002084B090B437
:103FA00000AF07F1080484E80F00BB680D4A1360F6
:103FB0003B690C4A9360FB680A4A53607B69094A73
:103FC000D360BB69074A1361FB69064A53613B6AC8
:103FD000044A93617B6A034AD36100BFBD4690BC2B
:103FE00004B07047D803002080B584B002AF87EDDD
:103FF000010AC7ED000A1F4B9B881BB207EE903ADF
:10400000B8EEE77AD7ED017A67EE277AFCEEE77A29
:1040100017EE903A9AB2174B5A81174B64225A8185
:10402000164B9B881BB207EE903AB8EEE77AD7EDB5
:10403000007A67EE277AFCEEE77A17EE903A9AB2AA
:104040000E4B5A810B4B5B899BB219460B4B5B891C
:104050009BB21A46074B9B881BB21846074B9B889E
:104060001BB200930346064804F0B4FD00BF0837B6
:10407000BD4680BD70040020F4050020240400200B
:10408000FCAB000880B400AF0B4B4FF00002DA60CD
:104090000A4B4FF00002DA60094B4FF000029A61C0
:1040A000054B00229A60054B00229A6000BFBD4676
:1040B0005DF8047B704700BF000700205804002013
:1040C0002407002080B582B000AF752003F088FA85
:1040D0000346FB71FB791946164804F07BFDFB791A
:1040E000982B0ED0752003F07BFA0346FB7105E098
:1040F000114804F0E3FD6420FCF798FFFB79982B4E
:10410000F6D10E4804F0DAFD00216B2003F098FA96
:104110000A20FCF78BFF00211A2003F091FA0A20F5
:10412000FCF784FF18211B2003F08AFA00BF083730
:10413000BD4680BD20AC000834AC000840AC00088F
:1041400090B583B000AF472003F04AFA03461B0244
:104150001CB2482003F044FA03461BB22343FB8001
:10416000B7F9063007EE903AB8EEE77A104BD3ED88
:10417000007A77EE677A17EE900AFCF7E5F90AA362
:10418000D3E90023FCF762FB03460C4618462146A0
:10419000FCF70AFD03463B603B6807EE903AB0EE41
:1041A000670A0C37BD4690BD666666666666304037
:1041B0000004002080B500AF064A137843F00803DE
:1041C00013709FED050A00F03FF902F069FC00BF93
:1041D00080BD00BF100700200000B44280B500AFD2
:1041E000054A137843F0080313709FED040A00F0AA
:1041F0002BF900BF80BD00BF100700200000B442B3
:1042000080B500AF054A13786FF3C3031370012123
:104210005A2000F0BBF900BF80BD00BF100700208E
:1042200080B500AFFFF7C6FFFFF7EAFF00BF80BD14
:1042300080B500AFFFF7D2FFFFF7BCFF00BF80BD26
:1042400080B500AF084A13786FF3C30313701020D2
:1042500000F064FD9FED050A00F076FA002000F002
:104260005DFD00BF80BD00BF100700200000B4C28C
:1042700080B500AF1A4A13786FF3C30313700020A0
:1042800000F04CFD174B1B7CDBB207EE903AF8EECA
:10429000677AB0EE670A00F0D7F8134B00221A8055
:1042A000124B00221A800E4A13786FF3C303137067
:1042B0006FF0590000F00CFC094A13786FF3C30348
:1042C0001370084B5B7CDBB207EE903AF8EE677A2E
:1042D000B0EE670A00F0B8F802F0E2FB00BF80BD64
:1042E00010070020440400208C0400201207002046
:1042F00080B500AF084A13786FF3C3031370012031
:1043000000F00CFD9FED050A00F01EFA002000F001
:1043100005FD00BF80BD00BF100700200000B442B3
:1043200080B500AF1B4A13786FF3C30313700020EE
:1043300000F0F4FC184B9B7CDBB207EE903AF8EEF1
:10434000677AB0EE670A00F07FF8124A13786FF3CD
:10435000C30313705A2000F0BBFB0E4A13786FF3AF
:10436000C30313700C4BDB7CDBB207EE903AF8EE24
:10437000677AB0EE670A00F067F8084B4FF000026A
:104380009A60064B4FF00002DA6002F089FB00BF32
:1043900080BD00BF1007002044040020B8040020A6
:1043A00080B500AF0A4A13786FF3C3031370094B4B
:1043B0004FF000021A60102000F0B0FC9FED060ADA
:1043C00000F0C2F9002000F0A9FC00BF80BD00BFD2
:1043D000100700203C040020000034C380B582B0E8
:1043E00000AF0346FB71164A13786FF3C3031370D3
:1043F000112000F093FCC820FFF76AFC00214FF465
:10440000FA7000F0CDFA002000F088FC0C4A137816
:1044100043F008031370FB79002B04D19FED090AC8
:1044200000F012F807E0B3EE0B0A00F00DF80121DE
:104430001B2000F0ABF800BF0837BD4680BD00BFB1
:10444000100700200000584280B584B000AF87ED0F
:10445000010A464B9B69BB600023FB81444A5378A9
:104460006FF345135370424A537843F0040353707B
:104470003F4A53786FF3041353703D4A53786FF3F8
:10448000C30353703A4A53786FF3C7135370384AD3
:1044900053786FF386135370354A137843F0100343
:1044A0001370334A13786FF345131370304A13783F
:1044B0006FF386131370FFF7E5FD2E4B4FF00002EC
:1044C0001A6000F019FC2C4B00221A803AE02A4BAB
:1044D0001B889BB2B3F57A7F43D8254B1B78C3F377
:1044E0008003DBB2002B2DD0FB89002B2AD197ED66
:1044F000017AD7ED027A77EE277A9FED207A77EE70
:10450000C76A1F4B93ED007AC6EE877A1D4BC3ED49
:10451000037A97ED017AD7ED027A77EE277A9FED4D
:10452000177A77EEC76A164B93ED007AC6EE877A54
:10453000154BC3ED037A0E4A13786FF382031370A1
:104540000123FB81094B93ED067AD7ED026AD7ED83
:10455000017A76EEA77AB4EEE77AF1EE10FAB6D4E5
:1045600000E000BF00BF1037BD4680BD240700201B
:1045700010070020B80400208C04002000007042C6
:10458000880400200007002058040020B0B584B043
:1045900000AF03460A46FB8013467B71624B9B6962
:1045A000FB60624A13786FF3C30313705F4A53785A
:1045B0006FF3451353705D4A537843F01003537003
:1045C0005A4A53786FF3C3035370584A537843F0F1
:1045D00004035370554A53786FF3C7135370534A0B
:1045E00053786FF386135370504A137843F01003D7
:1045F00013704E4A13786FF34513137000F07CFB71
:104600007B791846FBF78EFF4FF00002484BFBF713
:10461000F3FF03460C4625461C46464B1B681846CE
:10462000FBF792FF02460B4620462946FBF7E4FFC4
:1046300003460C4625461C463F4B1B681846FBF7B5
:1046400083FF02460B4620462946FBF7D5FF03466B
:104650000C46184621464FF00002384BFBF7CCFFC2
:1046600003460C4618462146FCF79EFA0346BB60FB
:1046700005E0334B1B889BB2B3F57A7F15D82A4BE4
:1046800093ED067AD7ED027A37EE277AFB8807EEAC
:10469000903AF8EEE76AD7ED037A76EEA77AB4EEB1
:1046A000E77AF1EE10FAE4D400E000BF7B79002B4A
:1046B00032D01E4A13786FF3041313701B4A137819
:1046C00043F0200313700BE0174BD3ED017AF5EEA6
:1046D000407AF1EE10FA03D16420FFF7F9FA07E00F
:1046E000114BD3ED017AF5EEC07AF1EE10FAEBDC66
:1046F0000E4A53786FF3451353700C4A53786FF397
:1047000004135370094A53786FF3C3035370074A75
:1047100053786FF3820353707B79184600F0F3FAF5
:1047200000BF1037BD46B0BD240700201007002091
:104730000000E03F940400202007002000408F404C
:104740008C04002000000000B0B584B000AF87EDFD
:10475000010AD7ED017AF5EEC07AF1EE10FA03DD29
:10476000874B01221A7509E0D7ED017AF5EEC07A80
:10477000F1EE10FA02D5824BFF221A75814A537866
:104780006FF3451353707F4A537843F0040353701B
:104790007C4A537843F0100353707A4A53786FF38E
:1047A000C3035370774A537843F040035370754AFC
:1047B00053786FF3C7135370724A13786FF304136F
:1047C0001370704A13786FF3451313706D4A1378A2
:1047D00043F080031370FFF755FC6B4B1B681846C2
:1047E000FBF7B2FE4FF00002684BFBF705FF0346F4
:1047F0000C4625461C46664B9B681846FBF7A4FEF4
:1048000002460B4620462946FBF7F6FE03460C46B9
:104810001846214658A3D3E90023FBF7EDFE0346D3
:104820000C4618462146FCF7BFF90346FB60544B83
:104830004FF000025A60574B4FF000021A6000F030
:104840005BFAD7ED017AF5EEC07AF1EE10FA3ADDB7
:1048500000BF4B4B93ED077AD7ED016AD7ED037A92
:1048600076EEE77AB4EEE77AF1EE10FAF1D4454A43
:1048700053786FF386135370424A537843F08003A2
:1048800053704FF00003444A1361444A1361414B93
:104890004FF00002DA600BE03E4BD3ED007AF5EE0C
:1048A000407AF1EE10FA03D16420FFF711FA4BE0E1
:1048B000334BD3ED077A97ED017AB4EEE77AF1EE58
:1048C00010FAE9DC40E0D7ED017AF5EEC07AF1EEBE
:1048D00010FA39D500BF2A4B93ED077AD7ED016A5C
:1048E000D7ED037A76EEA77AB4EEE77AF1EE10FA16
:1048F000F1DC244A53786FF386135370214A5378BE
:1049000043F0800353704FF00003234A1361234A9E
:104910001361204B4FF00002DA600BE01D4BD3ED2A
:10492000007AF5EE407AF1EE10FA03D16420FFF739
:10493000CFF909E0124BD3ED077A97ED017AB4EE87
:10494000E77AF1EE10FAE9D4012000F0DCF94FF03B
:104950000003114A1361114A13610E4B4FF000021C
:10496000DA60084A13786FF3C713137000BF10376B
:10497000BD46B0BDAFF300803F355EBA49BC4C4088
:104980002407002010070020140400200000E03F4E
:1049900094040020B8040020B803002098020020EE
:1049A000B0B582B000AF03460A46FB8013467B7168
:1049B000FFF768FB4FF000033E4A13603E4A536026
:1049C0003E4A537843F0040353703C4A53786FF3E4
:1049D00045135370394A53786FF3C3035370374A02
:1049E000537843F010035370344A137843F01003A4
:1049F0001370324A13786FF3451313702F4A5378AC
:104A00006FF3861353702D4A53786FF3C7135370A7
:104A100000F072F900BF2A4B1B889BB21846FBF7C7
:104A200081FD04460D46FB881846FBF77BFD4FF0E1
:104A30000002244BFBF7E0FD02460B4620462946C8
:104A4000FCF74CF80346002BE5D11C4A13786FF3B2
:104A500004131370194A137843F02003137000BF36
:104A6000174B1B889BB2FA889A42F9D87B79002BA6
:104A700009D00021144B0A461A75144B0A461A75C0
:104A80006420FFF725F97B79184600F03CF90A4BC2
:104A90004FF000025A604FF000030B4A13610B4ABB
:104AA0001361044B4FF00002DA6000BF0837BD46C7
:104AB000B0BD00BFB804002024070020100700206C
:104AC0008C0400200000E03FB80300209802002082
:104AD000B0B584B000AF0346FB804FF00003FB602D
:104AE000FFF7D0FA7C4B4FF00002DA617B4B4FF0BE
:104AF00000021A607A4A537843F004035370784AEC
:104B000053786FF345135370754A53786FF3C303AB
:104B10005370734A537843F010035370B7F906305B
:104B2000002B03DD6C4B01221A7506E0B7F9063045
:104B3000002B02DA684BFF221A75694A137843F09A
:104B400010031370664A13786FF345131370644AA9
:104B5000537843F040035370614A53786FF3C7139F
:104B6000537000F0C9F85F4B1B681846FBF7ECFC6C
:104B70004FF000025C4BFBF73FFD03460C46254619
:104B80001C465A4B9B681846FBF7DEFC02460B4658
:104B900020462946FBF730FD03460C4618462146C1
:104BA0004BA3D3E90023FBF727FD03460C46184629
:104BB0002146FBF7F9FF0346FB60474B1B7D5BB2C9
:104BC000012B34D100BF444B93ED077AD7ED037A24
:104BD00037EE277AB7F9063007EE903AF8EEE77A23
:104BE000B4EEE77AF1EE10FAEDD43D4A53786FF364
:104BF000861353703A4A537843F08003537007E0AA
:104C0000364BD3ED007AF5EE407AF1EE10FA49D04A
:104C1000314B93ED077AB7F9063007EE903AF8EE8C
:104C2000E77AB4EEE77AF1EE10FAE9D43DE02A4BE8
:104C30001B7D5BB2B3F1FF3F37D100BF264B93ED35
:104C4000077AD7ED037A37EE677AB7F9063007EEC1
:104C5000903AF8EEE77AB4EEE77AF1EE10FAEDDC8E
:104C60001F4A53786FF3861353701D4A537843F0ED
:104C70008003537007E0194BD3ED007AF5EE407ACC
:104C8000F1EE10FA10D0144B93ED077AB7F9063015
:104C900007EE903AF8EEE77AB4EEE77AF1EE10FA22
:104CA000E9DC02E000BF00E000BF0C4B00221A74F8
:104CB0004FF000030E4A13610E4A1361074B4FF089
:104CC0000002DA6000BF1037BD46B0BDAFF3008010
:104CD0003F355EBA49BC4C4024070020B804002090
:104CE00010070020140400200000E03F940400207E
:104CF000B80300209802002080B400AF00BFBD467A
:104D00005DF8047B704780B483B000AF0346FB714D
:104D100000BF0C37BD465DF8047B704780B483B09C
:104D200000AF0346FB71FB7903F00F03002B02D0A9
:104D3000012B09D011E0194A537843F00203537054
:104D4000174B01221A7508E0144A53786FF3410398
:104D50005370134BFF221A7500BFFB7903F0F00369
:104D6000002B02D0102B09D011E00C4A537843F0ED
:104D7000010353700B4B01221A7508E0074A537860
:104D80006FF300035370074BFF221A7500BF00BF7B
:104D90000C37BD465DF8047B704700BF100700204C
:104DA000B803002098020020B0B586B004AF4FF0E1
:104DB00000037B60AC4B00221A700022AB4B114603
:104DC0009980AB4B11469980AA4B11469980AA4B0A
:104DD00011469980A94B9A800022A44B1146198054
:104DE000A34B11461980A34B11461980A24B1146C3
:104DF0001980A24B1A8000229C4B114659809C4B73
:104E0000114659809B4B114659809B4B1146598046
:104E10009A4B5A800022954B11465981944B11466A
:104E20005981944B11465981934B11465981934BAB
:104E30005A81934B00221A80924B00221A80924B87
:104E400000221A80904B00225A808F4B00221A7148
:104E50008D4B00229A608C4B4FF00002DA608B4B36
:104E600000221A80894B00225A80884B00221A7136
:104E7000864B00229A60854B4FF00002DA60844B2B
:104E80004FF000021A60824B4FF000025A60804BD4
:104E90004FF000029A607E4B4FF00002DA607C4BCC
:104EA0004FF000021A617A4B01221A75784B4FF0CD
:104EB00000029A61774B4FF000021A60754B4FF079
:104EC00000025A60734B4FF000029A60714B4FF032
:104ED0000002DA606F4B4FF000021A616D4B012245
:104EE0001A756C4B4FF000029A616B4B4FF0000249
:104EF0001A60694B4FF000025A60674B4FF0000296
:104F00009A60654B4FF00002DA60634B00221A741E
:104F1000614B4FF000025A61604B4FF07C521A60B7
:104F20005E4B4FF081425A605C4BD3ED007A9FEDAF
:104F30005C7AC7EE276A16EE900AFBF705FB46A3DC
:104F4000D3E90023FBF758FB03460C4618462146DD
:104F5000FBF72AFE03467B607868FBF7F5FA034609
:104F60000C461A4623463EA1D1E90001FBF76EFC30
:104F700003460C4618462146FBF716FE0246474BF1
:104F80009A60464BD3ED027AB0EE087A67EE876AF4
:104F900097ED017AC6EE877A404BC3ED037A3F4B1B
:104FA0001E221A743D4B2D225A743C4B23229A74B4
:104FB0003A4B3222DA743B4B3B4A1A60394B3A4A3D
:104FC0005A60384B394A9A60364B384ADA60354B6A
:104FD000374A1A61334B4FF000025A61314B4FF0A0
:104FE00000029A612F4B4FF00002DA612B4B1A69D5
:104FF00000920FCBFEF7B8FF2A4C6D4604F1100368
:105000000FCB85E80F0094E80F00FEF7C7FF294B90
:105010004FF000021A60274B4FF000025A60254BF8
:105020004FF000029A60234B4FF00002DA60214BF0
:105030004FF000021A611F4B00221A751D4B4FF0F2
:1050400000029A611B4B4FF00002DA61124B4FF0E5
:10505000000231E0AFF30080FCA9F1D24D62503F75
:10506000000000707CD9024014070020F4050020E5
:10507000A804002030040020240400207004002034
:105080008C04002012070020000700205804002094
:1050900098020020B8030020B80400204404002037
:1050A0000000B442D004002000006041CDCC4C3D53
:1050B0000AD7233C240700205A604FF00003214AFE
:1050C000D360204A9360204B4FF000021A601F4BC0
:1050D0004FF00002DA6197ED017AF0EE086AC7EE50
:1050E000267A1B4BC3ED007A1A4B4FF000021A6070
:1050F000194BD3ED006A184B93ED017AC6EE877A0F
:10510000164BC3ED007A134B4FF000021A60144B9C
:1051100080221A80134B02221A80134B01221A801C
:1051200000F02AFF114B00221A70114B00221A7056
:10513000104B114A1A60114B114A1A6000BF083710
:10514000BD46B0BDB80400200004002024070020A4
:1051500014040020040400209404002020070020F0
:10516000100700206C0400201E040020FC03002017
:10517000F0040020180700209702AE3F88040020AA
:105180005C2084BB00000000B0B582B000AF786046
:105190007B681A68A04B1B689A4240F0B4810122D8
:1051A00080219E48FCF772FC012208219B48FCF7F5
:1051B0006DFC012204219A48FCF768FC994B1B788E
:1051C000032B00F2848101A252F823F0DD51000884
:1051D000CF54000803520008A5520008282001F00F
:1051E00043FD002280218D48FCF750FC002208215D
:1051F0008A48FCF74BFC002204218948FCF746FC56
:1052000065E1FEF79DFFF0EE407A874BC3ED027A31
:10521000854B9B681846FBF797F97BA3D3E90023DE
:10522000FBF7EAF903460C4618462146FBF7BCFC9F
:1052300002467D4B1A617C4B93ED027A7A4BD3ED9B
:10524000037A77EE277A17EE900AFBF77DF94FF095
:105250000002764BFBF7D0F903460C461846214670
:105260006BA3D3E90023FBF7C7F903460C46254699
:105270001C466D4BDB691846FBF766F902460B4688
:1052800020462946FBF702F803460C4618462146FD
:10529000FBF78AFC0246644BDA61634B9B68624A07
:1052A000D36014E1624B5B78C3F38003DBB2002B65
:1052B0006BD05F4B1B78C3F34013DBB2002B2CD0B9
:1052C0005C4B5B681846FBF73FF951A3D3E9002319
:1052D000FBF792F903460C4625461C46524B5B6889
:1052E0001846FBF731F922462B46FAF7CDFF034665
:1052F0000C4618462146FBF757FC02464A4B5A60BB
:10530000494BD3ED017AF5EEC07AF1EE10FA3CD5B7
:10531000454B4FF000025A6037E0454B1B78C3F312
:105320000013DBB2002B30D0424B5B681846FBF712
:105330000BF937A3D3E90023FBF75EF903460C46CC
:1053400025461C46384B5B681846FBF7FDF80246BD
:105350000B4620462946FAF799FF03460C461846A5
:105360002146FBF721FC02462F4B5A602E4B93ED52
:10537000017A304BD3ED007AB4EEE77AF1EE10FA11
:1053800003DD2C4B1B68284A5360294B5B78C3F321
:105390000013DBB2002B00F08980254B5B78C3F350
:1053A000C013DBB2002B49D0224BDB681846FBF759
:1053B000CBF817A3D3E90023FBF71EF903460C46ED
:1053C00025461C461C4B1B681846FBF7BDF82246B9
:1053D0002B46FAF759FF03460C4618462146FBF7C1
:1053E000E3FB0246144B1A60134BD3ED007AF5EE43
:1053F000C07AF1EE10FA59D50F4B4FF000021A6047
:1054000054E000BFAFF300805DA79196CADB913FE7
:10541000FCA9F1D24D62503F9C08002000000240E0
:105420000008024014070020240700200000E03F8D
:105430001007002094040020B8040020364B5B784D
:10544000C3F38013DBB2002B30D0344BDB6818463B
:10545000FBF77AF82EA3D3E90023FBF7CDF8034638
:105460000C4625461C462E4B1B681846FBF76CF86D
:1054700002460B4620462946FAF708FF03460C462B
:1054800018462146FBF790FB0246254B1A60244B39
:1054900093ED007A214BD3ED027AB4EEE77AF1EE88
:1054A00010FA03DD1D4B9B681D4A13601A4B1B78D5
:1054B000C3F3C003DBB2002B04D01A4B4FF0000241
:1054C0001A6003E0174B4FF000021A6000BF164B42
:1054D0001B7801335A4203F0030302F0030258BF62
:1054E0005342DAB2104B1A70012280210F48FCF7A8
:1054F000CDFA012208210D48FCF7C8FA0122042147
:105500000B48FCF7C3FA00BF0837BD46B0BD00BF6B
:10551000FCA9F1D24D62503F1007002094040020F6
:10552000B80400203C0400201407002000000240C2
:105530000008024080B582B000AF78607B681B78BD
:1055400003F00103DBB21A464FF480411848FCF720
:105550009DFA7B681B7803F00203DBB21A464FF416
:1055600000411348FCF792FA7B681B7803F00403B0
:10557000DBB21A464FF480710E48FCF787FA7B685D
:105580001B7803F00803DBB21A4610210848FCF729
:105590007DFA7B681B7803F01003DBB21A462021EA
:1055A0000348FCF773FA00BF0837BD4680BD00BF53
:1055B000000402400008024080B500AF00F0DCFCAF
:1055C0004A4B00221A70494B1A78494B1A7001F065
:1055D00067FA00F03DFD00F0A9FE00F0AFFF01F01A
:1055E000BDFA424B1B785A1CD1B2404A11701A4680
:1055F000404B9B5C222B24D0222B02DC112B38D079
:105600004FE0442B05D0882B4BD10020FFF786FBC1
:1056100047E0FEF715FE384B9B881BB21A46364B07
:105620005B899BB29A4202DD0120FEF7D7FE012082
:1056300000F064FE6420FBF7F9FC0020FFF76EFB2E
:105640002FE0FEF7ADFE2D4B9B881BB21A462B4B6D
:105650005B899BB29A4202DD0120FEF7BFFE022069
:1056600000F04CFE6420FBF7E1FC0020FFF756FB46
:1056700017E0FEF73DFE224B9B881BB21A461F4BDC
:105680005B899BB29A4202DD0120FEF7A7FEFF2054
:1056900000F034FE6420FBF7C9FC0020FFF73EFB5E
:1056A00000BFFEF7BDFD00F0D3FB00F029FC154B59
:1056B0001B78C3F30303DBB21A46134B1B889A42D1
:1056C0008FD1104B1B78C3F30313DBB21A460F4B79
:1056D0001B889A4285D14FF4FA60FEF7F9FAFEF77B
:1056E0005FFE022000F00AFE00BF80BD1C07002004
:1056F000D6030020F404002070040020F4050020EC
:1057000024040020FC0300206C0400201E04002060
:1057100080B500AF684B00221A70674B1A78674B50
:105720001A7001F0BDF900F093FC00F0FFFD00F0ED
:1057300005FF01F013FA624803F0C0FA0020FFF7FA
:10574000EDFA604B9B881BB21A465E4B5B899BB29D
:105750009A420ADDFEF724FE6420FBF767FC022074
:1057600000F0CCFD0020FFF7D9FAFEF723FD00F092
:105770006FFB00F0C5FB504B1B785A1CD1B24E4A50
:1057800011701A46504B9B5C222B1BD0222B02DC43
:10579000112B4DD05CE0442B04D0882B58D1FEF760
:1057A00047FD55E0FEF72CFDFEF74AFD6420FBF7B0
:1057B0003DFC012000F0A2FD0020FFF7AFFAFEF74C
:1057C000F9FC45E0FEF71CFD3E4B9B881BB21A46D8
:1057D0003C4B5B899BB29A4204DD3C4A137843F010
:1057E00001031370FEF7DCFD6420FBF71FFC0220B1
:1057F00000F084FD0020FFF791FA344B1B78C3F3CF
:105800000003DBB2002B07D00120FEF7E7FD2F4A93
:1058100013786FF3000313702C4A13786FF3C303EC
:1058200013709FED2B0AFEF70FFE01F039F90FE020
:10583000FEF7E6FCFEF75CFD6420FBF7F7FBFF20BC
:1058400000F05CFD0020FFF769FAFEF7B3FC00BF33
:1058500000F0FEFA00F054FB1E4B1B78C3F3030369
:10586000DBB21A461C4B1B889A4284D1194B1B7819
:10587000C3F30313DBB21A46184B1B889A427FF41A
:105880007AAFFEF7BDFC4FF4FA60FEF721FA4FF451
:1058900096714FF4C460FEF7B1FA4FF4967140F27E
:1058A0007550FEF7ABFA4FF4967140F22650FEF7B2
:1058B000A5FA00BF80BD00BF1C070020D603002052
:1058C00048AC0008F4050020F40400201007002074
:1058D0000000B442FC0300206C0400201E040020E1
:1058E00080B500AF824B00221A70814B1A78814B31
:1058F0001A7001F0D5F800F0ABFB00F017FD00F0D6
:105900005BFF01F02BF97C4803F0D8F90020FFF78A
:1059100005FA7A4B9B881BB21A46784B5B899BB27F
:105920009A420ADDFEF73CFD6420FBF77FFB022074
:1059300000F0E4FC0020FFF7F1F9FEF73BFC00F07B
:1059400087FA00F0FBFA6A4B1B785A1CD1B2684AFE
:1059500011701A466A4B9B5C222B3AD0222B02DC38
:10596000112B63D090E0442B05D0882B40F08C8025
:10597000FEF75EFC88E0634B9B881BB21A46614BC6
:105980009B881BB2C8339A4204DD5F4A137843F008
:1059900001031370FEF734FCFEF752FC6420FBF7A2
:1059A00045FB012000F0AAFC0020FFF7B7F9564B99
:1059B0001B78C3F30003DBB2002B07D00120FEF7F6
:1059C0000DFD514A13786FF300031370FEF7F2FBDD
:1059D0005AE0FEF715FC494B9B881BB21A46474B11
:1059E0005B899BB29A4204DD474A137843F0010376
:1059F0001370FEF7D5FC6420FBF718FB022000F0C3
:105A00007DFC0020FFF78AF93F4B1B78C3F30003AE
:105A1000DBB2002B07D00120FEF7E0FC3A4A1378F6
:105A20006FF300031370FEF7C5FB2DE0374B9B8827
:105A30001BB21A46354B5B899BB2C8339A4204DDD0
:105A4000314A137843F001031370FEF7D9FBFEF7D8
:105A50004FFC6420FBF7EAFAFF2000F04FFC002027
:105A6000FFF75CF9284B1B78C3F30003DBB2002B74
:105A700007D00120FEF7B2FC234A13786FF300032E
:105A80001370FEF797FB00BF00F0E2F900F056FA42
:105A90001F4B1B78C3F30303DBB21A461D4B1B8855
:105AA0009A427FF450AF1A4B1B78C3F30313DBB257
:105AB0001A46194B1B889A427FF445AFFEF7A0FBAC
:105AC0004FF4FA60FEF704F94FF496714FF4C46096
:105AD000FEF794F94FF4967140F27550FEF78EF987
